:020000040000FA
:100000000C9462000C948A000C948A000C948A0070
:100010000C948A000C948A000C948A000C948A0038
:100020000C948A000C948A000C948A000C948A0028
:100030000C948A000C948A000C948A000C948A0018
:100040000C9425040C948A000C948A000C948A0069
:100050000C948A000C948A000C948A000C948A00F8
:100060000C948A000C948A000000000023002600F3
:10007000290000000000240027002A0000000000E2
:10008000250028002B0004040404040404040202D4
:100090000202020203030303030301020408102007
:1000A0004080010204081020010204081020000012
:1000B0000008000201000003040700000000000027
:1000C00000005A0611241FBECFEFD8E0DEBFCDBF1F
:1000D00011E0A0E0B1E0ECEBF1E102C005900D927F
:1000E000A037B107D9F721E0A0E7B1E001C01D9228
:1000F000AB39B207E1F710E0C2E6D0E004C02197C7
:10010000FE010E94D608C136D107C9F70E946F04CC
:100110000C94DC080C940000833081F028F48130CA
:1001200099F08230A9F008958730A9F08830C9F09D
:100130008430B1F4809180008F7D03C08091800075
:100140008F7780938000089584B58F7784BD08955C
:1001500084B58F7DFBCF8091B0008F778093B00006
:1001600008958091B0008F7DF9CF1F93CF93DF93D7
:10017000282F30E0F901E255FF4F8491F901E6564E
:10018000FF4FD491F901EA57FF4FC491CC23A9F056
:10019000162F81110E948C00EC2FF0E0EE0FFF1F54
:1001A000E458FF4FA591B4918FB7F894EC911111D9
:1001B00008C0D095DE23DC938FBFDF91CF911F91D4
:1001C0000895DE2BF8CFCF93DF9390E0FC01E65645
:1001D000FF4F24918A579F4FFC0184918823D1F0CF
:1001E00090E0880F991FFC01EE58FF4FA591B49144
:1001F000FC01E458FF4FC591D491623071F49FB770
:10020000F8943C91822F809583238C93E8812E2B48
:1002100028839FBFDF91CF9108958FB7F894EC9119
:100220002E2B2C938FBFF6CF8E50806480937C0052
:1002300080917A00806480937A0080917A0086FDB4
:10024000FCCF809178009091790008953FB7F894A1
:1002500080917F0190918001A0918101B0918201F4
:1002600026B5A89B05C02F3F19F00196A11DB11D11
:100270003FBFBA2FA92F982F8827BC01CD01620F4D
:10028000711D811D911D42E0660F771F881F991F08
:100290004A95D1F708958F929F92AF92BF92CF92D5
:1002A000DF92EF92FF924B015C010E9426016B01ED
:1002B0007C010E9426016C197D098E099F09683E08
:1002C000734081059105A8F321E0821A9108A108E5
:1002D000B10888EEC80E83E0D81EE11CF11C811421
:1002E0009104A104B10429F7FF90EF90DF90CF9023
:1002F000BF90AF909F908F900895AF92BF92CF9292
:10030000DF92EF92FF920F931F93CF93DF936C01D5
:100310007B018B01040F151FEB015E01AE18BF08B6
:10032000C017D10759F06991D601ED91FC91019068
:10033000F081E02DC6010995892B79F7C501DF9180
:10034000CF911F910F91FF90EF90DF90CF90BF90D2
:10035000AF900895089590E080E00895FC01019029
:100360000020E9F73197AF01481B590BBC0183E826
:1003700091E00C947D018F929F92AF92BF920F9368
:100380001F93CF93DF93CDB7DEB7A1970FB6F89445
:10039000DEBF0FBECDBF19A2423008F44AE08E0185
:1003A0000F5D1F4F842E912CB12CA12CA50194011F
:1003B0000E94B408E62FB901CA01EA30F4F4E05D06
:1003C000D801EE938D01232B242B252B79F790E078
:1003D00080E0109719F0CD010E94AE01A1960FB6F2
:1003E000F894DEBF0FBECDBFDF91CF911F910F916B
:1003F000BF90AF909F908F900895E95CE1CFCF932D
:10040000DF93EC0160E08E810E94B50061E08E8197
:100410000E94B50060E08E810E94B5008BE891E0FB
:100420000197F1F7DF91CF910895CF92DF92EF928C
:10043000FF920F931F93CF93DF936C017C0187E0B2
:10044000E80EF11CD0E0C0E0062F10E0B8010C2E41
:1004500002C0759567950A94E2F76170F701819182
:100460007F010E94B5002196C430D10579F7C601FD
:10047000DF91CF911F910F91FF90EF90DF90CF9080
:100480000C94FF01CF92DF92EF92FF920F931F9394
:10049000CF93DF93EC01F62E642F8C810E94B50080
:1004A0008D818F3F19F060E00E94B5000F2D10E0A4
:1004B0008F8584FF25C06E0187E0C80ED11CF12C0A
:1004C000E12CB8010E2C02C0759567950A94E2F7ED
:1004D0006170F60181916F010E94B500FFEFEF1A84
:1004E000FF0A88E0E816F10461F7CE01DF91CF91B1
:1004F0001F910F91FF90EF90DF90CF900C94FF0130
:10050000B80184E0759567958A95E1F7CE010E9460
:1005100015026F2DCE01DF91CF911F910F91FF90AA
:10052000EF90DF90CF900C94150240E0682F83E8A5
:1005300091E00C944202CF93DF93823029F49091A2
:100540009201986090939201809396011092970186
:1005500080E48093980180E18093990180E5809305
:100560009A0161E0809187010E94E30080918801F7
:100570008F3F19F061E00E94E30061E08091890102
:100580000E94E300C3E8D1E09E01235831408091EE
:10059000920184FD0BC084E090E021962817390772
:1005A00044F461E08E810E94E300EECF88E090E0A9
:1005B000F4CF8BE39DE00197F1F760E08091870134
:1005C0000E94B50060E0809189010E94B500809191
:1005D00088018F3F19F060E00E94B5008091920180
:1005E00084FD39C063E083E891E00E941502CBE40A
:1005F000D6E4CE010197F1F763E083E891E00E9431
:1006000015022197F1F763E083E891E00E9415025B
:1006100083E592E00197F1F762E083E891E00E94C0
:1006200015028091920180620E94950284E080937D
:1006300093018CE00E94950281E00E9495028BE379
:100640009FE10197F1F782E08093940186E0DF91CA
:10065000CF910C94950280620E9495028BE496E4FF
:100660000197F1F78091920180620E94950283E5E3
:1006700092E00197F1F78091920180620E949502C9
:10068000D0CF41E00E94420281E090E008954F9275
:100690005F926F927F928F929F92AF92BF92CF9212
:1006A000DF92EF92FF920F931F93CF936B017C0128
:1006B000742EAC019B010E94AF08882399F080E161
:1006C00091E0CF911F910F91FF90EF90DF90CF902D
:1006D000BF90AF909F908F907F906F905F904F9062
:1006E0000C94AE0146015701E894B7F82FEF3FEFA5
:1006F0004FE75FE7C501B4010E94AF0881110DC04B
:100700002FEF3FEF4FE75FE7C501B4010E94E50619
:1007100018161CF484E191E0D4CF2FEF3FEF4FE7A0
:100720005FE4C701B6010E943D0818161CF488E179
:1007300091E0C7CF2FEF3FEF4FE75FECC701B60166
:100740000E94E50687FDF3CF20E030E0A901C70154
:10075000B6010E94E50610E000E087FF0CC041E012
:100760006DE283E891E00E944202F7FAF094F7F814
:10077000F09401E010E0C0E060E070E080E09FE312
:100780007C1641F020E030E040E251E40E94EA06AD
:10079000CF5FF6CFA70196010E9479064B015C015D
:1007A0000E945C072B013C014AE00E94BB01080F3C
:1007B000191FCC23C9F1C301B2010E948B079B0111
:1007C000AC01C501B4010E9478064B015C0141E017
:1007D0006EE283E891E00E9442020F5F1F4FC1501A
:1007E00018F120E030E040E251E4C501B4010E947C
:1007F00042082B013C010E945C074B01B12CA12C4B
:100800004AE0C501B4010E94BB01080F191FC501D0
:10081000B4010E948B079B01AC01C301B2010E948D
:1008200078064B015C01DBCFC801CF911F910F917E
:10083000FF90EF90DF90CF90BF90AF909F908F9000
:100840007F906F905F904F9008951F920F920FB618
:100850000F9211242F933F938F939F93AF93BF9346
:1008600080917B0190917C01A0917D01B0917E01EE
:1008700030917A0123E0230F2D3758F50196A11D01
:10088000B11D20937A0180937B0190937C01A0930A
:100890007D01B0937E0180917F0190918001A091B4
:1008A0008101B09182010196A11DB11D80937F014C
:1008B00090938001A0938101B0938201BF91AF9189
:1008C0009F918F913F912F910F900FBE0F901F908E
:1008D000189526E8230F0296A11DB11DD2CF78945A
:1008E00084B5826084BD84B5816084BD85B5826035
:1008F00085BD85B5816085BD80916E0081608093E6
:100900006E0010928100809181008260809381004E
:10091000809181008160809381008091800081605E
:10092000809380008091B10084608093B1008091B9
:10093000B00081608093B00080917A0084608093E1
:100940007A0080917A00826080937A0080917A00A8
:10095000816080937A0080917A00806880937A0029
:100960001092C10082E00E949B0261E087E00E9439
:10097000E30061E086E00E94E30062E08FE00E9415
:10098000E30061E08DE00E94E30061E088E00E9406
:10099000E30060E087E00E94B50060E086E00E942E
:1009A000B50060E08DE00E94B50060E088E00E9444
:1009B000B5008CE191E00E94AE01E0919601E23039
:1009C00008F035C1E150F0E0ED57FE4F84898068B2
:1009D0000E9495028AE291E00E94AE0160ED77E00C
:1009E00080E090E00E944B0181E00E9495028BE341
:1009F0009FE10197F1F79DEB892E90E0992EC9EACE
:100A0000D0E005E910E020E0A22E20E0B22E8EE03A
:100A10000E941401BC01990F880B990B0E948D074D
:100A200020E030E040EA50E40E94420820E030EC50
:100A30004FE754E40E94EA0620E030E048EC52E43C
:100A40000E9442086B017C01C0927601D09277012E
:100A5000E0927801F092790180E10E941401BC01DA
:100A6000990F880B990B0E948D0720E030EC4FE71F
:100A700054E40E94EA0620E030E040EA51E40E949B
:100A8000420820E030E040EA50E40E9478062B0162
:100A90003C0140920001509201016092020170926B
:100AA0000301F4018491FE013490F8012490222086
:100AB00089F081110E948C00E22DF0E0EE0FFF1F03
:100AC000E859FF4FA591B4918C918321332433943D
:100AD000811101C0312CF32DF1703F2EF09375017F
:100AE00020E030E040E85FE3C301B2010E947906F4
:100AF0009B01AC01C701B6010E943D0818160CF01D
:100B000098C021E02093740161E087E00E94B50065
:100B100061E088E00E94B500332009F4A2C061E0E2
:100B20008DE00E94B5002FB7F89480917B019091E1
:100B30007C01A0917D01B0917E012FBF4091700199
:100B4000509171016091720170917301841B950B3A
:100B5000A60BB70B813D9740A105B10508F161E0F7
:100B600086E00E94B50064E670E080E090E00E94BC
:100B70004B0160E086E00E94B5002FB7F8948091A9
:100B80007B0190917C01A0917D01B0917E012FBFEE
:100B90008093700190937101A0937201B0937301DF
:100BA000E1E0809196018111E0E0E195F0E0ED5700
:100BB000FE4F848980680E94950287E391E00E943D
:100BC000AE016091760170917701809178019091EA
:100BD000790141E00E9447036FED83E891E00E94B4
:100BE00041038DE391E00E94AE01E0919601E23075
:100BF00008F040C0E150F0E0ED57FE4F8489806876
:100C00000E949502809175018823B1F180E491E002
:100C10000E94AE016AEF70E080E090E00E944B011C
:100C2000A114B10409F4F3CE0E940000F0CEE1E07B
:100C3000CACE20E030E040E85FE3C301B2010E9489
:100C400078069B01AC01C701B6010E94E50687FF4B
:100C500063CF1092740160E087E00E94B50060E00D
:100C600058CF60E08DE00E94B50060E086E00E9411
:100C7000B50096CFE1E0BFCF80917401882319F0D1
:100C800080E591E0C5CF80E691E00E94AE016091E1
:100C9000000170910101809102019091030141E0F6
:100CA0000E9447036FED83E891E00E9441038DE6C7
:100CB00091E0AECFE3E8F1E01382128288E091E0A8
:100CC000918380838CE084838FEF85838BE08683A0
:100CD00085E0878384E0808783E0818782E0828764
:100CE0001386148615861686178681E00C949B025F
:100CF0005058BB27AA270E9490060C9403080E9414
:100D0000F50738F00E94FC0720F039F49F3F19F4F2
:100D100026F40C94F2070EF4E095E7FB0C94EC0734
:100D2000E92F0E94140858F3BA1762077307840763
:100D3000950720F079F4A6F50C9436080EF4E095AA
:100D40000B2EBA2FA02D0B01B90190010C01CA0185
:100D5000A0011124FF27591B99F0593F50F4503E30
:100D600068F11A16F040A22F232F342F4427585F22
:100D7000F3CF469537952795A795F0405395C9F73A
:100D80007EF41F16BA0B620B730B840BBAF09150F2
:100D9000A1F0FF0FBB1F661F771F881FC2F70EC091
:100DA000BA0F621F731F841F48F487957795679564
:100DB000B795F7959E3F08F0B0CF9395880F08F050
:100DC0009927EE0F9795879508950E94C80708F414
:100DD00081E008950E94FE060C9403080E94FC071F
:100DE00058F00E94F50740F029F45F3F29F00C9479
:100DF000EC0751110C9437080C94F2070E94140868
:100E000068F39923B1F3552391F3951B550BBB2739
:100E1000AA2762177307840738F09F5F5F4F220F7E
:100E2000331F441FAA1FA9F335D00E2E3AF0E0E875
:100E300032D091505040E695001CCAF72BD0FE2FBF
:100E400029D0660F771F881FBB1F26173707480753
:100E5000AB07B0E809F0BB0B802DBF01FF2793580B
:100E60005F4F3AF09E3F510578F00C94EC070C94DC
:100E700037085F3FE4F3983ED4F3869577956795FE
:100E8000B795F7959F5FC9F7880F911D9695879540
:100E900097F90895E1E0660F771F881FBB1F62175F
:100EA00073078407BA0720F0621B730B840BBA0B1D
:100EB000EE1F88F7E09508950E941C0888F09F5760
:100EC00098F0B92F9927B751B0F0E1F0660F771F6E
:100ED000881F991F1AF0BA95C9F714C0B13091F064
:100EE0000E943608B1E008950C943608672F782FD9
:100EF0008827B85F39F0B93FCCF386957795679529
:100F0000B395D9F73EF490958095709561957F4F94
:100F10008F4F9F4F0895E89409C097FB3EF490953A
:100F20008095709561957F4F8F4F9F4F9923A9F0C2
:100F3000F92F96E9BB279395F69587957795679551
:100F4000B795F111F8CFFAF4BB0F11F460FF1BC095
:100F50006F5F7F4F8F4F9F4F16C0882311F096E928
:100F600011C0772321F09EE8872F762F05C06623D6
:100F700071F096E8862F70E060E02AF09A95660F8F
:100F8000771F881FDAF7880F9695879597F9089548
:100F9000990F0008550FAA0BE0E8FEEF161617068A
:100FA000E807F907C0F012161306E407F50798F0F2
:100FB000621B730B840B950B39F40A2661F0232B0B
:100FC000242B252B21F408950A2609F4A140A69587
:100FD0008FEF811D811D089597F99F6780E870E06C
:100FE00060E008959FEF80EC089500240A9416169F
:100FF000170618060906089500240A941216130607
:10100000140605060895092E0394000C11F4882394
:1010100052F0BB0F40F4BF2B11F460FF04C06F5FB0
:101020007F4F8F4F9F4F089557FD9058440F551F86
:1010300059F05F3F71F04795880F97FB991F61F05A
:101040009F3F79F087950895121613061406551FD1
:10105000F2CF4695F1DF08C0161617061806991F3D
:10106000F1CF86957105610508940895E894BB2732
:1010700066277727CB0197F908950E94C80708F4DF
:101080008FEF08950E9455080C9403080E94F507FD
:1010900038F00E94FC0720F0952311F00C94EC0727
:1010A0000C94F20711240C9437080E94140870F372
:1010B000959FC1F3950F50E0551F629FF001729FFD
:1010C000BB27F00DB11D639FAA27F00DB11DAA1F0C
:1010D000649F6627B00DA11D661F829F2227B00D59
:1010E000A11D621F739FB00DA11D621F839FA00DE4
:1010F000611D221F749F3327A00D611D231F849F34
:10110000600D211D822F762F6A2F11249F5750408A
:101110009AF0F1F088234AF0EE0FFF1FBB1F661F05
:10112000771F881F91505040A9F79E3F510580F0CE
:101130000C94EC070C9437085F3FE4F3983ED4F32B
:10114000869577956795B795F795E7959F5FC1F772
:10115000FE2B880F911D9695879597F908950E940B
:10116000C807880B990B0895A1E21A2EAA1BBB1B76
:10117000FD010DC0AA1FBB1FEE1FFF1FA217B30763
:10118000E407F50720F0A21BB30BE40BF50B661F79
:10119000771F881F991F1A9469F76095709580953D
:1011A00090959B01AC01BD01CF010895EE0FFF1F8B
:1011B0000590F491E02D0994F894FFCF0000A04031
:1011C0000000000041037D01AB01AA016E616E00C9
:1011D000696E66006F766600526566726967657251
:1011E00061646F7261004D6F6465726E612076316B
:1011F0002E300054656D703A004320005055455222
:10120000544120414249455254412100456E667285
:1012100069616E646F2E2E2E2020200054656D7043
:0C122000204F4B205365743A004300003F
:107E0000112484B714BE81FFF0D085E080938100F7
:107E100082E08093C00088E18093C10086E0809377
:107E2000C20080E18093C4008EE0C9D0259A86E02C
:107E300020E33CEF91E0309385002093840096BBD3
:107E4000B09BFECF1D9AA8958150A9F7CC24DD24C4
:107E500088248394B5E0AB2EA1E19A2EF3E0BF2EE7
:107E6000A2D0813461F49FD0082FAFD0023811F036
:107E7000013811F484E001C083E08DD089C08234E0
:107E800011F484E103C0853419F485E0A6D080C0E4
:107E9000853579F488D0E82EFF2485D0082F10E0AE
:107EA000102F00270E291F29000F111F8ED06801E7
:107EB0006FC0863521F484E090D080E0DECF843638
:107EC00009F040C070D06FD0082F6DD080E0C81688
:107ED00080E7D80618F4F601B7BEE895C0E0D1E017
:107EE00062D089930C17E1F7F0E0CF16F0E7DF06D8
:107EF00018F0F601B7BEE89568D007B600FCFDCFD4
:107F0000A601A0E0B1E02C9130E011968C91119780
:107F100090E0982F8827822B932B1296FA010C0160
:107F200087BEE89511244E5F5F4FF1E0A038BF0790
:107F300051F7F601A7BEE89507B600FCFDCF97BE46
:107F4000E89526C08437B1F42ED02DD0F82E2BD052
:107F50003CD0F601EF2C8F010F5F1F4F84911BD097
:107F6000EA94F801C1F70894C11CD11CFA94CF0C13
:107F7000D11C0EC0853739F428D08EE10CD085E9AC
:107F80000AD08FE07ACF813511F488E018D01DD067
:107F900080E101D065CF982F8091C00085FFFCCF94
:107FA0009093C60008958091C00087FFFCCF809118
:107FB000C00084FD01C0A8958091C6000895E0E648
:107FC000F0E098E1908380830895EDDF803219F02E
:107FD00088E0F5DFFFCF84E1DECF1F93182FE3DFCA
:107FE0001150E9F7F2DF1F91089580E0E8DFEE27F6
:047FF000FF270994CA
:027FFE00040479
:00000001FF
