:100000000C940A040C943B040C943B040C943B04A5
:100010000C943B040C943B040C943B040C943B0464
:100020000C943B040C943B040C943B040C943B0454
:100030000C943B040C943B040C943B040C943B0444
:100040000C943B040C943B040C943B040C943B0434
:100050000C943B040C943B040C943B040C94E81368
:100060000C943B040C945C140C9432140C943B04DC
:100070000C943B040C943B040C943B040C943B0404
:100080000C943B040C943B040C943B040C943B04F4
:100090000C943B040C943B040C943B040C9492147D
:1000A0000C943B040C943B040C943B040C943B04D4
:1000B0000C943B040C943B040C943B040C943B04C4
:1000C0000C943B040C943B040C943B040C943B04B4
:1000D0000C943B040C943B040C943B040C943B04A4
:1000E0000C943B040C94BF040C9484100C94910B5E
:1000F0000C9478090C9484040C94950C0C948C0446
:100100000C94A3040C948D050C949D040C94F90795
:100110000C94B2150C9488040C9472040C945F0B2C
:100120000C94B60A0C94750A0C9493040C94A105D3
:100130000C94DB0E0C94B9040C946D040C94C30461
:100140000C9407090C94AB040C9451050C947E0597
:100150000C94E7050C94AD0F0C94020C0C94331224
:100160000C9448120C9499040C94B1040C940C1047
:100170000C94F60A0C940C0C0C9487110C94340615
:100180000C94E9090C9434120C94AF050C94B5044A
:100190000C946B070C94A7040C94900400000000CE
:1001A000003E5B4F5B3E3E6B4F6B3E1C3E7C3E1CFD
:1001B000183C7E3C181C577D571C1C5E7F5E1C0043
:1001C000183C1800FFE7C3E7FF0018241800FFE7FA
:1001D000DBE7FF30483A060E2629792926407F05BD
:1001E0000507407F05253F5A3CE73C5A7F3E1C1CD3
:1001F00008081C1C3E7F14227F22145F5F005F5F93
:1002000006097F017F006689956A6060606060947E
:10021000A2FFA29408047E040810207E2010080883
:100220002A1C08081C2A08081E101010100C1E0C8E
:100230001E0C30383E3830060E3E0E060000000020
:100240000000005F00000007000700147F147F1407
:10025000242A7F2A1223130864623649562050004C
:1002600008070300001C2241000041221C002A1C38
:100270007F1C2A08083E0808008070300008080823
:100280000808000060600020100804023E51494543
:100290003E00427F400072494949462141494D3361
:1002A0001814127F1027454545393C4A49493141C8
:1002B000211109073649494936464949291E000096
:1002C00014000000403400000008142241141414EB
:1002D0001414004122140802015909063E415D59D7
:1002E0004E7C1211127C7F494949363E41414122E0
:1002F0007F4141413E7F494949417F090909013E0A
:10030000414151737F0808087F00417F4100204030
:10031000413F017F081422417F404040407F021C42
:10032000027F7F0408107F3E4141413E7F09090959
:10033000063E4151215E7F09192946264949493225
:1003400003017F01033F4040403F1F2040201F3FEB
:100350004038403F63140814630304780403615970
:10036000494D43007F4141410204081020004141B2
:10037000417F04020102044040404040000307085E
:100380000020545478407F2844443838444444285A
:10039000384444287F385454541800087E09021801
:1003A000A4A49C787F0804047800447D4000204089
:1003B000403D007F1028440000417F40007C0478CD
:1003C00004787C080404783844444438FC18242415
:1003D0001818242418FC7C08040408485454542495
:1003E00004043F44243C4040207C1C2040201C3C12
:1003F0004030403C44281028444C9090907C446409
:10040000544C44000836410000007700000041369B
:10041000080002010204023C2623263C1EA1A16121
:10042000123A4040207A3854545559215555794153
:100430002254547842215554784020545579400C28
:100440001E5272123955555559395454545939550B
:100450005454580000457C410002457D420001454E
:100460007C407D1211127DF0282528F07C545545E2
:10047000002054547C547C0A097F4932494949324E
:100480003A4444443A324A4848303A4141217A3A5F
:1004900042402078009DA0A07D3D4242423D3D402B
:1004A00040403D3C24FF2424487E4943662B2FFCDA
:1004B0002F2BFF0929F620C0887E09032054547988
:1004C000410000447D413048484A32384040227A59
:1004D000007A0A0A727D0D19317D2629292F2826D6
:1004E0002929292630484D402038080808080808DE
:1004F0000808382F10C8ACBA2F102834FA00007B37
:10050000000008142A142222142A14085500550049
:1005100055AA55AA55AAFF55FF55FF000000FF0038
:10052000101010FF00141414FF001010FF00FF1033
:1005300010F010F0141414FC001414F700FF000065
:10054000FF00FF1414F404FC141417101F10101FE4
:10055000101F1414141F00101010F0000000001FD2
:10056000101010101F10101010F010000000FF10DD
:100570001010101010101010FF10000000FF1400D9
:1005800000FF00FF00001F10170000FC04F414140B
:100590001710171414F404F40000FF00F7141414D7
:1005A00014141414F700F7141414171410101F1057
:1005B0001F141414F4141010F010F000001F101F7A
:1005C0000000001F14000000FC140000F010F010E8
:1005D00010FF10FF141414FF141010101F0000005F
:1005E00000F010FFFFFFFFFFF0F0F0F0F0FFFFFF63
:1005F0000000000000FFFF0F0F0F0F0F38444438BA
:1006000044FC4A4A4A347E02020606027E027E0208
:1006100063554941633844443C04407E201E200613
:10062000027E020299A5E7A5991C2A492A1C4C7250
:1006300001724C304A4D4D303048784830BC625AD7
:10064000463D3E494949007E0101017E2A2A2A2A67
:100650002A44445F444440514A444040444A514043
:100660000000FF0103E080FF000008086B6B083604
:1006700012362436060F090F060000181800000075
:100680001010003040FF0101001F01011E00191D64
:100690001712003C3C3C3C0000000000EF030380CC
:1006A00002CF0300C130ED0464031281E80385002A
:1006B00078CB05392C003402F70120EA020000C093
:1006C0000123C10110C5023E28C701863601483703
:1006D00001003A0155B1020018B603088227F20161
:1006E00000260101E00F0F312B0C0E084EF13707E9
:1006F00010030E0900E10F000E1403110731C14869
:10070000080F0C31360F11802980000000210024D1
:100710000027002A002D00300033000101000004F2
:100720000107010A0100000A0B02090C0D0E08075F
:1007300003040100000000000000000000000000B1
:1007400000000000000000000000000000000000A9
:100750000012111000000000000000000000000066
:100760000000000000000000000000010210202036
:1007700008081020401020408002010201080402F5
:10078000010102040810204080804020100804026B
:1007900001800402018040201008040201080402C4
:1007A00001010204081020408001020408102040CA
:1007B0008000002200250028002B002E003100348C
:1007C0000002010000050108010B010505050507F0
:1007D0000508080808020202020A0A0808040404BC
:1007E00004010101010101010103030303030303E8
:1007F00003040707070C0C0C0C0C0C0C0C02020277
:100800000206060606060606060B0B0B0B0B0B0B69
:100810000B00B21511241FBECFEFD1E2DEBFCDBF5A
:1008200000E00CBF12E0A0E0B2E0E4E7F0E300E09B
:100830000BBF02C007900D92A23AB107D9F724E08E
:10084000A2EAB2E001C01D92A030B207E1F714E0C5
:10085000CAE0D4E000E006C021970109802FFE0124
:100860000E94F917C930D10780E00807A9F70E9454
:100870007F160C9438180C940000282F30E0F901F2
:10088000EB5DF84F9491F901E559F84F44912553E8
:10089000384FF9012491222309F435C0992311F12D
:1008A00091509231F8F4E92FF0E08827E55AFB4F98
:1008B0008F4F0C94F9178C0490046D048404880401
:1008C0007204930499049D04A304A704AB04B10427
:1008D000B5047204B904BF04C304809180008F770B
:1008E00080938000E22FF0E0EE0FFF1FEF54F84FEF
:1008F000A591B4918FB7F894EC91611148C04095DF
:100900004E234C938FBF0895809180008F7DE8CF58
:1009100080918000877FE4CF84B58F7784BDE2CF5C
:1009200084B58F7DFBCF8091B0008F778093B0002E
:10093000D9CF8091B0008F7DF9CF809190008F77D3
:1009400080939000CFCF809190008F7DF9CF8091E0
:100950009000877FF5CF8091A0008F778093A000D3
:10096000C1CF8091A0008F7DF9CF8091A000877FBB
:10097000F5CF809120018F7780932001B3CF8091B4
:1009800020018F7DF9CF80912001877FF5CF4E2BFD
:10099000B8CFCF93DF9390E0FC01E559F84F249155
:1009A0008553984FFC0184918823D1F090E0880F03
:1009B000991FFC01E55FF84FA591B491FC01EF543C
:1009C000F84FC591D49161110EC09FB7F8948C91E6
:1009D000E22FE0958E238C932881E223E8839FBF4A
:1009E000DF91CF9108958FB7F894EC91E22BEC93BF
:1009F0008FBFF6CF3FB7F89480911B0390911C03F3
:100A0000A0911D03B0911E0326B5A89B05C02F3FE2
:100A100019F00196A11DB11D3FBFBA2FA92F982F24
:100A20008827BC01CD01620F711D811D911D42E01F
:100A3000660F771F881F991F4A95D1F708958F92E7
:100A40009F92AF92BF92CF92DF92EF92FF924B01B3
:100A50005C010E94FA046B017C010E94FA046C198B
:100A60007D098E099F09683E734081059105A8F3B1
:100A700021E0821A9108A108B10888EEC80E83E02F
:100A8000D81EE11CF11C81149104A104B10429F7C2
:100A9000FF90EF90DF90CF90BF90AF909F908F909E
:100AA0000895AF92BF92CF92DF92EF92FF920F9391
:100AB0001F93CF93DF936C017B018B01040F151FF4
:100AC000EB015E01AE18BF08C017D10759F069915C
:100AD000D601ED91FC910190F081E02DC6011995B0
:100AE000892B79F7C501DF91CF911F910F91FF906D
:100AF000EF90DF90CF90BF90AF900895FC01538DA1
:100B0000448D252F30E0842F90E0821B930B5417E7
:100B100010F0CF96089501970895FC01918D828D74
:100B2000981761F0A28DAE0FBF2FB11D5D968C910D
:100B3000928D9F5F9F73928F90E008958FEF9FEF4C
:100B40000895FC01918D828D981731F0828DE80F08
:100B5000F11D858D90E008958FEF9FEF0895FC01C2
:100B6000918D228D892F90E0805C9F4F821B91098F
:100B70008F73992708958FE193E00E94AF0521E0DC
:100B8000892B09F420E0822F0895FC01A48DA80F81
:100B9000B92FB11DA35ABF4F2C91848D90E00196BF
:100BA0008F739927848FA689B7892C93A089B189DF
:100BB0008C91837080648C93938D848D981306C080
:100BC0000288F389E02D80818F7D80830895EF92E4
:100BD000FF920F931F93CF93DF93EC0181E0888FF7
:100BE0009B8D8C8D98131AC0E889F989808185FFC7
:100BF00015C09FB7F894EE89FF896083E889F98969
:100C000080818370806480839FBF81E090E0DF916A
:100C1000CF911F910F91FF90EF900895F62E0B8DBD
:100C200010E00F5F1F4F0F731127E02E8C8D8E1178
:100C30000CC00FB607FCFACFE889F989808185FFDF
:100C4000F5CFCE010E94C505F1CFEB8DEC0FFD2F46
:100C5000F11DE35AFF4FF0829FB7F8940B8FEA899A
:100C6000FB8980818062CFCFCF93DF93EC01888DA9
:100C70008823B9F0AA89BB89E889F9898C9185FD17
:100C800003C0808186FD0DC00FB607FCF7CF8C91A5
:100C900085FFF2CF808185FFEDCFCE010E94C50593
:100CA000E9CFDF91CF91089580E090E0892B29F082
:100CB0000E94BB0581110E94000080E090E0892B1A
:100CC00049F080E090E0892B29F00E94000081111A
:100CD0000E94000080E090E0892B49F080E090E0E5
:100CE000892B29F00E94000081110E94000080E001
:100CF00090E0892B49F080E090E0892B29F00E9458
:100D0000000081110C94000008952091C902260F63
:100D10003327331F21323105ECF42091ED02FC0121
:100D200090E080E0243069F082E00895A091C9024B
:100D30002191AC0147555D4FA40FB52FB11D2C93E8
:100D40000196861798F38091C902680F6093C902D3
:100D500080E0089581E0089508958FEF9FEF089552
:100D60008FEF9FEF08958091A20290E09195819579
:100D700091090895CF93DF93CB01EA01642F0E947C
:100D80008506CE01DF91CF910895CF93DF931F9217
:100D9000CDB7DEB7698361E0CE0101960E9485067A
:100DA00081E090E00F90DF91CF910895FC01A5A123
:100DB000B6A18C9192A589238C93A5A1B6A18C9103
:100DC00091A5892B8C9308950F931F93CF93DF9355
:100DD000EC018B018DA981110DC01EBD0DB407FE64
:100DE000FDCF0EBD0DB407FEFDCFDF91CF911F915A
:100DF0000F9108958130E9F480E1E9A1FAA1908191
:100E000017FF14C02DA1922B9083EBA1FCA1908120
:100E10002FA1922B9083EBA1FCA1908128A5922376
:100E20009083000F111F815041F7DFCF2EA1922335
:100E3000EBCFEF8DF8A11083CE010E94D606EF8D87
:100E4000F8A10083CE01DF91CF911F910F910C94F7
:100E5000D606FC0185A9811105C06EBD0DB407FE43
:100E6000FDCF08958130E1F488E0A1A1B2A19C9169
:100E700067FF13C025A1922B9C93A3A1B4A19C91C1
:100E800027A1922B9C93660FA3A1B4A19C9120A5AE
:100E900092239C93815049F7089526A19223ECCF89
:100EA000A78DB0A16C93CF010C94D606CF93DF939E
:100EB000EC01ED8DFE8D80819CA989238083CE017C
:100EC0000E942907ED8DFE8D80819BA9892B80834F
:100ED000DF91CF910895AF92BF92CF92DF92EF92C0
:100EE000FF920F931F93CF93DF93EC015B016A0195
:100EF000215031097901E60EF71E01501109040F46
:100F0000151F80910602909107028617970739F402
:100F100080910402909105028E159F05A1F06AE26E
:100F2000CE010E945607B501CE010E94E406B7012A
:100F3000CE010E94E406B0920702A0920602F0924F
:100F40000502E092040280910202909103028C1546
:100F50009D0539F48091000290910102801791075C
:100F6000A1F06BE2CE010E945607B601CE010E94AD
:100F7000E406B801CE010E94E406D0920302C092BA
:100F8000020210930102009300026CE2CE01DF9195
:100F9000CF911F910F91FF90EF90DF90CF90BF9076
:100FA000AF900C945607FC0185A9811104C091A152
:100FB00082A19CBD8DBD08951F93CF93DF93EC015B
:100FC000162FE881F9810284F385E02D199511230C
:100FD00071F06DADCE010E945607E881F981068857
:100FE000F789E02DCE01DF91CF911F9119946EAD5D
:100FF000F1CFAF92BF92CF92DF92EF92FF920F9319
:101000001F93CF93DF93EC0177FD38C088859985D6
:10101000681779079CF557FD31C08A859B8548176D
:10102000590764F569017A015B01E881F98102845D
:10103000F385E02DCE011995E881F98102A4F3A58D
:10104000E02D01E010E021E030E0A701B501CE0184
:101050001995B601CE010E94E406E881F98106885F
:10106000F789E02DCE01DF91CF911F910F91FF9075
:10107000EF90DF90CF90BF90AF901994DF91CF9118
:101080001F910F91FF90EF90DF90CF90BF90AF90A6
:1010900008958F929F92AF92BF92CF92DF92EF927C
:1010A000FF920F931F93CF93DF93EC0149015701F8
:1010B000E881F98102A4F3A5E02D19959401D801E6
:1010C0000E9401186B017C01C114D104E104F104F8
:1010D00009F490C08DA9811115C081E0C81AD1080A
:1010E000E108F1088FEFC816D806E806F80609F4FB
:1010F00081C0BEBC0DB407FEFDCFAEBC0DB407FE73
:10110000FDCFEBCF813009F045C081E0C81AD1088E
:10111000E108F1088FEFC816D806E806F80609F4CA
:1011200069C09B2D88E0E9A1FAA1208197FF2CC01E
:101130003DA1232B2083EBA1FCA120813FA1232BE8
:101140002083EBA1FCA1208138A523232083990FC4
:10115000815049F79A2D88E0E9A1FAA1208197FFF3
:1011600016C03DA1232B2083EBA1FCA120813FA130
:10117000232B2083EBA1FCA1208138A523232083EE
:10118000990F815049F7C1CF3EA12323D3CF3EA170
:101190002323E9CFBA1016C0CC0CDD1CEE1CFF1CBB
:1011A000EF8DF8A1B08281E0C81AD108E108F108FA
:1011B0008FEFC816D806E806F806E1F0CE010E94C7
:1011C000D606F1CF81E0C81AD108E108F1088FEF07
:1011D000C816D806E806F80669F0EF8DF8A1B082C7
:1011E000CE010E94D606EF8DF8A1A082CE010E940A
:1011F000D606E8CFDF91CF911F910F91FF90EF902E
:10120000DF90CF90BF90AF909F908F9008958F9276
:101210009F92AF92BF92CF92DF92EF92FF920F9385
:101220001F93CF93DF935C014B016A01E90177FDC6
:1012300052C0DC0118968D919C91681779070CF0CB
:101240004AC0209709F447C037FF07C0C90101967B
:10125000C80ED91ED195C195D109F5018285938516
:10126000C816D906C4F5A6014C0F5D1F9A0121507E
:10127000310937FD30C0D7FE03C0EA01D12CC12CA3
:10128000281739071CF0EC01CC19DD09D501ED91C7
:10129000FC910284F385E02DC501199578018E013A
:1012A00021E030E0A601B401C5010E944908D50142
:1012B000ED91FC910688F789E02DC501DF91CF9172
:1012C0001F910F91FF90EF90DF90CF90BF90AF9064
:1012D0009F908F901994DF91CF911F910F91FF9064
:1012E000EF90DF90CF90BF90AF909F908F90089538
:1012F0008F929F92AF92BF92CF92DF92EF92FF9226
:101300000F931F93CF93DF935C016B014A01E901B7
:1013100057FD52C0DC011A968D919C9148175907D0
:101320000CF04AC0209709F447C037FF07C0C90135
:101330000196C80ED91ED195C195D109F5018085B8
:101340009185C816D906C4F5A6014C0F5D1F9A01F8
:101350002150310937FD30C0D7FE03C0EA01D12C3E
:10136000C12C281739071CF0EC01CC19DD09D50177
:10137000ED91FC910284F385E02DC501199578016A
:1013800001E010E09E01A401B601C5010E944908D8
:10139000D501ED91FC910688F789E02DC501DF911B
:1013A000CF911F910F91FF90EF90DF90CF90BF9062
:1013B000AF909F908F901994DF91CF911F910F91D3
:1013C000FF90EF90DF90CF90BF90AF909F908F9065
:1013D00008958F929F92AF92BF92CF92DF92EF9239
:1013E000FF920F931F93CF93DF934C016B015A0130
:1013F000E901209709F46CC00115110509F468C0D2
:1014000037FF07C0C9010196C80ED91ED195C195F5
:10141000D109F401A085B185CA16DB060CF058C0CD
:1014200017FF07C0C8010196A80EB91E11950195B6
:101430001109F40182859385A816B9060CF048C0FD
:10144000F601EC0FFD1FAF014150510957FD40C09F
:10145000B501600F711F9B012150310937FD38C064
:10146000D7FE03C0EF01D12CC12CB7FE03C08B0106
:10147000B12CA12C4A175B071CF0ED01CC19DD093A
:10148000281739071CF08C010A191B09D401ED91AA
:10149000FC910284F385E02DC40119959E01A501FC
:1014A000B601C4010E944908D401ED91FC9106885F
:1014B000F789E02DC401DF91CF911F910F91FF902B
:1014C000EF90DF90CF90BF90AF909F908F90199446
:1014D000DF91CF911F910F91FF90EF90DF90CF9010
:1014E000BF90AF909F908F900895EF92FF920F93CF
:1014F0001F93CF93DF9377FD32C0DC011896ED91F7
:10150000FC916E177F075CF52115310541F137FF1E
:1015100007C0F90131964E0F5F1F319521953109B2
:10152000DC011A96ED91FC914E175F07C4F4EA01B5
:10153000C20FD31FDE011197B7FD11C057FF03C0C3
:101540009E0150E040E0AE17BF071CF09F01241B36
:10155000350B7801890121E030E00E944908DF91D4
:10156000CF911F910F91FF90EF900895EF92FF920E
:101570000F931F93CF93DF9357FD31C0DC011A9671
:10158000ED91FC914E175F0754F52115310539F1A6
:1015900037FF07C0F90131966E0F7F1F31952195F6
:1015A0003109DC011896ED91FC916E177F07BCF4B0
:1015B000EB01C20FD31FDE011197B7FD10C077FFFB
:1015C00003C09E0170E060E0AE17BF071CF09F01F2
:1015D000261B370B780101E010E00E944908DF91DB
:1015E000CF911F910F91FF90EF9008958F929F924E
:1015F000AF92BF92CF92DF92EF92FF920F931F9321
:10160000CF93DF9347012115310509F44BC0011534
:10161000110509F447C037FF07C0F90131966E0F75
:101620007F1F319521953109DC011896AD90BC9052
:101630006A157B05BCF517FF07C0F80131964E0F00
:101640005F1F119501951109DC011A96ED91FC912E
:101650004E175F073CF56B01C20ED31EE6012197C2
:10166000D7FD20C07A01E00EF11ED7011197B7FD1A
:1016700019C077FF03C0960170E060E057FF03C018
:10168000870150E040E0CA15DB051CF09501261BE0
:10169000370BAE17BF071CF08F01041B150B74012D
:1016A0000E944908DF91CF911F910F91FF90EF9019
:1016B000DF90CF90BF90AF909F908F900895EF9262
:1016C000FF920F931F93CF93DF93EC0177FD22C01E
:1016D0008885998568177907ECF457FD1BC08A85C2
:1016E0009B8548175907B4F47901E881F98102A470
:1016F000F3A5E02D01E010E021E030E0CE011995E6
:10170000B701CE01DF91CF911F910F91FF90EF9024
:101710000C94E406DF91CF911F910F91FF90EF9011
:101720000895CF93DF93EC010E94D3078FA987FD23
:1017300006C0EB8DFC8D80819AA989238083DF917F
:10174000CF9108950895AF92BF92CF92DF92EF921A
:10175000FF920F931F93CF93DF93EC01E62E8A0144
:10176000A22E0E94D3078FA987FD06C0EB8DFC8DAA
:1017700080819AA989238083ED8DFE8D80819CA92B
:10178000892380836E2DCE010E942907ED8DFE8D69
:1017900080819BA9892B8083D12CC12CB12CCA14A8
:1017A000DB04E4F48DA97801823079F488A98823D8
:1017B00061F0F801619171917F01CE010E94E40610
:1017C000FFEFCF1ADF0A8701EACFFFEFEF1AFF0A18
:1017D000F8016491CE010E942907F2CF8FA987FDFD
:1017E00006C0EB8DFC8D808199A9892B8083DF91C8
:1017F000CF911F910F91FF90EF90DF90CF90BF900E
:10180000AF900895611106C060E220E050E040E032
:101810000C94A30B61E2F9CF0F931F93CF93DF9347
:101820001F92CDB7DEB78C016370DC0156966C93C6
:101830005697623009F468C0633009F46AC06130B9
:1018400009F456C088E4898380EF90E019969C9350
:101850008E93189780E491E01B969C938E931A9731
:10186000C8010E94D307D801D7968C91D79787FDDE
:1018700009C05B96ED91FC915C978081D2969C911A
:1018800089238083D8015D96ED91FC915E978081DC
:10189000D4969C918923808366E3C8010E9429071E
:1018A000D8015D96ED91FC915E978081D3969C91D5
:1018B000D397892B8083D5968C91823061F1698191
:1018C000C8010E942907D801D7968C91D79787FD28
:1018D00009C05B96ED91FC915C978081D1969C91BB
:1018E000892B80830F90DF91CF911F910F910895E5
:1018F00088E2898380E491E0F8019187808780EF16
:1019000090E093878287ACCF88E8898380EF90E06E
:101910009DCF88EEEECFF80180A9882381F26981FE
:101920007A81C8010E94E406CECFFC0187A987FD19
:1019300006C0A38DB48D9C9181A9892B8C930895A9
:101940000895FC016370668B8481958126813781BF
:10195000613039F0633029F091878087338722879F
:101960000895318720879387828708952F923F9229
:101970004F925F926F927F928F929F92AF92BF929F
:10198000CF92DF92EF92FF920F931F93CF93DF934B
:10199000CDB7DEB76A970FB6F894DEBF0FBECDBFE6
:1019A0009A8F898F7A8369834A01D22E18870F8391
:1019B0003701BC2CDC0159962D913C915A97211589
:1019C000310509F015C118968D919C9119976817EA
:1019D00079070CF0D7C11A968D919C914817590739
:1019E0000CF0D0C14C2C512CB6E0CB9E600D711D7B
:1019F00011247C876B87161617060CF0C3C1EA2DDD
:101A0000F0E0FA87E98793E0EE0FFF1F9A95E1F780
:101A1000F88BEF87CF01840F951F181619060CF06D
:101A2000B1C1A98DBA8D58968C91811104C0BFEABD
:101A3000BD1508F4D394A98DBA8DED91FC91119741
:101A40000284F385E02DCD011995B5E0DB9EC00140
:101A50001124E981FA81FC83EB83312C212C9C0138
:101A600024563E4F388F2F8B4A2D50E05E8B4D8B86
:101A7000EF89F88DE20DF31D44919E828D82D12C69
:101A8000C12C69817A81620D731D7A8B698B842FD9
:101A900090E09C8B8B8BE98DFA8DA081B18140FF0A
:101AA00082C0F1E0BF126FC0AF126DC01C96ED9105
:101AB000FC912F813885A4014C0D5D1D69897A89BF
:101AC000898D9A8D1995EB89FC89F595E7954E2FAF
:101AD0005FEFC51AD50A6D817E818D899E89680F59
:101AE000791F7E836D8398E0C916D10481F6AFEF2C
:101AF0002A1A3A0AEB81FC81E40DF51DFC83EB8385
:101B0000F5E02F16310409F0B3CF2F813885261563
:101B10003705B9F0A98DBA8DED91FC91B1E0BB12FA
:101B200057C0AB1255C069817A816B5F7F4F0088C7
:101B3000F189E02D830128E030E0A401898D9A8DA0
:101B40001995A98DBA8DED91FC9111970688F789A9
:101B5000E02DCD016A960FB6F894DEBF0FBECDBF63
:101B6000DF91CF911F910F91FF90EF90DF90CF9079
:101B7000BF90AF909F908F907F906F905F904F90AD
:101B80003F902F9019941E96ED91FC91EF80F88470
:101B900009851A8592014D815E816B817C81898DD9
:101BA0009A8D199590CF2F8138852615370509F420
:101BB0008ACF31E0B31207C0A31205C01C96ED9185
:101BC000FC91930178CF1E96ED91FC917301E0CFCB
:101BD0006B857C85641975090684F785E02D730192
:101BE0000F8518899201A401898D9A8D1995A9CF25
:101BF000F90134969491329745915491D91AB7E0EE
:101C0000DB9E400D511D1124F901259134913C8B2F
:101C10002B8BFA0125903490FA013296749031960C
:101C20003491398B329664903196449041E04C1552
:101C300018F04A1508F07FC0662D062C000C770BB3
:101C40007C836B83842D042C000C990B9E838D83E5
:101C5000A98DBA8DED91FC9111970284F385E02D49
:101C6000CD011995512CD12CC12CEA2DF0E0FA8729
:101C7000E9872B2D30E03C872B87A401440D511DB3
:101C800047FC5A95588F4F8B69817A81660D711D7B
:101C900067FC7A957E876D877989C71608F051CFE2
:101CA0002C2D30E04D815E81420F531FA985BA85EE
:101CB0004A9FC0014B9F900D5A9F900D1124FC012B
:101CC000E80DF91DF88BEF87852D612C4F89588D14
:101CD000420F531F5E8B4D8B671408F050C0442495
:101CE0004394480E877041F4C1010196EB89FC8949
:101CF000E20DF31DD4901C01D7FE19C0A98DBA8D39
:101D0000ED91FC91662D70E0B1E0BB1219C0AB12F1
:101D100017C02D853E85620F731F0484F585E02D65
:101D20002F8138854D895E89898D9A8D1995DD0CB5
:101D30006394842DD1CF1E821D821C821B8288CF8A
:101D40004B815C81640F751FAB85BC856A9FC001A8
:101D50006B9F900D7A9F900D112469817A81680F95
:101D6000791F0684F785E02DEF80F88409851A85B0
:101D70009D014F855889898D9A8D1995D8CF570C1B
:101D8000C3948ACF6A960FB6F894DEBF0FBECDBF5C
:101D9000DF91CF911F910F91FF90EF90DF90CF9047
:101DA000BF90AF909F908F907F906F905F904F907B
:101DB0003F902F9008958F929F92AF92CF92EF9283
:101DC000FF920F931F93CF93DF93EC01262F898D02
:101DD0009A8D009709F051C06A30D1F41D861C8697
:101DE0008D8948E0849F900111248E859F85820F04
:101DF000931F9F878E8781E090E0DF91CF911F91A5
:101E00000F91FF90EF90CF90AF909F908F9008959B
:101E10006D3089F3CC88AD888F898823C1F08C859B
:101E20009D8536E0C39E800D911D112448855985FE
:101E30004817590764F44E855F851D861C8638E077
:101E4000A39EC0011124840F951F9F878E87EA8867
:101E5000FB88088919894E855F856C857D85CE0153
:101E60000E94B60C2C898C859D8546E0249F800DB0
:101E7000911D11249D878C87BECF6A3069F41D8621
:101E80001C86FC013896E4912D898E859F85E29F02
:101E9000800D911D1124ADCF6D3009F4ACCFFC0144
:101EA00034963491631708F4A6CF3296E491E6177E
:101EB00008F4A1CFFC01329685909490462F431BE5
:101EC000342F47E0349F800C911C1124F40132968A
:101ED00034913196E4913323A9F1EE2399F1CC8822
:101EE000F4013596E491AD884F89442301F10E2E1B
:101EF000000CFF0BE30FF11DCE9EA001CF9E500DF5
:101F000011246C857D85460F571F68857985641778
:101F100075076CF44E855F851D861C86FC0138961E
:101F2000E491AE9E400D511D11245F874E87EA88D3
:101F3000FB88088919894E855F856C857D85CE0172
:101F40000E94B60CF4013496E4912C898C859D8511
:101F5000E29F800D911D11248DCF6F927F928F9201
:101F60009F92AF92BF92CF92DF92EF92FF920F9328
:101F70001F93CF93DF93EC016B015A0139014801A4
:101F8000E881F9810284F385E02D1995E881F981D2
:101F90000288F389E02D87019301A501B601CE01E6
:101FA0001995A501480D591D41505109E881F98144
:101FB0000288F389E02D9301B601CE011995E881DD
:101FC000F9810088F189E02D9401A501B601CE01C7
:101FD0001995C60CD71CB60161507109E881F981C9
:101FE0000088F189E02D9401A501CE011995E881C1
:101FF000F9810688F789E02DCE01DF91CF911F91FD
:102000000F91FF90EF90DF90CF90BF90AF909F9097
:102010008F907F906F9019946F927F928F929F9282
:10202000AF92BF92CF92DF92EF92FF920F931F93E6
:10203000CF93DF935C01EB016A014901380187010D
:10204000DC01ED91FC916217730719F564167506B2
:102050002CF0962D872D3A01C92ED82E96012619DF
:1020600037092F5F3F4F048CF58DE02DA301BE0192
:10207000C5011995DF91CF911F910F91FF90EF90BE
:10208000DF90CF90BF90AF909F908F907F906F9098
:1020900008954615570591F42617370724F0892D22
:1020A0004B01C22FD82F9E01281939092F5F3F4FAE
:1020B000068CF78DE02DA601B401DACF0284F385FA
:1020C000E02D1995D501ED91FC910488F589E02D5D
:1020D00083019401A601BE01C5011995D501ED91B9
:1020E000FC910688F789E02DC501DF91CF911F9102
:1020F0000F91FF90EF90DF90CF90BF90AF909F90A7
:102100008F907F906F901994EF92FF920F931F938F
:10211000DC011A960D911C911B9718962D913C91FC
:102120001997ED91FC9100A0F1A1E02D7B0150E009
:1021300040E070E060E019951F910F91FF90EF90E3
:1021400008954F925F926F927F928F929F92AF927B
:10215000BF92CF92DF92EF92FF920F931F93CF9394
:10216000DF936C012B015A0139014801DC01ED912B
:10217000FC910284F385E02D1995E201640C751C35
:10218000D601ED91FC91C615D7055CF40088F18964
:10219000E02D87019401A501BE01C6011995219684
:1021A000EFCF0688F789E02DC601DF91CF911F910F
:1021B0000F91FF90EF90DF90CF90BF90AF909F90E6
:1021C0008F907F906F905F904F9019948F929F9215
:1021D000AF92BF92CF92DF92EF92FF920F931F9335
:1021E000CF93DF93EC015B014A016901E881F9813A
:1021F0000284F385E02D199595012C0D3D1D21508C
:102200003109E881F9810488F589E02D780184019C
:10221000A401B501CE011995E881F9810688F789F5
:10222000E02DCE01DF91CF911F910F91FF90EF90A4
:10223000DF90CF90BF90AF909F908F9019948F9226
:102240009F92AF92BF92CF92DF92EF92FF920F9345
:102250001F93CF93DF93EC015B014A016901780181
:10226000E881F9810284F385E02D1995C80CD91C09
:10227000860101501109E881F9810488F589E02D72
:102280009501A401B501CE011995E881F98106886F
:10229000F789E02DCE01DF91CF911F910F91FF9033
:1022A000EF90DF90CF90BF90AF909F908F90199458
:1022B000EF92FF920F931F93DC01ED91FC9100A030
:1022C000F1A1E02D19951F910F91FF90EF900895C6
:1022D0000F931F93DC01ED91FC91068CF78DE02D9F
:1022E00019951F910F9108950F931F93DC01ED91A4
:1022F000FC91048CF58DE02D19951F910F91089597
:10230000DC01ED91FC910084F185E02D19942F9270
:102310003F924F925F926F927F928F929F92AF9275
:10232000BF92CF92DF92EF92FF920F931F93CF93C2
:10233000DF9300D000D0CDB7DEB73C016A013E8309
:102340002D83FC82EB825801A41AB50AB7FE03C0A4
:10235000B194A194B1088D809E80861A970A97FE49
:1023600003C09194819491088A149B045CF0902F8F
:10237000812F0D811E819D838E839C2D8D2D6B0160
:10238000692F782F0C151D055CF09D818E817E8351
:102390006D83692F782F902F812F8601C92ED82E1B
:1023A0001601201A310A2B012D813E81421A530A4F
:1023B00057FE03C0519441945108710137FE03C088
:1023C0003FEFE31AF30AF594E7948D819E81861717
:1023D00097075CF5A1E0B0E0BA83A983C016D106E7
:1023E0004CF1D301ED91FC910484F585E02D2B8116
:1023F0003C81A8016D817E818A149B041CF04D8173
:102400005E81B801C3011995E418F508F7FE0AC00A
:102410002D813E8189819A81280F391F3E832D832A
:10242000E20CF31C0F5F1F4FD9CF2FEF3FEF3A8322
:102430002983D4CF26960FB6F894DEBF0FBECDBF4A
:10244000DF91CF911F910F91FF90EF90DF90CF9090
:10245000BF90AF909F908F907F906F905F904F90C4
:102460003F902F900895089590E080E008950E9495
:102470003318FB0101900020E9F73197AF01461BAB
:10248000570BDC01ED91FC910280F381E02D199452
:10249000CF92DF92EF92FF920F931F93CF93DF9330
:1024A000EC016A017B01C114D104E104F10431F4AF
:1024B000C12C42E1D42E4AE7E42EF12C8FA987FDEE
:1024C00007C061E00E94C90461E08FA90E943D0439
:1024D00061E088AD0E94C90461E088AD0E943D04BE
:1024E0008DA98111A3C040E052E16AE770E0C416F3
:1024F000D506E606F70640F4769567955795479515
:102500008F5F8630A1F787E0982F906A969599A300
:10251000809581708AA31BA21CA21DA21EA21FB7B8
:10252000F89480911303811127C0E0E0F8E08491D2
:10253000E0EAF7E09491E82FF0E0EE0FFF1FE55F8F
:10254000F84FA591B491EC91E92321F461E085E382
:102550000E943D0461E085E30E94C9048CB580615E
:102560008CBD8CB580648CBD61E084E30E94C9049D
:1025700061E083E30E94C904809113038F5F80931D
:1025800013031FBF8EA987FD21C061E00E94C9040B
:1025900061E08EA90E943D0464E670E080E090E076
:1025A0000E941F0560E08EA90E943D0464E670E071
:1025B00080E090E00E941F0561E08EA90E943D042A
:1025C00068EC70E080E090E00E941F058EA987FF14
:1025D0000DC020E050E040E061E0CE010E94A30B7E
:1025E00066E970E080E090E00E941F050CE916E0CB
:1025F000C8010196F8016491662309F463C00E5F77
:102600001F4FFC01F490EF2CE894E7F82E2DA80161
:10261000CE010E94A30B0E0D111DF7FEE9CF66E956
:1026200070E080E090E00E941F05E2CF0BEC17E025
:10263000F12C8130B9F461E08AA50E94C90460E000
:102640008AA50E943D0461E08CA50E94C90460E057
:102650008CA50E943D048BA587FD94CF60E00E946D
:10266000C90490CFF8018491E82FF0E0EE0FFF1F2E
:10267000EF54F84F859194912F8D38A12817390781
:1026800041F461E08F2D0E94C90460E08F2D0E940B
:102690003D04F3940F5F1F4FF6E4FF12E3CF61E0B8
:1026A0008EA50E94C90461E08EA50E943D048FA5FD
:1026B00087FD68CF61E00E94C90461E08FA50E9498
:1026C0003D0460CF80EF90E09987888780E491E0B7
:1026D0009B878A87DF91CF911F910F91FF90EF9099
:1026E000DF90CF9008951F93CF93DF9385ED809374
:1026F000BC008091A5029091A602A091A702B09182
:10270000A8020796A11DB11D23E0B695A795979540
:1027100087952A95D1F72091BC0024FD03C0109223
:10272000ED0252C04091A5025091A6026091A7020D
:102730007091A802452B462B472B69F30097A10502
:10274000B10541F02AE22A95F1F700C00197A109ED
:10275000B109E1CF8091A402C1E0C093A302882314
:1027600099F1D091B8001091BA008091BC008A7B99
:102770008093BC0060E084E10E943D0460E085E15C
:102780000E943D041092ED02C093EF021092EE02FF
:1027900061E084E10E943D0461E085E10E943D0426
:1027A0008091B9008E7F8093B9008091B9008D7FB0
:1027B0008093B90088E48093B80085E48093BC00DE
:1027C0001093BA00D093B800DF91CF911F91089574
:1027D0001F920F920FB60F9211242F933F938F9356
:1027E0009F93AF93BF938091170390911803A0918B
:1027F0001903B0911A033091160323E0230F2D37EC
:1028000058F50196A11DB11D20931603809317035F
:1028100090931803A0931903B0931A0380911B039C
:1028200090911C03A0911D03B0911E030196A11D60
:10283000B11D80931B0390931C03A0931D03B093C1
:102840001E03BF91AF919F918F913F912F910F9058
:102850000FBE0F901F90189526E8230F0296A11D1A
:10286000B11DD2CF1F920F920FB60F9211240BB64B
:102870000F922F933F934F935F936F937F938F9319
:102880009F93AF93BF93EF93FF938FE193E00E94E9
:10289000C505FF91EF91BF91AF919F918F917F916E
:1028A0006F915F914F913F912F910F900BBE0F90C1
:1028B0000FBE0F901F9018951F920F920FB60F9298
:1028C00011240BB60F922F938F939F93EF93FF9347
:1028D000E0912F03F09130038081E0913503F09176
:1028E000360382FD1DC09081809138038F5F8F7306
:1028F00020913903821741F0E0913803F0E0E15E66
:10290000FC4F958F80933803FF91EF919F918F91AA
:102910002F910F900BBE0F900FBE0F901F90189528
:102920008081F2CF1F920F920FB60F9211240BB637
:102930000F922F933F934F935F936F937F938F9358
:102940009F93AF93BF93EF93FF938091B900887FDC
:10295000803609F44DC008F040C0883209F4A7C0A1
:1029600028F5803109F49BC0C8F4882309F4F7C026
:10297000883009F494C0FF91EF91BF91AF919F917E
:102980008F917F916F915F914F913F912F910F9018
:102990000BBE0F900FBE0F901F901895883109F451
:1029A00086C0803241F78093EC0214C0803409F471
:1029B0009BC040F48033B9F38833E9F68093EC028E
:1029C00085ECAEC0803509F483C0883509F494C025
:1029D000883489F60E947313CECF883909F48AC0EF
:1029E00038F5883729F050F4883611F0803719F619
:1029F00083E08093ED021092EB0255C0883809F411
:102A000079C0803919F0803809F0B5CF8091EB0298
:102A1000803208F06FC0E091EB0281E08E0F80936E
:102A2000EB028091BB00F0E0E553FD4F80833BC09B
:102A3000803B39F0D0F4803A09F477C0883A09F045
:102A40009ACF84E08093ED021092CA021092C902DC
:102A5000F0E0E0E019958091C90281110FC081E09A
:102A60008093C9021092A90209C0803C09F4A8CF42
:102A7000883C09F4A5CF883B09F07DCFE091CA02DC
:102A800081E08E0F8093CA02F0E0E755FD4F808110
:102A90008093BB009091CA028091C90229C08091A5
:102AA00012038093BB0085EC8093BC0064CF9091AF
:102AB000110380911003981758F5E091110381E0FC
:102AC0008E0F80931103F0E0E051FD4F8081E9CF3C
:102AD000E091110381E08E0F809311038091BB0080
:102AE000F0E0E051FD4F808390911103809110033D
:102AF0009817C8F285E8D8CFE091110381E08E0FD6
:102B0000809311038091BB00F0E0E051FD4F808382
:102B10008091EF0281115ECF81E08093EE0284EA22
:102B20008093BC001092ED0226CF85EC8093BC0010
:102B30001092ED028091EB02803230F4E091EB02D2
:102B4000F0E0E553FD4F10826091EB0270E08BECFA
:102B500092E0F0E0E0E019951092EB020CCF1092B9
:102B6000EC0238CFEFE1F3E01382128288EE93E0BB
:102B7000A0E0B0E084839583A683B7838AE192E0E6
:102B80009183808385EC90E09587848784EC90E046
:102B90009787868780EC90E0918B808B81EC90E02A
:102BA000938B828B82EC90E0958B848B86EC90E00B
:102BB000978B868B118E128E138E148EADEBB3E035
:102BC00013961C921E92129720EF30E015963C93BC
:102BD0002E93149780E491E017969C938E9316970A
:102BE00019963C932E9318971B969C938E931A9745
:102BF00056961C9256971D961C921E921C971F96D5
:102C00001C921E921E9781E055968C935597549670
:102C10008C9354972FEF3FEF53963C932E935297FC
:102C200051963C932E93509757968C93579758965E
:102C30001C9258975A961C921E925997D5961C92A0
:102C4000D59788E0D6968C93D6978AE0D7968C93C2
:102C5000D79789E0D8968C93D897DA961C921E92D3
:102C6000D997DC961C921E92DB97DD961C92DD971D
:102C7000DE961C92DE971092FC031092FD031092D8
:102C8000FE031092FF038CEB93E090969C938E933F
:102C90005F97E4EDF7E0E491F0E0EE0FFF1FEF54F3
:102CA000F84F859194915E969C938E935D97E4E79F
:102CB000F7E08491D3968C93D397E5EDF7E0E49118
:102CC000F0E0EE0FFF1FEF54F84F259134915C9622
:102CD0003C932E935B97E5E7F7E0E491D196EC9374
:102CE000D197E095D296EC93D297E82FE095D496C1
:102CF000EC93D4978CE292E08D939C930895789412
:102D000084B5826084BD84B5816084BD85B58260F0
:102D100085BD85B5816085BD80916E0081608093A1
:102D20006E0010928100809181008260809381000A
:102D3000809181008160809381008091800081601A
:102D4000809380008091B10084608093B100809175
:102D5000B00081608093B000809191008260809388
:102D6000910080919100816080939100809190000A
:102D70008160809390008091A10082608093A10087
:102D80008091A10081608093A1008091A00081606A
:102D90008093A00080912101826080932101809125
:102DA00021018160809321018091200181608093C5
:102DB000200180917A00846080937A0080917A006B
:102DC000826080937A0080917A00816080937A009B
:102DD00080917A00806880937A001092C100E0911F
:102DE0002F03F091300382E08083E0912B03F09178
:102DF0002C031082E0912D03F0912E038FEC808341
:102E000010923703E0913303F091340386E080831E
:102E1000E0913103F0913203808180618083E09101
:102E20003103F0913203808188608083E091310327
:102E3000F0913203808180688083E0913103F091CA
:102E4000320380818F7D808368E572E08FE193E0BB
:102E50000E94391262E772E08FE193E00E9439121A
:102E600040E050E0BA018DEB93E00E94481261E02F
:102E70008DEB93E00E940C0C70E060E08DEB93E032
:102E80000E94841065E772E08FE193E00E9439129E
:102E900062E772E08FE193E00E9439129EE1A92E71
:102EA000B12C28E2C22ED12CCFEFDFEF34E1E32E9C
:102EB000F12C04E610E042E3842E912C5CE8652EB0
:102EC000712C67E0462E512CE0911403F09115030C
:102ED000EE0FFF1FE85FFD4F20803180B1018DEBC9
:102EE00093E00E94841060E273E080E090E00E9432
:102EF0001F0570E060E08DEB93E00E94841083E09A
:102F00008093D1038093D2033092D0032092CF03D9
:102F10003092CE032092CD03B092CA03A092C9038F
:102F2000D092CC03C092CB0361E872E08DEB93E0CA
:102F30000E94391282E08093D1038093D203D09310
:102F4000D003C093CF03D093CE03C093CD03F092B0
:102F5000CA03E092C9031093CC030093CB0367E844
:102F600072E08DEB93E00E94391281E08093D103EF
:102F70008093D2033092D0032092CF033092CE03BD
:102F80002092CD039092CA038092C9037092CC0321
:102F90006092CB0363E972E08DEB93E00E943912FB
:102FA0006CED75E080E090E00E941F0580911403B5
:102FB000909115030196B2010E94E51790931503B5
:102FC000809314030E9454067FCF97FB072E16F4BC
:102FD000009407D077FD09D00E941F1807FC05D088
:102FE0003EF4909581959F4F0895709561957F4F20
:102FF0000895EE0FFF1F881F8BBF0790F691E02DFD
:1030000019940E940918332312F48A1B9B0B0C9409
:103010001A18A29FB001B39FC001A39F700D811D1C
:103020001124911DB29F700D811D1124911D0895D1
:103030000E940918B7FF0895821B930B0895AA1BDD
:10304000BB1B51E107C0AA1FBB1FA617B70710F093
:10305000A61BB70B881F991F5A95A9F780959095C5
:10306000BC01CD01089581E090E0F8940C943818EB
:04307000F894FFCF02
:10307400FFFFFFFFFFFFFFFF00F8E0071F00FF0750
:10308400E0FF1FF8FFFF00000000E70551057E0583
:103094003406AF058D05A10500000000DB0E5105C7
:1030A40034123312F907910B5F0BF60A750AB60A4C
:1030B4008711950C0C0C020C07097809E909841096
:1030C4000C10AD0F48126B073D3D3D205446542073
:1030D40054455354204164616672756974203D3DC2
:1030E4003D000D0A0054465420696E6974204F4B0C
:1030F40000486F6C61210054465420494C493933CF
:1031040034310053696D756C4944452054657374BA
:023114000000B9
:00000001FF
