:100000000C94BC040C94ED040C94ED040C94ED04DD
:100010000C94ED040C94ED040C94ED040C94ED049C
:100020000C94ED040C94ED040C94ED040C94ED048C
:100030000C94ED040C94AB210C94ED040C94ED04A1
:100040000C94ED040C94ED040C94ED040C94ED046C
:100050000C94ED040C94ED040C94ED040C946121CB
:100060000C94ED040C9435220C940B220C94ED04AA
:100070000C94ED040C94ED040C94ED040C94ED043C
:100080000C94ED040C94ED040C94ED040C94ED042C
:100090000C94ED040C94ED040C94ED040C946B2280
:1000A0000C94ED040C94ED040C94ED040C94ED040C
:1000B0000C94ED040C94ED040C94ED040C94ED04FC
:1000C0000C94ED040C94ED040C94ED040C94ED04EC
:1000D0000C94ED040C94ED040C94ED040C94ED04DC
:1000E0000C94ED040C944E050C94E6080C94130546
:1000F0000C9436050C941F050C9440050C947A1C46
:100100000C944D050C9408090C94FA080C94AA164A
:100110000C940D050C9482140C94D7080C942C05A7
:100120000C9417050C94FD150C94A9160C94E00F73
:100130000C9444050C945D0D0C94450F0C94AE0F7B
:100140000C941B050C9440090C94DF0A0C94AA082B
:100150000C9451130C9448050C94FA140C94E4106C
:100160000C94050F0C94A8090C9423140C948B2365
:100170000C943A050C946D0B0C945B100C947B0C56
:100180000C9428050C9451100C9432050C94E90D34
:100190000C94EC0C0C9452050C94220500407A103F
:1001A000F35A00A0724E18090010A5D4E80000E828
:1001B0007648170000E40B54020000CA9A3B000086
:1001C00000E1F505000080969800000040420F0015
:1001D0000000A08601000000102700000000E803D6
:1001E000000000006400000000000A0000000000A1
:1001F0000100000000002C76D888DC674F0823DF60
:10020000C1DFAE59E1B1B796E5E3E453C63AE65132
:10021000997696E8E6C28426EB898C9B62ED407C59
:100220006FFCEFBC9C9F40F2BAA56FA5F490055AF5
:100230002AF75C936B6CF9676DC11BFCE0E40D471A
:10024000FEF520E6B500D0ED902E0300943577053D
:100250000080841E080000204E0A000000C80C33F5
:100260003333330F986E12831141EF8D2114893B84
:10027000E65516CFFEE6DB18D1844B381BF77C1D04
:10028000901DA4BBE424203284725E228100C9F157
:1002900024ECA1E53D2700000000003E5B4F5B3EE3
:1002A0003E6B4F6B3E1C3E7C3E1C183C7E3C181C3B
:1002B000577D571C1C5E7F5E1C00183C1800FFE732
:1002C000C3E7FF0018241800FFE7DBE7FF30483AD8
:1002D000060E2629792926407F050507407F05253A
:1002E0003F5A3CE73C5A7F3E1C1C08081C1C3E7FC2
:1002F00014227F22145F5F005F5F06097F017F0089
:100300006689956A606060606094A2FFA2940804A8
:100310007E040810207E201008082A1C08081C2AC9
:1003200008081E101010100C1E0C1E0C30383E3821
:1003300030060E3E0E06000000000000005F0000C8
:100340000007000700147F147F14242A7F2A122339
:100350001308646236495620500008070300001C49
:100360002241000041221C002A1C7F1C2A08083E52
:100370000808008070300008080808080000606065
:100380000020100804023E5149453E00427F4000D3
:1003900072494949462141494D331814127F1027AB
:1003A000454545393C4A49493141211109073649FA
:1003B000494936464949291E0000140000004034CE
:1003C00000000008142241141414141400412214D3
:1003D0000802015909063E415D594E7C1211127CFA
:1003E0007F494949363E414141227F4141413E7F5B
:1003F000494949417F090909013E414151737F083B
:1004000008087F00417F41002040413F017F0814E0
:1004100022417F404040407F021C027F7F04081041
:100420007F3E4141413E7F090909063E4151215E1F
:100430007F09192946264949493203017F01033FB3
:100440004040403F1F2040201F3F4038403F631442
:1004500008146303047804036159494D43007F4144
:1004600041410204081020004141417F0402010281
:1004700004404040404000030708002054547840A6
:100480007F284444383844444428384444287F383A
:100490005454541800087E090218A4A49C787F08BC
:1004A00004047800447D40002040403D007F102837
:1004B000440000417F40007C047804787C080404F8
:1004C000783844444438FC1824241818242418FC90
:1004D0007C08040408485454542404043F44243C35
:1004E0004040207C1C2040201C3C4030403C4428A4
:1004F0001028444C9090907C4464544C440008363E
:1005000041000000770000004136080002010204AB
:10051000023C2623263C1EA1A161123A4040207ACB
:100520003854545559215555794122545478422113
:100530005554784020545579400C1E52721239554A
:100540005555593954545459395554545800004547
:100550007C410002457D420001457C407D12111224
:100560007DF0282528F07C545545002054547C54B7
:100570007C0A097F4932494949323A4444443A3273
:100580004A4848303A4141217A3A42402078009D19
:10059000A0A07D3D4242423D3D4040403D3C24FFC5
:1005A0002424487E4943662B2FFC2F2BFF0929F674
:1005B00020C0887E090320545479410000447D41C5
:1005C0003048484A32384040227A007A0A0A727D1E
:1005D0000D19317D2629292F282629292926304839
:1005E0004D4020380808080808080808382F10C8A7
:1005F000ACBA2F102834FA00007B000008142A142B
:100600002222142A14085500550055AA55AA55AAA5
:10061000FF55FF55FF000000FF00101010FF0014F1
:100620001414FF001010FF00FF1010F010F014144D
:1006300014FC001414F700FF0000FF00FF1414F472
:1006400004FC141417101F10101F101F1414141F73
:1006500000101010F0000000001F101010101F10EC
:10066000101010F010000000FF10101010101010EB
:100670001010FF10000000FF140000FF00FF00003A
:100680001F10170000FC04F414141710171414F4AE
:1006900004F40000FF00F714141414141414F700E9
:1006A000F7141414171410101F101F141414F4143A
:1006B0001010F010F000001F101F0000001F1400A9
:1006C0000000FC140000F010F01010FF10FF1414D4
:1006D00014FF141010101F00000000F010FFFFFFA7
:1006E000FFFFF0F0F0F0F0FFFFFF0000000000FF60
:1006F000FF0F0F0F0F0F3844443844FC4A4A4A3466
:100700007E02020606027E027E026355494163387C
:1007100044443C04407E201E2006027E020299A52D
:10072000E7A5991C2A492A1C4C7201724C304A4D8B
:100730004D303048784830BC625A463D3E494949C0
:10074000007E0101017E2A2A2A2A2A44445F444469
:1007500040514A444040444A51400000FF0103E0F8
:1007600080FF000008086B6B083612362436060F2F
:10077000090F06000018180000001010003040FF9C
:100780000101001F01011E00191D1712003C3C3C15
:100790003C0000000000EF03038002CF0300C130E3
:1007A000ED0464031281E803850078CB05392C0041
:1007B0003402F70120EA020000C00123C10110C584
:1007C000023E28C701863601483701003A0155B17B
:1007D000020018B603088227F20100260101E00F8B
:1007E0000F312B0C0E084EF1370710030E0900E1F4
:1007F0000F000E1403110731C148080F0C31360FDA
:1008000011802980003D3D3D205265667269676513
:100810007261646F72614D6F6465726E61205446DF
:10082000542076342E30203D3D3D002054696D65C6
:10083000723D0020436F6D703D002520507565723C
:1008400074613D0020483D002053503D005D205420
:100850003D005B0000002100240027002A002D003D
:100860003000330001010000040107010A0100000B
:1008700020002300260029002C002F003200000158
:10088000000003010601090100000A0B02090C0D1A
:100890000E08070304010000000000000000000033
:1008A0000000000000000000000000000000000048
:1008B0000000000012111000000000000000000005
:1008C0000000000000000000000000000000020125
:1008D0000210202008081020401020408002010251
:1008E0000108040201010204081020408080402019
:1008F0001008040201800402018040201008040254
:1009000001080402010102040810204080010204D1
:10091000081020408000002200250028002B002E17
:10092000003100340002010000050108010B01053F
:10093000050505070508080808020202020A0A0858
:10094000080404040401010101010101010303037E
:100950000303030303040707070C0C0C0C0C0C0C1B
:100960000C0202020206060606060606060B0B0B22
:100970000B0B0B0B0B008B2311241FBECFEFD1E20F
:10098000DEBFCDBF00E00CBF14E0A0E0B2E0ECE1C0
:10099000F6E600E00BBF02C007900D92AC3AB1073B
:1009A000D9F726E0ACEAB4E001C01D92AE35B2073B
:1009B000E1F714E0CCEBD4E000E006C02197010998
:1009C000802FFE010E941A30CB3BD10780E0080740
:1009D000A9F70E9458240C940C330C940000815009
:1009E000823108F05AC0E82FF0E08827E550FB4F2D
:1009F0008F4F0C941A301B051F050D0513051705A5
:100A00004D05220528052C05320536053A05400519
:100A100044054D0548054E055205809180008F77AD
:100A2000809380000895809180008F7DF9CF809120
:100A30008000877FF5CF84B58F7784BD089584B516
:100A40008F7DFBCF8091B0008F778093B0000895A9
:100A50008091B0008F7DF9CF809190008F77809347
:100A600090000895809190008F7DF9CF8091900043
:100A7000877FF5CF8091A0008F778093A0000895A5
:100A80008091A0008F7DF9CF8091A000877FF5CF66
:100A9000809120018F77809320010895809120011B
:100AA0008F7DF9CF80912001877FF5CFCF93DF93A2
:100AB000282F30E0F901E857F74F8491F901E1530D
:100AC000F74FD491F901E15DF64FC491CC23A1F029
:100AD00081110E94EF04EC2FF0E0EE0FFF1FE259AE
:100AE000F74FA591B491EC91ED2381E090E009F4EA
:100AF00080E0DF91CF91089580E090E0FACF1F93DE
:100B0000CF93DF93282F30E0F901E857F74F849116
:100B1000F901E153F74FD491F901E15DF64FC4912A
:100B2000CC23A9F0162F81110E94EF04EC2FF0E0E6
:100B3000EE0FFF1FEB5EF64FA591B4918FB7F894BF
:100B4000EC91111108C0D095DE23DC938FBFDF91AB
:100B5000CF911F910895DE2BF8CFCF93DF9390E0D4
:100B6000FC01E153F74F2491815D964FFC01849184
:100B70008823C9F090E0880F991FFC01EC5AF74FC9
:100B8000A591B491FC01EB5EF64FC591D491611132
:100B90000DC09FB7F8948C91209582238C93888107
:100BA000282328839FBFDF91CF910895623051F4AD
:100BB0009FB7F8943C91822F809583238C93E88192
:100BC0002E2BEFCF8FB7F894EC912E2B2C938FBF59
:100BD000EACF4F925F926F927F928F929F92AF92E5
:100BE000BF92CF92DF92EF92FF920F931F93CF931A
:100BF0008C014A015B01809113028F3199F08F3F84
:100C000009F453C0CF911F910F91FF90EF90DF90A7
:100C1000CF90BF90AF909F908F907F906F905F909C
:100C20004F900895EEECF8E0C491C7FDEBCF61E082
:100C30008FE10E94AD052801712C612CCC23F1F0CD
:100C4000980150E040E0C23009F003C128013A01A8
:100C500060E970ED83E090E00E94542D69017A0113
:100C600081E0C81AD108E108F10893E08FEFC816B7
:100C7000D104E104F10409F00CF49FC168E478EEBA
:100C800081E090E0A30192010E94542D69017A0154
:100C900081E0C81AD108E108F10894E0C1118DC1C2
:100CA00085B5887F836085BDE9C08FE1809313029D
:100CB000EEECF8E0C4918C2FCF3F09F4A3CFC23003
:100CC00009F468C060F4CC2379F1C13009F444C060
:100CD00087FD98CF61E08FE10E94AD05B1CFC430B0
:100CE00009F499C008F478C0C53091F7109220013A
:100CF00010922101809121018860809321018091CF
:100D00002101816080932101EEE4F9E0E491F0E0BB
:100D1000EE0FFF1FEB5EF64F85919491EEEEF8E03B
:100D2000E491E0935D0583CF14BC15BC84B582606B
:100D300084BD85B5816085BDEEE4F9E0E491F0E025
:100D4000EE0FFF1FEB5EF64F85919491EEEEF8E00B
:100D5000E491E09364056BCF1092800010928100C3
:100D60008091810088608093810080918100816002
:100D700080938100EEE4F9E0E491F0E0EE0FFF1FD4
:100D8000EB5EF64F85919491EEEEF8E0E491E093FE
:100D900063054DCF1092B0001092B1008091B00069
:100DA00082608093B0008091B10081608093B10037
:100DB000EEE4F9E0E491F0E0EE0FFF1FEB5EF64F9A
:100DC000859194919093620580936105EEEEF8E031
:100DD000E491E09360052BCF109290001092910067
:100DE0008091910088608093910080919100816052
:100DF00080939100EEE4F9E0E491F0E0EE0FFF1F44
:100E0000EB5EF64F85919491EEEEF8E0E491E0937D
:100E10005F05C3E00CCF1092A0001092A10080915A
:100E2000A10088608093A1008091A10081608093DF
:100E3000A100EEE4F9E0E491F0E0EE0FFF1FEB5EBD
:100E4000F64F85919491EEEEF8E0E491E0935E0523
:100E5000EECE60E072E18AE790E00E94542D6901D5
:100E60007A0181E0C81AD108E108F108C13079F5AA
:100E700080918100887F816080938100D801AA0FD2
:100E8000BB1FA50194010E94732D28EE33E040E0C2
:100E900050E00E947E2DC23009F443C00CF075C0B2
:100EA000CC2381F1C13009F0ADCED0928900C0923F
:100EB000880020937505309376054093770550930D
:100EC000780580916F00826080936F009BCEC33065
:100ED00039F480919100887F816080939100CECF1A
:100EE000C43039F48091A100887F81608093A10093
:100EF000C5CFC53019F680912101887F816080932C
:100F00002101BCCFC7BC2093790530937A0540936B
:100F10007B0550937C0580916E00826080936E000B
:100F200071CEC092B3002093710530937205409347
:100F300073055093740580917000826080937000F7
:100F400061CED0929900C092980020936D053093A5
:100F50006E0540936F05509370058091710082601B
:100F6000809371004FCED092A900C092A800209328
:100F7000690530936A0540936B0550936C05809129
:100F800072008260809372003DCEC43061F3CCF277
:100F9000C53009F037CED0922901C09228012093A4
:100FA0006505309366054093670550936805809109
:100FB000730082608093730025CE8091B100887F9A
:100FC000892B8093B1005ACF90917B00977F9093AB
:100FD0007B008653806480937C0080917A008064DB
:100FE00080937A0080917A0086FDFCCF8091780012
:100FF0009091790008953FB7F894809159059091A8
:101000005A05A0915B05B0915C0526B5A89B05C06B
:101010002F3F19F00196A11DB11D3FBFBA2FA92F77
:10102000982F8827BC01CD01620F711D811D911D74
:1010300042E0660F771F881F991F4A95D1F70895E0
:101040008F929F92AF92BF92CF92DF92EF92FF92D8
:101050004B015C010E94FB076B017C010E94FB07B6
:101060006C197D098E099F09683E734081059105C1
:10107000A8F321E0821A9108A108B10888EEC80EF1
:1010800083E0D81EE11CF11C81149104A104B10479
:1010900029F7FF90EF90DF90CF90BF90AF909F9097
:1010A0008F9008952FB7F89460915505709156056B
:1010B00080915705909158052FBF08959091130284
:1010C00089130DC0EEECF8E0E4919FEF90931302CA
:1010D000E230E1F038F4EE2381F0E13089F060E0B5
:1010E0000C947F05E43049F110F1E530C1F790919F
:1010F00073009D7F90937300F2CF10926E00EFCF3C
:1011000090916F009D7F90936F00E9CF9091700058
:101110009D7F9093700091E09093B0009091B1000A
:10112000987F94609093B1001092B300D8CF9091C3
:1011300071009D7F90937100D2CF909172009D7F3E
:1011400090937200CCCFDC01ED91FC910190F08185
:10115000E02D1994AF92BF92CF92DF92EF92FF925F
:101160000F931F93CF93DF936C017B018B01040FCF
:10117000151FEB015E01AE18BF08C017D10759F06B
:101180006991D601ED91FC910190F081E02DC601AD
:101190001995892B79F7C501DF91CF911F910F9197
:1011A000FF90EF90DF90CF90BF90AF900895FC013B
:1011B000538D448D252F30E0842F90E0821B930BBC
:1011C000541710F0CF96089501970895FC01918D62
:1011D000828D981761F0A28DAE0FBF2FB11D5D9665
:1011E0008C91928D9F5F9F73928F90E008958FEF07
:1011F0009FEF0895FC01918D828D981731F0828DBB
:10120000E80FF11D858D90E008958FEF9FEF089511
:10121000FC01918D228D892F90E0805C9F4F821B75
:1012200091098F73992708958DE795E00E94080929
:1012300021E0892B09F420E0822F0895FC01A48D80
:10124000A80FB92FB11DA35ABF4F2C91848D90E0E8
:1012500001968F739927848FA689B7892C93A089CB
:10126000B1898C91837080648C93938D848D981355
:1012700006C00288F389E02D80818F7D80830895E8
:10128000EF92FF920F931F93CF93DF93EC0181E0D6
:10129000888F9B8D8C8D98131AC0E889F98980817D
:1012A00085FF15C09FB7F894EE89FF896083E889B0
:1012B000F98980818370806480839FBF81E090E0A2
:1012C000DF91CF911F910F91FF90EF900895F62E2F
:1012D0000B8D10E00F5F1F4F0F731127E02E8C8DC9
:1012E0008E110CC00FB607FCFACFE889F98980810E
:1012F00085FFF5CFCE010E941E09F1CFEB8DEC0FDB
:10130000FD2FF11DE35AFF4FF0829FB7F8940B8F2A
:10131000EA89FB8980818062CFCF0F931F93CF939F
:10132000DF938C01D0E0C0E0F801EC0FFD1F649169
:10133000662341F08DE795E00E944009892B11F06A
:101340002196F2CFCE01DF91CF911F910F91089599
:10135000CF93DF93EC01888D8823B9F0AA89BB89EC
:10136000E889F9898C9185FD03C0808186FD0DC0D7
:101370000FB607FCF7CF8C9185FFF2CF808185FFF8
:10138000EDCFCE010E941E09E9CFDF91CF910895E4
:1013900080E090E0892B29F00E94140981110E94BD
:1013A000000080E090E0892B49F080E090E0892BFC
:1013B00029F00E94000081110E94000080E090E06E
:1013C000892B49F080E090E0892B29F00E940000F1
:1013D00081110E94000080E090E0892B49F080E0BC
:1013E00090E0892B29F00E94000081110C940000EC
:1013F00008952091E304260F3327331F213231054E
:10140000ECF420910705FC0190E080E0243069F0C5
:1014100082E00895A091E3042191AC014D535B4F0C
:10142000A40FB52FB11D2C930196861798F38091C8
:10143000E304680F6093E30480E0089581E0089579
:1014400008958FEF9FEF08958FEF9FEF089580919C
:10145000BC0490E09195819591090895CF93DF9315
:10146000CB01EA01642F0E94F909CE01DF91CF91EF
:101470000895CF93DF931F92CDB7DEB7698361E004
:10148000CE0101960E94F90981E090E00F90DF9172
:10149000CF910895FC01A5A1B6A18C9192A58923B5
:1014A0008C93A5A1B6A18C9191A5892B8C930895BD
:1014B0000F931F93CF93DF93EC018B018DA98111C3
:1014C0000DC01EBD0DB407FEFDCF0EBD0DB407FE51
:1014D000FDCFDF91CF911F910F9108958130E9F4F5
:1014E00080E1E9A1FAA1908117FF14C02DA1922BF0
:1014F0009083EBA1FCA190812FA1922B9083EBA173
:10150000FCA1908128A592239083000F111F815088
:1015100041F7DFCF2EA19223EBCFEF8DF8A11083FF
:10152000CE010E944A0AEF8DF8A10083CE01DF911F
:10153000CF911F910F910C944A0AFC0185A981114A
:1015400005C06EBD0DB407FEFDCF08958130E1F4F6
:1015500088E0A1A1B2A19C9167FF13C025A1922BA5
:101560009C93A3A1B4A19C9127A1922B9C93660F5D
:10157000A3A1B4A19C9120A592239C93815049F7EB
:10158000089526A19223ECCFA78DB0A16C93CF0133
:101590000C944A0ACF93DF93EC01ED8DFE8D808190
:1015A0009CA989238083CE010E949D0AED8DFE8D2A
:1015B00080819BA9892B8083DF91CF910895AF9281
:1015C000BF92CF92DF92EF92FF920F931F93CF9330
:1015D000DF93EC015B016A01215031097901E60ECC
:1015E000F71E01501109040F151F809106029091FA
:1015F00007028617970739F480910402909105023B
:101600008E159F05A1F06AE2CE010E94CA0AB501BB
:10161000CE010E94580AB701CE010E94580AB0922A
:101620000702A0920602F0920502E0920402809165
:101630000202909103028C159D0539F480910002FD
:101640009091010280179107A1F06BE2CE010E94F8
:10165000CA0AB601CE010E94580AB801CE010E9402
:10166000580AD0920302C092020210930102009322
:1016700000026CE2CE01DF91CF911F910F91FF909C
:10168000EF90DF90CF90BF90AF900C94CA0AFC010E
:1016900085A9811104C091A182A19CBD8DBD089531
:1016A0001F93CF93DF93EC01162FE881F981028419
:1016B000F385E02D1995112371F06DADCE010E94D7
:1016C000CA0AE881F9810688F789E02DCE01DF9109
:1016D000CF911F9119946EADF1CFAF92BF92CF927F
:1016E000DF92EF92FF920F931F93CF93DF93EC0162
:1016F00077FD38C088859985681779079CF557FD6F
:1017000031C08A859B854817590764F569017A01BC
:101710005B01E881F9810284F385E02DCE01199502
:10172000E881F98102A4F3A5E02D01E010E021E0B9
:1017300030E0A701B501CE011995B601CE010E9496
:10174000580AE881F9810688F789E02DCE01DF91FA
:10175000CF911F910F91FF90EF90DF90CF90BF90AE
:10176000AF901994DF91CF911F910F91FF90EF905F
:10177000DF90CF90BF90AF9008958F929F92AF92DD
:10178000BF92CF92DF92EF92FF920F931F93CF936E
:10179000DF93EC0149015701E881F98102A4F3A527
:1017A000E02D19959401D8010E9422306B017C0133
:1017B000C114D104E104F10409F490C08DA9811190
:1017C00015C081E0C81AD108E108F1088FEFC816EA
:1017D000D806E806F80609F481C0BEBC0DB407FEC1
:1017E000FDCFAEBC0DB407FEFDCFEBCF813009F0CD
:1017F00045C081E0C81AD108E108F1088FEFC8168A
:10180000D806E806F80609F469C09B2D88E0E9A12E
:10181000FAA1208197FF2CC03DA1232B2083EBA1AF
:10182000FCA120813FA1232B2083EBA1FCA12081DF
:1018300038A523232083990F815049F79A2D88E0FA
:10184000E9A1FAA1208197FF16C03DA1232B208397
:10185000EBA1FCA120813FA1232B2083EBA1FCA1C4
:10186000208138A523232083990F815049F7C1CFC8
:101870003EA12323D3CF3EA12323E9CFBA1016C024
:10188000CC0CDD1CEE1CFF1CEF8DF8A1B08281E0BA
:10189000C81AD108E108F1088FEFC816D806E80683
:1018A000F806E1F0CE010E944A0AF1CF81E0C81AA1
:1018B000D108E108F1088FEFC816D806E806F80647
:1018C00069F0EF8DF8A1B082CE010E944A0AEF8D37
:1018D000F8A1A082CE010E944A0AE8CFDF91CF9101
:1018E0001F910F91FF90EF90DF90CF90BF90AF903E
:1018F0009F908F9008958F929F92AF92BF92CF92B8
:10190000DF92EF92FF920F931F93CF93DF935C01CF
:101910004B016A01E90177FD52C0DC0118968D91F7
:101920009C91681779070CF04AC0209709F447C0CA
:1019300037FF07C0C9010196C80ED91ED195C195C0
:10194000D109F50182859385C816D906C4F5A6018B
:101950004C0F5D1F9A012150310937FD30C0D7FE71
:1019600003C0EA01D12CC12C281739071CF0EC0167
:10197000CC19DD09D501ED91FC910284F385E02DB0
:10198000C501199578018E0121E030E0A601B4016E
:10199000C5010E94BD0BD501ED91FC910688F78928
:1019A000E02DC501DF91CF911F910F91FF90EF9036
:1019B000DF90CF90BF90AF909F908F901994DF9160
:1019C000CF911F910F91FF90EF90DF90CF90BF903C
:1019D000AF909F908F9008958F929F92AF92BF92F9
:1019E000CF92DF92EF92FF920F931F93CF93DF93EB
:1019F0005C016B014A01E90157FD52C0DC011A96F6
:101A00008D919C91481759070CF04AC0209709F412
:101A100047C037FF07C0C9010196C80ED91ED1952E
:101A2000C195D109F50180859185C816D906C4F5FF
:101A3000A6014C0F5D1F9A012150310937FD30C0BE
:101A4000D7FE03C0EA01D12CC12C281739071CF09E
:101A5000EC01CC19DD09D501ED91FC910284F385EF
:101A6000E02DC5011995780101E010E09E01A40167
:101A7000B601C5010E94BD0BD501ED91FC91068810
:101A8000F789E02DC501DF91CF911F910F91FF9054
:101A9000EF90DF90CF90BF90AF909F908F90199470
:101AA000DF91CF911F910F91FF90EF90DF90CF903A
:101AB000BF90AF909F908F9008958F929F92AF921A
:101AC000BF92CF92DF92EF92FF920F931F93CF932B
:101AD000DF934C016B015A01E901209709F46CC0B6
:101AE0000115110509F468C037FF07C0C901019647
:101AF000C80ED91ED195C195D109F401A085B18533
:101B0000CA16DB060CF058C017FF07C0C8010196C3
:101B1000A80EB91E119501951109F40182859385CE
:101B2000A816B9060CF048C0F601EC0FFD1FAF0176
:101B30004150510957FD40C0B501600F711F9B0115
:101B40002150310937FD38C0D7FE03C0EF01D12C39
:101B5000C12CB7FE03C08B01B12CA12C4A175B0727
:101B60001CF0ED01CC19DD09281739071CF08C0198
:101B70000A191B09D401ED91FC910284F385E02D33
:101B8000C40119959E01A501B601C4010E94BD0BB7
:101B9000D401ED91FC910688F789E02DC401DF9115
:101BA000CF911F910F91FF90EF90DF90CF90BF905A
:101BB000AF909F908F901994DF91CF911F910F91CB
:101BC000FF90EF90DF90CF90BF90AF909F908F905D
:101BD0000895EF92FF920F931F93CF93DF9377FDBA
:101BE00032C0DC011896ED91FC916E177F075CF511
:101BF0002115310541F137FF07C0F90131964E0F2C
:101C00005F1F319521953109DC011A96ED91FC9108
:101C10004E175F07C4F4EA01C20FD31FDE0111970C
:101C2000B7FD11C057FF03C09E0150E040E0AE1762
:101C3000BF071CF09F01241B350B7801890121E0AF
:101C400030E00E94BD0BDF91CF911F910F91FF906B
:101C5000EF9008952F923F924F925F926F927F92F2
:101C60008F929F92AF92BF92CF92DF92EF92FF92AC
:101C70000F931F93CF93DF93CDB7DEB72C970FB69B
:101C8000F894DEBF0FBECDBF3C017C836B835C87C5
:101C90004B871801270181E090E05C01A41AB50A86
:101CA000CA01919581959109AC01440F551F5A8342
:101CB0004983C80101969E838D83F12CE12C8824F1
:101CC0008394912C922F91709F8322702887AB016F
:101CD0004F5F5F4F5A8749878B859C85E816F906C9
:101CE0000CF07AC0CB84DC84B7FC0CC06C0191E0B2
:101CF000C91AD10849815A814E5F5F4F5A8349837F
:101D0000A40EB51E5FEFE51AF50A82E0880E911C5D
:101D1000A80CB91CCE14DF0464F19F81992399F0BB
:101D20009601220F331F4D815E81240F351F8201E2
:101D30004B815C814C195D09B701660D771D8BE104
:101D400096E00E94E90D5885552399F09601220FDF
:101D5000331F8D819E81280F391F82014B815C8149
:101D60004C195D09B3016E197F098BE196E00E9461
:101D7000E90D4B855C854C155D0559F15F81552357
:101D800091F0940122503109220D331D82014985C1
:101D90005A854E195F096B857C85660D771D8BE131
:101DA00096E00E94E90D8885882399F094012250DD
:101DB0003109220D331DB3014B855C85641B750B06
:101DC000820149855A854E195F098BE196E00E9490
:101DD000E90DDC86CB8680CF2C960FB6F894DEBF5B
:101DE0000FBECDBFDF91CF911F910F91FF90EF906C
:101DF000DF90CF90BF90AF909F908F907F906F902B
:101E00005F904F903F902F900895EF92FF920F9325
:101E10001F93CF93DF9357FD31C0DC011A96ED91EC
:101E2000FC914E175F0754F52115310539F137FF45
:101E300007C0F90131966E0F7F1F31952195310949
:101E4000DC011896ED91FC916E177F07BCF4EB0155
:101E5000C20FD31FDE011197B7FD10C077FF03C07B
:101E60009E0170E060E0AE17BF071CF09F01261BCB
:101E7000370B780101E010E00E94BD0BDF91CF919C
:101E80001F910F91FF90EF9008958F929F92AF92C4
:101E9000BF92CF92DF92EF92FF920F931F93CF9357
:101EA000DF9347012115310509F44BC001151105D8
:101EB00009F447C037FF07C0F90131966E0F7F1F45
:101EC000319521953109DC011896AD90BC906A15C9
:101ED0007B05BCF517FF07C0F80131964E0F5F1F59
:101EE000119501951109DC011A96ED91FC914E179F
:101EF0005F073CF56B01C20ED31EE6012197D7FDAB
:101F000020C07A01E00EF11ED7011197B7FD19C06C
:101F100077FF03C0960170E060E057FF03C08701C0
:101F200050E040E0CA15DB051CF09501261B370B7D
:101F3000AE17BF071CF08F01041B150B74010E9424
:101F4000BD0BDF91CF911F910F91FF90EF90DF902C
:101F5000CF90BF90AF909F908F900895EF92FF9297
:101F60000F931F93CF93DF93EC0177FD22C08885F9
:101F7000998568177907ECF457FD1BC08A859B8506
:101F800048175907B4F47901E881F98102A4F3A54F
:101F9000E02D01E010E021E030E0CE011995B7011D
:101FA000CE01DF91CF911F910F91FF90EF900C9494
:101FB000580ADF91CF911F910F91FF90EF900895F4
:101FC000CF93DF93EC010E94470B8FA987FD06C0DA
:101FD000EB8DFC8D80819AA989238083DF91CF913D
:101FE00008950895AF92BF92CF92DF92EF92FF9241
:101FF0000F931F93CF93DF93EC01E62E8A01A22E5D
:102000000E94470B8FA987FD06C0EB8DFC8D808158
:102010009AA989238083ED8DFE8D80819CA98923D7
:1020200080836E2DCE010E949D0AED8DFE8D8081F4
:102030009BA9892B8083D12CC12CB12CCA14DB0421
:10204000E4F48DA97801823079F488A9882361F0BD
:10205000F801619171917F01CE010E94580AFFEF52
:10206000CF1ADF0A8701EACFFFEFEF1AFF0AF80164
:102070006491CE010E949D0AF2CF8FA987FD06C010
:10208000EB8DFC8D808199A9892B8083DF91CF9185
:102090001F910F91FF90EF90DF90CF90BF90AF9086
:1020A0000895611106C060E220E050E040E00C9429
:1020B000F20F61E2F9CF0F931F93CF93DF931F923B
:1020C000CDB7DEB78C016370DC0156966C935697E2
:1020D000623009F468C0633009F46AC0613009F401
:1020E00056C088E4898380EF90E019969C938E9384
:1020F000189780E491E01B969C938E931A97C801E1
:102100000E94470BD801D7968C91D79787FD09C0BD
:102110005B96ED91FC915C978081D2969C9189238E
:102120008083D8015D96ED91FC915E978081D49675
:102130009C918923808366E3C8010E949D0AD8018F
:102140005D96ED91FC915E978081D3969C91D3979B
:10215000892B8083D5968C91823061F16981C80189
:102160000E949D0AD801D7968C91D79787FD09C008
:102170005B96ED91FC915C978081D1969C91892B27
:1021800080830F90DF91CF911F910F91089588E286
:10219000898380E491E0F8019187808780EF90E067
:1021A00093878287ACCF88E8898380EF90E09DCFCA
:1021B00088EEEECFF80180A9882381F269817A81C7
:1021C000C8010E94580ACECFFC0187A987FD06C02E
:1021D000A38DB48D9C9181A9892B8C930895EF9246
:1021E000FF920F931F937C018BE196E00E94E00F1A
:1021F00087012BE030E04CE850E068E770E08BE1CD
:1022000096E00E94E90D10E000E023E045E050E098
:1022100061E970E088E790E00E942A0E8BE196E089
:102220001F910F91FF90EF900C94E4100895FC0122
:102230006370668B8481958126813781613039F0A6
:10224000633029F09187808733872287089531870B
:1022500020879387828708952F923F924F925F92B3
:102260006F927F928F929F92AF92BF92CF92DF92A6
:10227000EF92FF920F931F93CF93DF93CDB7DEB70B
:102280006A970FB6F894DEBF0FBECDBF9A8F898FC5
:102290007A8369834A01D22E18870F833701BC2CB9
:1022A000DC0159962D913C915A972115310509F081
:1022B00015C118968D919C911997681779070CF0A4
:1022C000D7C11A968D919C91481759070CF0D0C12F
:1022D0004C2C512CB6E0CB9E600D711D11247C87D7
:1022E0006B87161617060CF0C3C1EA2DF0E0FA87CB
:1022F000E98793E0EE0FFF1F9A95E1F7F88BEF87E0
:10230000CF01840F951F181619060CF0B1C1A98DC5
:10231000BA8D58968C91811104C0BFEABD1508F49E
:10232000D394A98DBA8DED91FC9111970284F38518
:10233000E02DCD011995B5E0DB9EC0011124E981A6
:10234000FA81FC83EB83312C212C9C012A563D4FD2
:10235000388F2F8B4A2D50E05E8B4D8BEF89F88D97
:10236000E20DF31D44919E828D82D12CC12C698196
:102370007A81620D731D7A8B698B842F90E09C8B20
:102380008B8BE98DFA8DA081B18140FF82C0F1E095
:10239000BF126FC0AF126DC01C96ED91FC912F81E2
:1023A0003885A4014C0D5D1D69897A89898D9A8DC6
:1023B0001995EB89FC89F595E7954E2F5FEFC51AC6
:1023C000D50A6D817E818D899E89680F791F7E83F4
:1023D0006D8398E0C916D10481F6AFEF2A1A3A0A44
:1023E000EB81FC81E40DF51DFC83EB83F5E02F16FA
:1023F000310409F0B3CF2F81388526153705B9F0A0
:10240000A98DBA8DED91FC91B1E0BB1257C0AB1212
:1024100055C069817A816B5F7F4F0088F189E02D1B
:10242000830128E030E0A401898D9A8D1995A98D4A
:10243000BA8DED91FC9111970688F789E02DCD01B9
:102440006A960FB6F894DEBF0FBECDBFDF91CF9175
:102450001F910F91FF90EF90DF90CF90BF90AF90C2
:102460009F908F907F906F905F904F903F902F90B4
:1024700019941E96ED91FC91EF80F88409851A85D8
:1024800092014D815E816B817C81898D9A8D199538
:1024900090CF2F8138852615370509F48ACF31E092
:1024A000B31207C0A31205C01C96ED91FC919301D5
:1024B00078CF1E96ED91FC917301E0CF6B857C8502
:1024C000641975090684F785E02D73010F85188955
:1024D0009201A401898D9A8D1995A9CFF90134969D
:1024E0009491329745915491D91AB7E0DB9E400DF3
:1024F000511D1124F901259134913C8B2B8BFA014C
:1025000025903490FA013296749031963491398B3B
:10251000329664903196449041E04C1518F04A157B
:1025200008F07FC0662D062C000C770B7C836B8334
:10253000842D042C000C990B9E838D83A98DBA8D5C
:10254000ED91FC9111970284F385E02DCD01199551
:10255000512CD12CC12CEA2DF0E0FA87E9872B2DE4
:1025600030E03C872B87A401440D511D47FC5A9550
:10257000588F4F8B69817A81660D711D67FC7A9542
:102580007E876D877989C71608F051CF2C2D30E0F2
:102590004D815E81420F531FA985BA854A9FC001B4
:1025A0004B9F900D5A9F900D1124FC01E80DF91DD1
:1025B000F88BEF87852D612C4F89588D420F531F63
:1025C0005E8B4D8B671408F050C044244394480E32
:1025D000877041F4C1010196EB89FC89E20DF31D7E
:1025E000D4901C01D7FE19C0A98DBA8DED91FC9134
:1025F000662D70E0B1E0BB1219C0AB1217C02D857B
:102600003E85620F731F0484F585E02D2F81388588
:102610004D895E89898D9A8D1995DD0C6394842D81
:10262000D1CF1E821D821C821B8288CF4B815C8190
:10263000640F751FAB85BC856A9FC0016B9F900DB1
:102640007A9F900D112469817A81680F791F068421
:10265000F785E02DEF80F88409851A859D014F8567
:102660005889898D9A8D1995D8CF570CC3948ACFE4
:102670006A960FB6F894DEBF0FBECDBFDF91CF9143
:102680001F910F91FF90EF90DF90CF90BF90AF9090
:102690009F908F907F906F905F904F903F902F9082
:1026A00008958F929F92AF92CF92EF92FF920F93E5
:1026B0001F93CF93DF93EC01262F898D9A8D00977E
:1026C00009F051C06A30D1F41D861C868D8948E01E
:1026D000849F900111248E859F85820F931F9F8771
:1026E0008E8781E090E0DF91CF911F910F91FF9055
:1026F000EF90CF90AF909F908F9008956D3089F3B9
:10270000CC88AD888F898823C1F08C859D8536E083
:10271000C39E800D911D112448855985481759077E
:1027200064F44E855F851D861C8638E0A39EC0013B
:102730001124840F951F9F878E87EA88FB8808895C
:1027400019894E855F856C857D85CE010E942C118F
:102750002C898C859D8546E0249F800D911D112438
:102760009D878C87BECF6A3069F41D861C86FC016C
:102770003896E4912D898E859F85E29F800D911D6D
:102780001124ADCF6D3009F4ACCFFC0134963491F7
:10279000631708F4A6CF3296E491E61708F4A1CFA8
:1027A000FC01329685909490462F431B342F47E0CE
:1027B000349F800C911C1124F4013296349131968F
:1027C000E4913323A9F1EE2399F1CC88F4013596F5
:1027D000E491AD884F89442301F10E2E000CFF0BCC
:1027E000E30FF11DCE9EA001CF9E500D11246C85EC
:1027F0007D85460F571F68857985641775076CF4CA
:102800004E855F851D861C86FC013896E491AE9E40
:10281000400D511D11245F874E87EA88FB88088987
:1028200019894E855F856C857D85CE010E942C11AE
:10283000F4013496E4912C898C859D85E29F800D6E
:10284000911D11248DCF6F927F928F929F92AF92A4
:10285000BF92CF92DF92EF92FF920F931F93CF938D
:10286000DF93EC016B015A0139014801E881F981DC
:102870000284F385E02D1995E881F9810288F389B6
:10288000E02D87019301A501B601CE011995A5019F
:10289000480D591D41505109E881F9810288F38999
:1028A000E02D9301B601CE011995E881F9810088E8
:1028B000F189E02D9401A501B601CE011995C60C50
:1028C000D71CB60161507109E881F9810088F1894E
:1028D000E02D9401A501CE011995E881F9810688C2
:1028E000F789E02DCE01DF91CF911F910F91FF90DD
:1028F000EF90DF90CF90BF90AF909F908F907F90A0
:102900006F9019946F927F928F929F92AF92BF9225
:10291000CF92DF92EF92FF920F931F93CF93DF93AB
:102920005C01EB016A01490138018701DC01ED918D
:10293000FC916217730719F5641675062CF0962D35
:10294000872D3A01C92ED82E9601261937092F5FF7
:102950003F4F048CF58DE02DA301BE01C5011995F3
:10296000DF91CF911F910F91FF90EF90DF90CF906B
:10297000BF90AF909F908F907F906F900895461575
:10298000570591F42617370724F0892D4B01C22FE4
:10299000D82F9E01281939092F5F3F4F068CF78DDC
:1029A000E02DA601B401DACF0284F385E02D19955C
:1029B000D501ED91FC910488F589E02D8301940106
:1029C000A601BE01C5011995D501ED91FC910688BE
:1029D000F789E02DC501DF91CF911F910F91FF90F5
:1029E000EF90DF90CF90BF90AF909F908F907F90AF
:1029F0006F901994EF92FF920F931F93DC011A9638
:102A00000D911C911B9718962D913C911997ED9162
:102A1000FC9100A0F1A1E02D7B0150E040E070E0CE
:102A200060E019951F910F91FF90EF9008954F92DC
:102A30005F926F927F928F929F92AF92BF92CF924E
:102A4000DF92EF92FF920F931F93CF93DF936C016E
:102A50002B015A0139014801DC01ED91FC910284FE
:102A6000F385E02D1995E201640C751CD601ED91FA
:102A7000FC91C615D7055CF40088F189E02D87012B
:102A80009401A501BE01C60119952196EFCF0688D4
:102A9000F789E02DC601DF91CF911F910F91FF9033
:102AA000EF90DF90CF90BF90AF909F908F907F90EE
:102AB0006F905F904F9019948F929F92AF92BF92B8
:102AC000CF92DF92EF92FF920F931F93CF93DF93FA
:102AD000EC015B014A016901E881F9810284F38517
:102AE000E02D199595012C0D3D1D21503109E881EE
:102AF000F9810488F589E02D78018401A401B501EC
:102B0000CE011995E881F9810688F789E02DCE017B
:102B1000DF91CF911F910F91FF90EF90DF90CF90B9
:102B2000BF90AF909F908F9019948F929F92AF9289
:102B3000BF92CF92DF92EF92FF920F931F93CF93AA
:102B4000DF93EC015B014A0169017801E881F981B9
:102B50000284F385E02D1995C80CD91C860101501B
:102B60001109E881F9810488F589E02D9501A40116
:102B7000B501CE011995E881F9810688F789E02D24
:102B8000CE01DF91CF911F910F91FF90EF90DF90D9
:102B9000CF90BF90AF909F908F901994EF92FF923B
:102BA0000F931F93DC01ED91FC9100A0F1A1E02DAA
:102BB00019951F910F91FF90EF9008950F931F9318
:102BC000DC01ED91FC91068CF78DE02D19951F919C
:102BD0000F9108950F931F93DC01ED91FC91048CEC
:102BE000F58DE02D19951F910F910895DC01ED9160
:102BF000FC910084F185E02D19942F923F924F9221
:102C00005F926F927F928F929F92AF92BF92CF927C
:102C1000DF92EF92FF920F931F93CF93DF9300D039
:102C200000D0CDB7DEB73C016A013E832D83FC8224
:102C3000EB825801A41AB50AB7FE03C0B194A1945F
:102C4000B1088D809E80861A970A97FE03C09194E2
:102C5000819491088A149B045CF0902F812F0D8140
:102C60001E819D838E839C2D8D2D6B01692F782F66
:102C70000C151D055CF09D818E817E836D83692F0F
:102C8000782F902F812F8601C92ED82E1601201A59
:102C9000310A2B012D813E81421A530A57FE03C08F
:102CA000519441945108710137FE03C03FEFE31A7C
:102CB000F30AF594E7948D819E81861797075CF55A
:102CC000A1E0B0E0BA83A983C016D1064CF1D301CC
:102CD000ED91FC910484F585E02D2B813C81A801C8
:102CE0006D817E818A149B041CF04D815E81B80148
:102CF000C3011995E418F508F7FE0AC02D813E813D
:102D000089819A81280F391F3E832D83E20CF31CA1
:102D10000F5F1F4FD9CF2FEF3FEF3A832983D4CFD7
:102D200026960FB6F894DEBF0FBECDBFDF91CF91D0
:102D30001F910F91FF90EF90DF90CF90BF90AF90D9
:102D40009F908F907F906F905F904F903F902F90CB
:102D50000895089590E080E008952F923F924F9259
:102D60005F926F927F928F929F92AF92BF92CF921B
:102D7000DF92EF92FF920F931F93CF93DF9300D0D8
:102D80001F92CDB7DEB71C012B015A016901480122
:102D9000421753070CF068C05A83498357FF05C098
:102DA0009A012F5F3F4F3A83298389819A819595B4
:102DB00087959C838B838B819C81049724F024E0EE
:102DC00030E03C832B838BE196E00E94E00F6B8028
:102DD0007C80660C771C8B819C81820D931D9A836D
:102DE000898395012619370974018601A201BC0166
:102DF0008BE196E00E94450FC618D70891E0C91AEA
:102E0000D1082B813C81420E531EA20CB31CC5017C
:102E1000821B930B860121E04B815C81B2010197FB
:102E20000E942A0E22E04B815C81B20189819A8145
:102E30000E942A0E8BE196E00F900F900F900F905A
:102E4000DF91CF911F910F91FF90EF90DF90CF9086
:102E5000BF90AF909F908F907F906F905F904F90BA
:102E60003F902F900C94E410359527953C832B834D
:102E7000A2CF0F931F93CF93DF93EB010E945605D0
:102E8000892B31F080E0DF91CF911F910F91089550
:102E90000E945208CC0FDD1FCC0FDD1FC455DB4F45
:102EA000088119812A813B81601B710B820B930B76
:102EB000653B71058105910528F30E9452086883DE
:102EC00079838A839B8381E0DECFFB010190002020
:102ED000E9F73197AF01461B570BDC01ED91FC91EF
:102EE0000280F381E02D19948F929F92AF92BF924E
:102EF000EF92FF920F931F93CF93DF93CDB7DEB77F
:102F0000A1970FB6F894DEBF0FBECDBF7C01FA01CA
:102F1000CB0119A2223008F42AE08E010F5D1F4F69
:102F2000822E912CB12CA12CBF01A50194010E94ED
:102F30007E2DF901CA016A300CF5605DD8016E93EF
:102F40008D01232B242B252B79F790E080E010971F
:102F500021F0BD01C7010E946517A1960FB6F89434
:102F6000DEBF0FBECDBFDF91CF911F910F91FF90BC
:102F7000EF90BF90AF909F908F900895695CDECFE7
:102F80002F923F924F925F926F927F928F929F9279
:102F9000AF92BF92CF92DF92EF92FF921F93CF93A7
:102FA000DF93EC016A017B01722EAB019601CB012C
:102FB000B6010E94ED2F66E572E0811126C0460140
:102FC0005701E894B7F82FEF3FEF4FE75FE7C501F0
:102FD000B4010E94ED2F81110CC02FEF3FEF4FE79E
:102FE0005FE7C501B4010E941C2E6AE572E0181665
:102FF00064F02FEF3FEF4FE75FE4C701B6010E9497
:103000007B2F1816B4F46EE572E0CE01DF91CF91FC
:103010001F91FF90EF90DF90CF90BF90AF909F9067
:103020008F907F906F905F904F903F902F900C9477
:1030300065172FEF3FEF4FE75FECC701B6010E9426
:103040001C2E87FDE0CF20E030E0A901C701B601CA
:103050000E941C2E312C212C87FF09C06DE2CE016D
:103060000E94A3081C01F7FAF094F7F8F09410E01E
:1030700060E070E080E09FE3711641F020E030E016
:1030800040E251E40E94212E1F5FF6CFA701960176
:103090000E94B02D2B013C010E949A2E4B015C0135
:1030A0002AE0BC01A401CE010E9474177C01E20C4D
:1030B000F31C1123C1F1C501B4010E94C92E9B016B
:1030C000AC01C301B2010E94AF2D4B015C016EE265
:1030D000CE010E94A308E80EF91E115020F120E055
:1030E00030E040E251E4C501B4010E94802F2B0181
:1030F0003C010E949A2E4B01B12CA12C2AE0B50173
:10310000A401CE010E947417E80EF91EC501B40196
:103110000E94C92E9B01AC01C301B2010E94AF2DD8
:103120004B015C01DACFC701DF91CF911F91FF9076
:10313000EF90DF90CF90BF90AF909F908F907F9057
:103140006F905F904F903F902F9008950C9465176B
:1031500020932F062093300650932C0640932B0685
:1031600010922E0610922D06FC0101900020E9F726
:103170003197E81BF90B46E0429FD001439FB00D09
:103180001124AE9FA001AF9F500DBE9F500D112482
:1031900020EF30E0241B350B37FF02C02F5F3F4F7D
:1031A00035952795309328062093270670932A0695
:1031B00060932906BC018BE196E00C94A618CF928F
:1031C000DF92EF92FF920F931F93CF93DF9300D084
:1031D00000D000D01F92CDB7DEB770E060E08BE189
:1031E00096E00E94FA1408E012E420E230E040EF9A
:1031F00050E070E060E090E080E00E94AD1621E0D9
:1032000030E04FEF5FEF69E070E082E692E00E940D
:10321000A81880914A058823C9F123E030E040EEE8
:103220005FEF6CE370E08FE692E00E94A81821E067
:1032300030E04FEF5FEF6EE670E08CE792E00E94C7
:10324000A81800EE17E02EE130E040EA50E06CE80C
:1032500070E088E290E00E94AD1621E030E04FEF90
:103260005FEF64E970E08EE892E00E94A8182A9669
:103270000FB6F894DEBF0FBECDBFDF91CF911F9187
:103280000F91FF90EF90DF90CF90089580913E05D1
:103290008E010F5F1F4F882309F45AC080913C05AF
:1032A00090913D056CE370E00E94F22F9F938F9305
:1032B0007F936F9386E193E09F938F931F930F9378
:1032C0000E94363024E030E040EE57E06CE370E0DE
:1032D000C8010E94A81822E030E040EE57E063E702
:1032E00070E085EA92E00E94A8184091090250918E
:1032F0000A0280913C0590913D05DA01A81BB90BAB
:1033000028EC30E00E942A309A01550F440B550BEF
:103310000E94542D690108E012E420E130E048ECFD
:1033200050E060EA70E084E190E00E94AD1600EEAB
:1033300017E020E130E0A60160EA70E084E190E06F
:103340000E94AD160FB6F894DEBF0FBECDBF8FCF73
:103350008091090290910A026CE370E00E94F22FC2
:103360009F938F937F936F9386E193E09F938F93C7
:103370001F930F930E94363024E030E04FEF57E068
:103380006CE370E0C8010E94A81821E030E048E139
:1033900056EC68E770E082EB92E00E94A818D2CF6A
:1033A0000F931F93CF93DF9300D000D000D01F92D4
:1033B000CDB7DEB770E060E08BE196E00E94FA14D2
:1033C00000EE1FEF20E230E040EF50E070E060E000
:1033D00090E080E00E94AD1621E030E050E040E057
:1033E00069E070E08BEC92E00E94A818209109023D
:1033F00030910A0294E090932F06909330068FEF5D
:1034000097E090932C0680932B0610922E06109234
:103410002D06C9016CE370E00E94F22F9F938F93F9
:103420007F936F9386E193E09F938F938E010F5F5D
:103430001F4F1F930F930E943630F8010190002018
:10344000E9F73197E01BF10B88E18E9F90018F9F88
:10345000300D112480EF90E0821B930B0FB6F8948F
:10346000DEBF0FBECDBF97FD0196959587959093D2
:1034700028068093270686E490E090932A0680939E
:103480002906B8018BE196E00E94A61821E030E001
:1034900048E156EC6CE870E089ED92E00E94A818D3
:1034A00021E030E048E156EC60EA70E082EF92E023
:1034B0000E94A81870E060E088E290E00E9439174E
:1034C000882389F08091090290910A02CC96853375
:1034D00037E1930710F084E397E190930A02809319
:1034E00009020E94D01961E070E089E290E00E9438
:1034F0003917882371F08091090290910A028C3368
:10350000910528F0CC9790930A02809309020E94BB
:10351000D01962E070E08AE290E00E9439178823B7
:1035200009F12091090230910A0230933D05209360
:103530003C0581E0232B09F480E080933E05109246
:103540004A050E94520860933205709333058093B8
:1035500034059093350510924D0582E080934C051B
:103560000E94DF1863E070E08BE290E00E94391760
:10357000882339F010924D0582E080934C050E941B
:10358000DF182A960FB6F894DEBF0FBECDBFDF91CD
:10359000CF911F910F9108950F931F93CF93DF93B6
:1035A00000D000D000D01F92CDB7DEB770E060E051
:1035B0008BE196E00E94FA1408E012E420E230E089
:1035C00040EF50E070E060E090E080E00E94AD16D7
:1035D00021E030E04FEF5FEF69E070E08BE093E0D7
:1035E0000E94A81884E080932F06809330068FEF06
:1035F0009FEF90932C0680932B0610922E0610922C
:103600002D06809136051F928F93809137051F926A
:103610008F93809108021F928F9381E193E09F9393
:103620008F938E010F5F1F4F1F930F930E943630B1
:10363000F80101900020E9F73197E01BF10B88E1D8
:103640008E9F90018F9F300D112480EF90E0821BA0
:10365000930B0FB6F894DEBF0FBECDBF97FD01965A
:1036600095958795909328068093270686E490E0A9
:1036700090932A0680932906B8018BE196E00E9478
:10368000A6180FEF17E022E030E044EB50E068E7C7
:1036900070E08EE190E00E94AD1622E030E044EB55
:1036A00050E06AEA70E08EE190E00E94AD168091F1
:1036B000360580FD0FC080EE97E00E94EF102A963D
:1036C0000FB6F894DEBF0FBECDBFDF91CF911F9133
:1036D0000F91089588E092E4F0CF0F931F93CF935A
:1036E000DF9300D000D000D01F92CDB7DEB770E0DE
:1036F00060E08BE196E00E94FA1400EE1FEF20E2FA
:1037000030E040EF50E070E060E090E080E00E9448
:10371000AD1680913F0521E030E050E040E069E0E7
:1037200070E08111C2C080E293E00E94A81884E09A
:1037300080932F06809330068FEF9FEF90932C0697
:1037400080932B0610922E0610922D06809137053D
:103750001F928F93809108021F928F9386E193E0CE
:103760009F938F938E010F5F1F4F1F930F930E94A4
:103770003630F80101900020E9F73197E01BF10B9A
:1037800088E18E9F90018F9F300D112480EF90E093
:10379000821B930B0FB6F894DEBF0FBECDBF97FD13
:1037A000019695958795909328068093270686E441
:1037B00090E090932A0680932906B8018BE196E069
:1037C0000E94A61821E030E048E156EC6CE870E079
:1037D0008CE393E00E94A81821E030E048E156EC29
:1037E00060EA70E08DE493E00E94A81870E060E069
:1037F00088E290E00E943917882391F080913F057C
:10380000811156C08091080290E0019668E170E055
:103810000E94063080930802109236050E946D1BAC
:1038200061E070E089E290E00E943917882381F01E
:1038300080913F05811147C08091080290E0479632
:1038400068E170E00E940630809308020E946D1BC0
:1038500062E070E08AE290E00E943917882349F024
:1038600080913F0581113AC081E080933F050E941D
:103870006D1B63E070E08BE290E00E9439178823B3
:1038800049F010923F0510924D0581E080934C0560
:103890000E94CC1A2A960FB6F894DEBF0FBECDBF99
:1038A000DF91CF911F910F9108958DE293E03DCF6D
:1038B0008091370590E001966CE370E00E9406303D
:1038C00080933705A9CF8091370590E0CB966CE3C4
:1038D00070E00E94063080933705B8CF10923F0504
:1038E00010924D0581E080934C050E94CC1AC1CF07
:1038F0000E943130CF92DF92EF92FF920F931F938D
:10390000CF93DF93EC016A017B01C114D104E10480
:10391000F10431F4C12C42E1D42E4AE7E42EF12C1B
:103920008FA987FD07C061E00E94AD0561E08FA906
:103930000E947F0561E088AD0E94AD0561E088AD21
:103940000E947F058DA98111A3C040E052E16AE782
:1039500070E0C416D506E606F70640F4769567953E
:10396000579547958F5F8630A1F787E0982F906A2B
:10397000969599A3809581708AA31BA21CA21DA273
:103980001EA21FB7F89480912D05811127C0E4E68F
:10399000F9E08491E4E0F9E09491E82FF0E0EE0F93
:1039A000FF1FEC5AF74FA591B491EC91E92321F454
:1039B00061E085E30E947F0561E085E30E94AD053B
:1039C0008CB580618CBD8CB580648CBD61E084E376
:1039D0000E94AD0561E083E30E94AD0580912D0555
:1039E0008F5F80932D051FBF8EA987FD21C061E0E9
:1039F0000E94AD0561E08EA90E947F0564E670E03B
:103A000080E090E00E94200860E08EA90E947F057F
:103A100064E670E080E090E00E94200861E08EA9FA
:103A20000E947F0568EC70E080E090E00E94200832
:103A30008EA987FF0DC020E050E040E061E0CE019C
:103A40000E94F20F66E970E080E090E00E9420089A
:103A500006E917E0C8010196F8016491662309F4AC
:103A600063C00E5F1F4FFC01F490EF2CE894E7F861
:103A70002E2DA801CE010E94F20F0E0D111DF7FE92
:103A8000E9CF66E970E080E090E00E942008E2CF94
:103A90000FE219E0F12C8130B9F461E08AA50E94AF
:103AA000AD0560E08AA50E947F0561E08CA50E94BB
:103AB000AD0560E08CA50E947F058BA587FD94CFA6
:103AC00060E00E94AD0590CFF8018491E82FF0E00E
:103AD000EE0FFF1FEB5EF64F859194912F8D38A16D
:103AE0002817390741F461E08F2D0E94AD0560E091
:103AF0008F2D0E947F05F3940F5F1F4FF6E4FF1296
:103B0000E3CF61E08EA50E94AD0561E08EA50E9425
:103B10007F058FA587FD68CF61E00E94AD0561E05C
:103B20008FA50E947F0560CF80EF90E099878887FE
:103B300080E491E09B878A87DF91CF911F910F915D
:103B4000FF90EF90DF90CF9008951F93CF93DF9376
:103B500085ED8093BC008091BF049091C004A0913A
:103B6000C104B091C2040796A11DB11D23E0B69512
:103B7000A795979587952A95D1F72091BC0024FDAC
:103B800003C01092070552C04091BF045091C00479
:103B90006091C1047091C204452B462B472B69F3F9
:103BA0000097A105B10541F02AE22A95F1F700C07E
:103BB0000197A109B109E1CF8091BE04C1E0C09392
:103BC000BD04882399F1D091B8001091BA0080917A
:103BD000BC008A7B8093BC0060E084E10E947F058A
:103BE00060E085E10E947F0510920705C0930905FA
:103BF0001092080561E084E10E947F0561E085E1A3
:103C00000E947F058091B9008E7F8093B9008091DA
:103C1000B9008D7F8093B90088E48093B80085E473
:103C20008093BC001093BA00D093B800DF91CF917D
:103C30001F910895EF92FF920F931F93CF93DF93FD
:103C400000D000D01F921F92CDB7DEB770E060E0C9
:103C50008BE196E00E94FA140FE110E020E230E0E0
:103C600040EF50E070E060E090E080E00E94AD1630
:103C700080914E058111FFC189E094E021E030E0A0
:103C80004FEF5FEF69E070E00E94A81885E0809335
:103C90002F068093300680914B058111EFC180EE95
:103CA00097E090932C0680932B0610922E0610928C
:103CB0002D066091500570915105809152059091AB
:103CC00053059E012F5F3F4F7901890121E044E0B8
:103CD0000E94E52AF70101900020E9F73197EE19DB
:103CE000FF098EE18E9F90018F9F300D11248CEC87
:103CF00090E0821B930B97FD019695958795909385
:103D000028068093270682E390E090932A0680930A
:103D100029066CE973E08BE196E00E94A618B701D2
:103D20008BE196E00E94A6186FE973E08BE196E0C4
:103D30000E94A61880914B0508E012E4882311F038
:103D400000E018EF28E130E040E550E069E670E07F
:103D50008EE190E00E94AD1681E080932F06809363
:103D6000300680914B0581118CC188E092E42FEFE1
:103D70003FEF30932C0620932B0690932E068093D2
:103D80002D0688E290E0909328068093270681E72D
:103D900090E090932A068093290661EA73E08BE114
:103DA00096E00E94A61880914B0565E274E0882396
:103DB00011F06CE174E08BE196E00E94A61880910E
:103DC0004E0500EE17E0882311F00FE110E028E126
:103DD00030E040E550E069E670E082E890E00E9463
:103DE000AD1680914E0520EE37E0882311F02FE1CB
:103DF00030E04FEF5FEF50932C0640932B0630934B
:103E00002E0620932D062CE830E0309328062093D0
:103E1000270621E730E030932A06209329066FE732
:103E200073E0882311F068E773E08BE196E00E946D
:103E3000A61882E080932F06809330068FEF97E0DC
:103E400090932C0680932B0610922E0610922D062E
:103E500084E190E0909328068093270681E990E022
:103E600090932A068093290668EA73E08BE196E036
:103E70000E94A61840910B0250910C0260910D0215
:103E800070910E0221E08BE196E00E94C0176FE96D
:103E900073E08BE196E00E94A61881E080932F06E4
:103EA0008093300680914B0520EE37E0882311F097
:103EB00020E038EF30932C0620932B0610922E062C
:103EC00010922D0624E130E0309328062093270637
:103ED0002FEA30E030932A062093290662E973E046
:103EE000882311F066E873E08BE196E00E94A61843
:103EF00080914F058823B1F000E018EF2CE130E00D
:103F000040EF50E068EC70E090E080E00E94AD1679
:103F100021E030E04FEF5FEF60ED70E08CEA93E07E
:103F20000E94A81880914E0508E012E4882311F041
:103F30000FE110E024E130E040E550E060EF70E098
:103F400090E080E00E94AD168AE090E09093280611
:103F50008093270686EF90E090932A0680932906A7
:103F600080914E05811190C088E092E42FEF3FEFE1
:103F700030932C0620932B0690932E0680932D06CB
:103F80006FEB73E08BE196E00E94A61880914B05E1
:103F900008E012E4882311F000E018EF24E130E09B
:103FA00040E550E060EF70E080E590E00E94AD16E3
:103FB0008AE590E0909328068093270686EF90E0AC
:103FC00090932A068093290680914B0581115FC04A
:103FD00088E092E42FEF3FEF30932C0620932B06DE
:103FE00090932E0680932D0666EC73E08BE196E0AD
:103FF0000E94A61880914F0508E012E4882311F072
:1040000000E21DEF24E130E040E550E060EF70E0B9
:1040100080EA90E00E94AD168AEA90E0909328062C
:104020008093270686EF90E090932A0680932906D6
:1040300080914F0581112EC088E092E42FEF3FEF71
:1040400030932C0620932B0690932E0680932D06FA
:104050006BEC73E08BE196E00E94A61828960FB6F1
:10406000F894DEBF0FBECDBFDF91CF911F910F91AE
:10407000FF90EF90089588E693E000CE80E098EFFF
:1040800010CE80E098EF73CE8FE190E06FCF80E0AC
:1040900098EFA0CF80E29DEFD1CFCF92DF92EF9249
:1040A000FF920F931F93CF93DF9300D000D01F9206
:1040B0001F92CDB7DEB770E060E08BE196E00E9422
:1040C000FA1400EE1FEF20E230E040EF50E070E025
:1040D00060E090E080E00E94AD1621E030E050E02A
:1040E00040E069E070E082ED93E00E94A81884E06F
:1040F00080932F06809330068FEF97E090932C06E5
:1041000080932B0610922E0610922D0660910B02C2
:1041100070910C0280910D0290910E029E012F5F12
:104120003F4F7901890121E044E00E94E52AF7012F
:1041300001900020E9F73197EE19FF0988E18E9F81
:1041400090018F9F300D112484EB90E0821B930B24
:1041500097FD01969595879590932806809327065D
:1041600086E490E090932A06809329066CE973E038
:104170008BE196E00E94A618B7018BE196E00E94C1
:10418000A6186FE973E08BE196E00E94A61821E083
:1041900030E048E156EC6CE870E08CE393E00E947C
:1041A000A81821E030E048E156EC60EA70E083EEC8
:1041B00093E00E94A81870E060E088E290E00E941E
:1041C0003917882341F120E030E040E05FE360915F
:1041D0000B0270910C0280910D0290910E020E94D0
:1041E000B02D6B017C0120E030E040E751E40E94FB
:1041F0007B2F181634F4C12CD12C90E7E92E91E4D2
:10420000F92EC0920B02D0920C02E0920D02F092B5
:104210000E020E944D2061E070E089E290E00E9471
:104220003917882341F120E030E040E05FE36091FE
:104230000B0270910C0280910D0290910E020E946F
:10424000AF2D6B017C0120E030E040E251EC0E9498
:104250001C2E87FF06C0C12CD12C80E2E82E81ECF9
:10426000F82EC0920B02D0920C02E0920D02F09256
:104270000E020E944D2062E070E08AE290E00E940F
:1042800039178823A9F010924D0510924C050E9411
:104290001A1E28960FB6F894DEBF0FBECDBFDF9171
:1042A000CF911F910F91FF90EF90DF90CF900895E5
:1042B00063E070E08BE290E00E9439178111E3CF58
:1042C000E8CF1F920F920FB60F9211242F933F93B6
:1042D0008F939F93AF93BF9380915505909156050F
:1042E000A0915705B09158053091540523E0230F54
:1042F0002D3758F50196A11DB11D209354058093CB
:10430000550590935605A0935705B0935805809195
:10431000590590915A05A0915B05B0915C050196F5
:10432000A11DB11D8093590590935A05A0935B057B
:10433000B0935C05BF91AF919F918F913F912F9169
:104340000F900FBE0F901F90189526E8230F02962E
:10435000A11DB11DD2CF1F920F920FB60F92112443
:104360000BB60F922F933F934F935F936F937F936F
:104370008F939F93AF93BF93EF93FF9380917105BA
:1043800090917205A0917305B0917405892B8A2BC9
:104390008B2BE1F190916005E0916105F091620550
:1043A0008081892780838091710590917205A09109
:1043B0007305B0917405181619061A061B069CF4AD
:1043C0008091710590917205A0917305B09174056B
:1043D0000197A109B1098093710590937205A0938B
:1043E0007305B0937405FF91EF91BF91AF919F91C9
:1043F0008F917F916F915F914F913F912F910F908E
:104400000BBE0F900FBE0F901F9018958091130256
:104410000E945E08E8CF1F920F920FB60F921124F0
:104420000BB60F922F933F934F935F936F937F93AE
:104430008F939F93AF93BF93EF93FF938DE795E097
:104440000E941E09FF91EF91BF91AF919F918F91B3
:104450007F916F915F914F913F912F910F900BBE84
:104460000F900FBE0F901F9018951F920F920FB6CE
:104470000F9211240BB60F922F938F939F93EF936C
:10448000FF93E0918D05F0918E058081E091930579
:10449000F091940582FD1DC09081809196058F5FFB
:1044A0008F7320919705821741F0E0919605F0E017
:1044B000E358FA4F958F80939605FF91EF919F9166
:1044C0008F912F910F900BBE0F900FBE0F901F90EA
:1044D00018958081F2CF1F920F920FB60F92112480
:1044E0000BB60F922F933F934F935F936F937F93EE
:1044F0008F939F93AF93BF93EF93FF938091B900F6
:10450000887F803609F44DC008F040C0883209F435
:10451000A7C028F5803109F49BC0C8F4882309F4AA
:10452000F7C0883009F494C0FF91EF91BF91AF912B
:104530009F918F917F916F915F914F913F912F91BB
:104540000F900BBE0F900FBE0F901F9018958831E3
:1045500009F486C0803241F78093060514C0803488
:1045600009F49BC040F48033B9F38833E9F68093B3
:10457000060585ECAEC0803509F483C0883509F4A2
:1045800094C0883489F60E94A51DCECF883909F4DD
:104590008AC038F5883729F050F4883611F0803712
:1045A00019F683E0809307051092050555C08838F9
:1045B00009F479C0803919F0803809F0B5CF8091BD
:1045C0000505803208F06FC0E091050581E08E0F8F
:1045D000809305058091BB00F0E0EB51FB4F808399
:1045E0003BC0803B39F0D0F4803A09F477C0883A78
:1045F00009F09ACF84E0809307051092E4041092AA
:10460000E304F0E0E0E019958091E30481110FC02C
:1046100081E08093E3041092C30409C0803C09F454
:10462000A8CF883C09F4A5CF883B09F07DCFE09165
:10463000E40481E08E0F8093E404F0E0ED53FB4F3F
:1046400080818093BB009091E4048091E30429C0B1
:1046500080912C058093BB0085EC8093BC0064CFD7
:1046600090912B0580912A05981758F5E0912B051C
:1046700081E08E0F80932B05F0E0E65FFA4F80819A
:10468000E9CFE0912B0581E08E0F80932B0580917F
:10469000BB00F0E0E65FFA4F808390912B0580919C
:1046A0002A059817C8F285E8D8CFE0912B0581E05C
:1046B0008E0F80932B058091BB00F0E0E65FFA4FF0
:1046C00080838091090581115ECF81E08093080588
:1046D00084EA8093BC001092070526CF85EC809376
:1046E000BC001092070580910505803230F4E091FE
:1046F0000505F0E0EB51FB4F10826091050570E07D
:1047000085EE94E0F0E0E0E01995109205050CCFFD
:104710001092060538CFEDE7F5E01382128288EE9D
:1047200093E0A0E0B0E084839583A683B78388E11B
:1047300092E09183808385EC90E09587848784EC78
:1047400090E09787868780EC90E0918B808B81EC5E
:1047500090E0938B828B82EC90E0958B848B86EC3F
:1047600090E0978B868B118E128E138E148EABE198
:10477000B6E013961C921E92129720EF30E0159629
:104780003C932E93149780E491E017969C938E931C
:10479000169719963C932E9318971B969C938E937D
:1047A0001A9756961C9256971D961C921E921C970D
:1047B0001F961C921E921E9781E055968C935597DA
:1047C00054968C9354972FEF3FEF53963C932E9330
:1047D000529751963C932E93509757968C93579798
:1047E00058961C9258975A961C921E925997D59695
:1047F0001C92D59788E0D6968C93D6978AE0D79668
:104800008C93D79789E0D8968C93D897DA961C9298
:104810001E92D997DC961C921E92DB97DD961C9215
:10482000DD97DE961C92DE9710925A0610925B0678
:1048300010925C0610925D068AE196E090969C9339
:104840008E935F97E8E3F9E0E491F0E0EE0FFF1F4D
:10485000EB5EF64F859194915E969C938E935D9757
:10486000E8EDF8E08491D3968C93D397E9E3F9E0EF
:10487000E491F0E0EE0FFF1FEB5EF64F25913491CF
:104880005C963C932E935B97E9EDF8E0E491D1962A
:10489000EC93D197E095D296EC93D297E82FE095E0
:1048A000D496EC93D4978AE292E08D939C930895EA
:1048B000CF93DF93CDB7DEB72F970FB6F894DEBF57
:1048C0000FBECDBF789484B5826084BD84B581600D
:1048D00084BD85B5826085BD85B5816085BD8091CB
:1048E0006E00816080936E00109281008091810043
:1048F000826080938100809181008160809381003B
:10490000809180008160809380008091B1008460FC
:104910008093B1008091B00081608093B00080915D
:1049200091008260809391008091910081608093DA
:104930009100809190008160809390008091A1000F
:1049400082608093A1008091A10081608093A1008A
:104950008091A00081608093A000809121018260FD
:1049600080932101809121018160809321018091B8
:10497000200181608093200180917A00846080937F
:104980007A0080917A00826080937A0080917A0028
:10499000816080937A0080917A00806880937A00A9
:1049A0001092C100E0918D05F0918E0582E0808328
:1049B000E0918905F0918A051082E0918B05F091D4
:1049C0008C058FEC808310929505E0919105F09114
:1049D000920586E08083E0918F05F09190058081BB
:1049E00080618083E0918F05F091900580818860DF
:1049F0008083E0918F05F0919005808180688083AD
:104A0000E0918F05F091900580818F7D808385E016
:104A100098E00E948D096EE474E08DE795E00E94B5
:104A2000651740E050E0BA018BE196E00E947A1CE5
:104A300061E08BE196E00E945B1070E060E08BE14A
:104A400096E00E94FA1470E060E08BE196E00E942C
:104A5000FA140FE110E022E330E048EC50E06EE1A0
:104A600070E084E190E00E94AD1622E030E04FEF6C
:104A70005FEF6AE270E081E594E00E94A81808E028
:104A800012E42EE130E048E750E06FE570E08CE39F
:104A900090E00E94AD1621E030E04FEF57E066E66F
:104AA00070E08FE594E00E94A81822E030E040EE2C
:104AB0005FEF6CE870E08BE694E00E94A81868E76E
:104AC00075E080E090E00E94200870E060E08BE1FB
:104AD00096E00E94FA1422E030E040EE57E062E3F4
:104AE00070E080E794E00E94A81823E030E04FEFE8
:104AF0005FEF60E570E08DE794E00E94A81822E087
:104B000030E04FEF57E068E770E082E894E00E9401
:104B1000A81822E030E040EE5FEF60EA70E08EE837
:104B200094E00E94A81860EB74E080E090E00E949E
:104B3000200870E060E08BE196E00E94FA1461E0EA
:104B40008EE10E94AD0560E08EE10E947F0561E08C
:104B50008FE10E94AD0560E08FE10E947F0561E07A
:104B600080E20E94AD0560E080E20E947F0561E086
:104B700081E20E94AD0560E081E20E947F0561E074
:104B800082E20E94AD0560E082E20E947F0562E061
:104B900087E30E94AD0562E088E20E94AD0562E015
:104BA00089E20E94AD0562E08AE20E94AD0562E002
:104BB0008BE20E94AD05BB24B3949E012F5F3F4F53
:104BC0003F872E870E9452086B017C0186E30E947A
:104BD000E407BC01990F880B990B0E94CB2E20E0B3
:104BE00030EC4FE754E40E94212E20E030E048E40E
:104BF00052E40E94802F20E030E040E251E40E9425
:104C0000AF2D2B013C01409250055092510560920E
:104C100052057092530589E30E94E407BC01990F85
:104C2000880B990B0E94CB2E20E030EC4FE754E428
:104C30000E94212E20E030E048EC52E40E94802FB8
:104C400060930F02709310028093110290931202EE
:104C500087E30E9456054C0101E0892B09F000E032
:104C600000934F053324339420E030E0A901609194
:104C70000B0270910C0280910D0290910E020E9425
:104C80001C2E18160CF4312C30924E05A0904D05B8
:104C900010914C05AA2011F0143019F188E30E94FC
:104CA000E407BC01990F880B990B0E94CB2E20E0E2
:104CB00030EC4FE754E40E94212E20E030E048EC35
:104CC00051E40E94802F20E030E040E251E40E9455
:104CD000AF2D60930B0270930C0280930D029093A2
:104CE0000E0280910B0290910C02A0910D02B091E6
:104CF0000E028A879B87AC87BD8720E030E040E0CA
:104D00005FE3BC01CD010E94B02D9B01AC01C3014A
:104D1000B2010E947B2F18160CF0E4C1B0924B0533
:104D200061E08EE10E947F0561E081E20E947F05E3
:104D3000632D82E20E947F05602F80E20E947F0542
:104D400020914A05022F222379F0C701B60128EBF2
:104D50003BE040E050E00E947E2D21E06039714050
:104D60008105910508F020E020934905109248053F
:104D7000892809F0D6C18091440590914505A091FC
:104D80004605B0914705892B8A2B8B2B41F4C092A5
:104D90004405D0924505E0924605F0924705809182
:104DA000440590914505A0914605B0914705B7018E
:104DB000A601481B590B6A0B7B0B41315742610519
:104DC000710508F4A9C148E552E060E070E0209068
:104DD0004005309041054090420550904305360112
:104DE0004701621873088408950846155705680539
:104DF000790508F0A6C1B0924805C0924005D0924E
:104E00004105E0924205F0924305222309F4D5C3FF
:104E10004CE251E060E070E080EE96E00E94E9052F
:104E20000E94520840902E0550902F05609030054A
:104E3000709031056419750986099709683E7340B9
:104E40008105910590F00E94520860932E057093A1
:104E50002F058093300590933105809136058F5F43
:104E60008C3308F08FC18093360580913E058823EE
:104E700089F180903C0590903D058114910451F199
:104E80000E945208409032055090330560903405DE
:104E9000709035056419750986099709683E734055
:104EA00081059105B8F00E94520860933205709315
:104EB0003305809334059093350581E0881A910875
:104EC00090923D0580923C05892821F410923E0580
:104ED000B0924A05AA2009F475C1153009F469C1D8
:104EE000163009F469C1143009F069C10E944D20DF
:104EF0008091380590913905A0913A05B0913B0514
:104F000016012701281A390A4A0A5B0AD201C1018F
:104F1000893E9340A105B10508F4DBC0C092380575
:104F2000D0923905E0923A05F0923B0582E598E08F
:104F30000E948D09809108028A3028F460E38DE791
:104F400095E00E94A3084091080250E070E060E004
:104F50002AE08DE795E00E9474176AE38DE795E0FB
:104F60000E94A308809137058A3028F460E38DE71A
:104F700095E00E94A3084091370550E070E060E0A2
:104F80002AE08DE795E00E9474176AE38DE795E0CB
:104F90000E94A308809136058A3028F460E38DE7EB
:104FA00095E00E94A3084091360550E070E060E073
:104FB0002AE08DE795E00E9474178DE498E00E9446
:104FC0008D094091500550915105609152057091A5
:104FD000530521E08DE795E00E94C01788E498E032
:104FE0000E948D0940910B0250910C0260910D02BC
:104FF00070910E0221E08DE795E00E94C01784E4D5
:1050000098E00E948D0960910F02709110028091CA
:105010001102909112020E94932E6B01770FEE08FD
:10502000FF082AE0B701A601F7FE0DC06DE28DE78B
:1050300095E00E94A30844275527BA014C195D0941
:105040006E097F092AE08DE795E00E9474178AE3D4
:1050500098E00E948D0980914F0561E4811101C0A3
:1050600063E48DE795E00E94A30883E398E00E9443
:105070008D0980914B0561E3811101C060E38DE7EB
:1050800095E00E94A3088BE298E00E948D09809130
:105090003E056CE174E0811102C065E274E08DE7C9
:1050A00095E00E94A61860E28DE795E00E94A308B3
:1050B00040913C0550913D0570E060E02AE08DE7AD
:1050C00095E00E9474176EE474E08DE795E00E940D
:1050D000651760E570E080E090E00E9420080E9483
:1050E000C80970CD20E030E040E05FE36A857B8551
:1050F0008C859D850E94AF2D9B01AC01C301B2013F
:105100000E941C2E87FF14CE10924B0560E08EE1AA
:105110000E947F0560E009CE44EC59E060E070E059
:1051200056CE1092440510924505109246051092F5
:1051300047051092400510924105109242051092C9
:105140004305211165CE80914F05811169CE011172
:1051500067CE8FE10E945E0863CEA7019601281BEF
:10516000390B4A0B5B0BDA01C90181319742A1056A
:10517000B10508F427C288E795E044E650E060E016
:1051800070E04CCE10923605809137058F5F8C33DE
:1051900018F48093370569CE109237058091080284
:1051A0008F5F883118F4809308025FCE1092080256
:1051B0005CCE0E946D1B9CCE0E94D01999CE10929D
:1051C0004D0596CE70E060E088E290E00E943917CD
:1051D000882339F0812F90E003968370992780937C
:1051E0004C0561E070E089E290E00E943917882365
:1051F00041F080914C0590E001968370992780934F
:105200004C0562E070E08AE290E00E943917882342
:1052100051F080914C05813009F4A5C108F49DC17D
:10522000823009F4A8C180914C05813009F4BFC1D6
:1052300008F4BAC1823009F4BDC1833009F058CEF8
:1052400070E060E08BE196E00E94FA1408E012E45E
:1052500020E230E040EF50E070E060E090E080E07D
:105260000E94AD1621E030E04FEF5FEF69E070E0A3
:1052700085E994E00E94A81884E080932F0680932B
:105280003006AFEFB7E0B0932C06A0932B06109238
:105290002E0610922D0660910F02709110028091DF
:1052A0001102909112020E94932E7F936F9336EA1F
:1052B000232E34E0332E3F922F9266246394712C78
:1052C0006C0E7D1E7F926F920E943630EE85FF85B8
:1052D00001900020E9F731978E849F84E819F9093D
:1052E00088E18E9F90018F9F300D112480EF90E018
:1052F000821B930B0F900F900F900F900F900F90B9
:1053000097FD01969595879590932806809327069B
:1053100022E330E030932A0620932906BE016F5F16
:105320007F4F8BE196E00E94A61860910F0270916A
:10533000100280911102909112020E94932EDB01C3
:1053400028EC30E00E942A3024E630E040E050E0D3
:105350000E94542D290108E012E42CE030E048ECD2
:1053600050E064E670E084E190E00E94AD160FEF3B
:1053700017E02CE030E0A20164E670E084E190E008
:105380000E94AD1680914E050FE110E0811102C020
:1053900000EE17E028E130E048EC50E06DE770E007
:1053A00084E190E00E94AD16B0922F06B0923006D4
:1053B00080914E052FE130E0811102C020EE37E0F0
:1053C0004FEF5FEF50932C0640932B0630932E0641
:1053D00020932D0642E350E0509328064093270681
:1053E000A5E8B0E0B0932A06A093290662EF73E027
:1053F000811102C063E074E08BE196E00E94A61880
:1054000080914B0500E018EF811102C008E012E422
:1054100028E130E04FE550E060EA70E084E190E0A0
:105420000E94AD1680914B0520E038EF811102C03B
:1054300028E032E44FEF5FEF50932C0640932B06A9
:1054400030932E0620932D062EE130E0309328066F
:105450002093270628EA30E030932A062093290675
:1054600066E174E0811102C06FE174E08BE196E0C7
:105470000E94A61880914F0500E21DEF811102C025
:1054800000EE17E028E130E04FE550E060EA70E020
:105490008DE790E00E94AD1680914F0520E23DEF30
:1054A000811102C020EE37E04FEF5FEF50932C06E2
:1054B00040932B0630932E0620932D0627E830E0EC
:1054C000309328062093270628EA30E030932A06F6
:1054D0002093290669E274E0811102C061E374E05F
:1054E0008BE196E00E94A61880913E0500EE1FEF2A
:1054F000811102C008E012E428E130E04FE550E0FD
:1055000063EC70E084E190E00E94AD1680913E056E
:1055100020EE3FEF811102C028E032E410922C0609
:1055200010922B0630932E0620932D062EE130E0AC
:1055300030932806209327062BEC30E030932A0680
:105540002093290669E374E0811102C063E474E0EA
:105550008BE196E00E94A618CBCCB0924D0584E07A
:1055600080934C0560CE80934D0585E080934C057B
:1055700010923F0558CE80913E05811108C0809160
:105580004A05811104C0B0924D0586E0E9CF109222
:105590003E0510924A058091090290910A0290936B
:1055A0003D0580933C053FCE0E941A1EA1CC0E946F
:1055B000CC1A9ECC0E94DF189BCC0097A105B105A8
:1055C00009F0CBCD80E793E0D8CDEF920F931F93F6
:1055D000CF93DF93E80134E047FD34E1042E000C63
:1055E000550B57FF03C0519541955109E32E022FEA
:1055F000242FAE010E94032BCE01DF91CF911F918A
:105600000F91EF9008958F929F92AF92BF92CF9299
:10561000DF92EF92FF920F931F93CF93DF9300D00F
:1056200000D000D0CDB7DEB76A01F22EB02E102F19
:10563000FBE3AF2EA01608F41BE31F5F012F27E04A
:10564000AE014F5F5F4F0E947C2CBC018981982F77
:105650009970913009F44EC09BE2E1FC04C09E2D8C
:105660009170E0FC49C05E2D5071E82FE87083FF17
:1056700055C084E0911101C083E0EF2DE81B8F1528
:1056800008F0E0E0D6018E2F20E25523C9F19923DE
:1056900029F0D6019C93C60101966C0196012D5FFD
:1056A0003F4FE2FE33C08EE4D6018C9391E4119615
:1056B0009C93119712968C93D9018E2F90E28111B1
:1056C0002AC0E20FF32FF11D10828EEF9FEF299673
:1056D0000FB6F894DEBF0FBECDBFDF91CF911F9103
:1056E0000F91FF90EF90DF90CF90BF90AF909F9081
:1056F0008F9008959DE2B7CF90E2B5CF2D93815062
:105700008111FCCFCE0ED11CE0E0C1CF8EE6D601D8
:105710008C9391E6CCCF9D938150D1CF482F44708C
:1057200082FF3DC084E0911101C083E08F1510F429
:10573000EF2DE81BD6018E2F20E2552309F1992386
:1057400029F0D6019C93C60101966C0196012D5F4C
:105750003F4FE2FE1BC089E4D6018C938EE4119684
:105760008C93119786E412968C93D9018E2F90E238
:10577000882309F4A6CF9D938150FACF2D938150B1
:105780008111FCCFCE0ED11CE0E0D9CF89E6D60145
:105790008C938EE611968C93119786E6E4CF9B014D
:1057A00077FF02C030E020E0A1E0B0E0911102C03C
:1057B000B0E0A0E0F9013196AE0FBF1F8B2C912C09
:1057C000BB2009F461C05401EFEFAE1ABE0AAA0D66
:1057D000BB1DFA161B0619F014F04F2D4A1B511170
:1057E00088C0E3FC59C07601A42FB0E2A1114FC0DC
:1057F000C40ED11C992309F45BC040E0D601119678
:10580000F60190836D01552309F448C0012F060F5E
:105810009A81582F507184FF03C0913309F40150CD
:1058200010160CF047C0093008F008E0EEE2FE2E3A
:105830005B01A01AB10885019194819491082F3FD2
:10584000320729F4D601FC92F60131966F016217F6
:10585000730794F1021713077CF5DB01A21BB30B4E
:10586000AA24A394B12CAC0EBD1EAA0DBB1D11968B
:105870008C9121503109D601119628153905F4F083
:10588000F60180836D01DBCFB12CA12CA0CFF701F5
:10589000B1937F01A150AACF9111B0CFD601942F1F
:1058A00050E302C05D9391509111FCCFC40ED11C06
:1058B00040E0ACCF01E0BACF80E3DBCF62177307E3
:1058C00031F4963388F4953311F4552369F0F601D9
:1058D0008083FD01842F90E2811108C0A40FB11DC7
:1058E0001C9290E080E0F3CE81E3F1CF9193815060
:1058F000F3CF911183CF8ACF283008F027E03327E8
:10590000DA01990F311D87FD9160009661057105DF
:1059100039F432602E5F3D9330E32A95E1F7089524
:105920009F3F30F080387105610509F03C5F3C5FB6
:105930003D93913008F08068911DDF93CF931F93C2
:105940000F93FF92EF92192F987F9695E92F9695D6
:105950009695E90FFF27EA50FE4F99273327EE244B
:10596000FF24A701E70105900894079428F4360F57
:10597000E71EF81E491F511D660F771F881F991FCC
:105980000694A1F70590079428F4E70EF81E491F26
:10599000561FC11D770F881F991F661F0694A1F718
:1059A0000590079428F4F80E491F561FC71FD11DF4
:1059B000880F991F661F771F0694A1F7059007941B
:1059C00020F4490F561FC71FD81F990F661F771F56
:1059D000881F0694A9F784911095177041F0D69509
:1059E000C79557954795F794E7941A95C1F7ECE951
:1059F000F1E0689415901591359165919591059018
:105A00007FE27395E118F10A430B560BC90BD009DD
:105A1000C0F7E10CF11E431F561FC91FD01D7EF4B5
:105A2000703311F48A95E6CFE894015030F0080FF6
:105A30000AF40027021708F4202F2395022F7A3347
:105A400028F079E37D932A95E9F710C07D932A9594
:105A500089F6069497956795379517951794E118E9
:105A6000F10A430B560BC90BD00998F023957E9190
:105A700073957A3308F070E37C932013B8F77E9126
:105A800070617D9330F0839571E37D9370E32A9587
:105A9000E1F71124EF90FF900F911F91CF91DF91CB
:105AA000992787FD90950895052E97FB1EF4009485
:105AB0000E946B2D57FD07D00E947E2D07FC03D05E
:105AC0004EF40C946B2D50954095309521953F4F99
:105AD0004F4F5F4F089590958095709561957F4FDA
