:100000000C9468010C9499010C9499010C94990139
:100010000C9499010C9499010C9499010C949901F8
:100020000C9499010C9499010C9499010C949901E8
:100030000C9499010C943C0A0C9499010C9499012C
:100040000C9499010C9499010C9499010C949901C8
:100050000C9499010C9499010C9499010C94F20957
:100060000C9499010C94C60A0C949C0A0C94990166
:100070000C9499010C9499010C9499010C94990198
:100080000C9499010C9499010C9499010C94990188
:100090000C9499010C9499010C9499010C94990178
:1000A0000C9499010C9499010C9499010C94990168
:1000B0000C9499010C9499010C9499010C94990158
:1000C0000C9499010C9499010C9499010C94990148
:1000D0000C9499010C9499010C9499010C94990138
:1000E0000C9499010C9487050C94E1050C94DE01A5
:1000F0000C94D8010C94E2010C94CE010C94FC0AEF
:100100000C94D4010C94FA010C9449060C94EC0163
:100110000C94A9050C949A060C94FE010C94CB0146
:100120000C949B050C9478050C94C3010C94440822
:100130000C94F4010C94C7010C94BF010C94E601DB
:100140000C949B060C94F0010C944B050C94F90153
:100150000C94B9013D3D3D20526566726967657238
:1001600061646F72614D6F6465726E612076332ECB
:100170003120E28094204D65676120323536302091
:100180003D3D3D002054696D65723D0020436F6D1B
:10019000703D0025205075657274613D0020483D1A
:1001A000002053503D005D20543D005B00000021C5
:1001B00000240027002A002D003000330001010038
:1001C00000040107010A0100002000230026002985
:1001D000002C002F0032000001000003010601097D
:1001E0000100000A0B02090C0D0E080703040100B0
:1001F00000000000000000000000000000000000FF
:1002000000000000000000000000000000121110BB
:1002100000000000000000000000000000000000DE
:10022000000000000000000102102020080810203B
:100230004010204080020102010804020101020472
:100240000810204080804020100804020180040231
:100250000180402010080402010804020101020488
:100260000810204080010204081020408000002275
:1002700000250028002B002E003100340002010070
:1002800000050108010B010505050507050808081B
:1002900008020202020A0A08080404040401010117
:1002A000010101010103030303030303030407071F
:1002B000070C0C0C0C0C0C0C0C02020202060606BD
:1002C00006060606060B0B0B0B0B0B0B0B02FC0AB0
:1002D00011241FBECFEFD1E2DEBFCDBF00E00CBFC7
:1002E00013E0A0E0B2E0ECE6FCE200E00BBF02C0ED
:1002F00007900D92A83EB107D9F724E0A8EEB3E02D
:1003000001C01D92AC3FB207E1F711E0C8E6D1E0B1
:1003100000E006C021970109802FFE010E941216FD
:10032000C736D10780E00807A9F70E94460B0C9456
:1003300034160C9400008150823108F05AC0E82F26
:10034000F0E08827E955FE4F8F4F0C941216C70135
:10035000CB01B901BF01C301F901CE01D401D8011C
:10036000DE01E201E601EC01F001F901F401FA011C
:10037000FE01809180008F778093800008958091A6
:1003800080008F7DF9CF80918000877FF5CF84B585
:100390008F7784BD089584B58F7DFBCF8091B000A9
:1003A0008F778093B00008958091B0008F7DF9CF52
:1003B000809190008F7780939000089580919000B5
:1003C0008F7DF9CF80919000877FF5CF8091A0003D
:1003D0008F778093A00008958091A0008F7DF9CF42
:1003E0008091A000877FF5CF809120018F77809347
:1003F00020010895809120018F7DF9CF8091200107
:10040000877FF5CFCF93DF93282F30E0F901EF51AD
:10041000FE4F8491F901E95DFD4FD491F901E9574F
:10042000FD4FC491CC23A1F081110E949B01EC2FC0
:10043000F0E0EE0FFF1FE953FE4FA591B491EC9150
:10044000ED2381E090E009F480E0DF91CF91089501
:1004500080E090E0FACF1F93CF93DF93282F30E016
:10046000F901EF51FE4F8491F901E95DFD4FD491FF
:10047000F901E957FD4FC491CC23A9F0162F811142
:100480000E949B01EC2FF0E0EE0FFF1FE359FD4FA0
:10049000A591B4918FB7F894EC91111108C0D09543
:1004A000DE23DC938FBFDF91CF911F910895DE2B68
:1004B000F8CFCF93DF9390E0FC01E95DFD4F2491ED
:1004C00089579D4FFC0184918823D1F090E0880FDB
:1004D000991FFC01E355FE4FA591B491FC01E3592E
:1004E000FD4FC591D491623071F49FB7F8943C915F
:1004F000822F809583238C93E8812E2B28839FBFA6
:10050000DF91CF9108958FB7F894EC912E2B2C9317
:100510008FBFF6CF4F925F926F927F928F929F9292
:10052000AF92BF92CF92DF92EF92FF920F931F9301
:10053000CF938C014A015B0180914B028F3199F07E
:100540008F3F09F453C0CF911F910F91FF90EF900F
:10055000DF90CF90BF90AF909F908F907F906F90E3
:100560005F904F900895EDECF2E0C491C7FDEBCFA2
:1005700061E08FE10E9459022801712C612CCC238B
:10058000F1F0980150E040E0C23009F003C12801C9
:100590003A0160E970ED83E090E00E94F315690193
:1005A0007A0181E0C81AD108E108F10893E08FEFE1
:1005B000C816D104E104F10409F00CF49FC168E409
:1005C00078EE81E090E0A30192010E94F3156901A9
:1005D0007A0181E0C81AD108E108F10894E0C1115C
:1005E0008DC185B5887F836085BDE9C08FE180932B
:1005F0004B02EDECF2E0C4918C2FCF3F09F4A3CF76
:10060000C23009F468C060F4CC2379F1C13009F438
:1006100044C087FD98CF61E08FE10E945902B1CFBD
:10062000C43009F499C008F478C0C53091F710922D
:100630002001109221018091210188608093210185
:1006400080912101816080932101E6EAF2E0E4914A
:10065000F0E0EE0FFF1FE359FD4F85919491E6E422
:10066000F2E0E491E093270483CF14BC15BC84B579
:10067000826084BD85B5816085BDE6EAF2E0E491E3
:10068000F0E0EE0FFF1FE359FD4F85919491E6E4F2
:10069000F2E0E491E0932E046BCF10928000109270
:1006A0008100809181008860809381008091810029
:1006B000816080938100E6EAF2E0E491F0E0EE0FE1
:1006C000FF1FE359FD4F85919491E6E4F2E0E49138
:1006D000E0932D044DCF1092B0001092B1008091A4
:1006E000B00082608093B0008091B10081608093FF
:1006F000B100E6EAF2E0E491F0E0EE0FFF1FE3590B
:10070000FD4F8591949190932C0480932B04E6E403
:10071000F2E0E491E0932A042BCF10929000109223
:100720009100809191008860809391008091910068
:10073000816080939100E6EAF2E0E491F0E0EE0F50
:10074000FF1FE359FD4F85919491E6E4F2E0E491B7
:10075000E0932904C3E00CCF1092A0001092A100F6
:100760008091A10088608093A1008091A1008160A8
:100770008093A100E6EAF2E0E491F0E0EE0FFF1FC3
:10078000E359FD4F85919491E6E4F2E0E491E09322
:100790002804EECE60E072E18AE790E00E94F31553
:1007A00069017A0181E0C81AD108E108F108C13075
:1007B00079F580918100887F816080938100D801E4
:1007C000AA0FBB1FA50194010E941A1628EE33E060
:1007D00040E050E00E94D115C23009F443C00CF053
:1007E00075C0CC2381F1C13009F0ADCED092890023
:1007F000C092880020933F0430934004409341040A
:100800005093420480916F00826080936F009BCE72
:10081000C33039F480919100887F8160809391008A
:10082000CECFC43039F48091A100887F816080935D
:10083000A100C5CFC53019F680912101887F816064
:1008400080932101BCCFC7BC209343043093440460
:10085000409345045093460480916E0082608093DB
:100860006E0071CEC092B30020933B0430933C04E1
:1008700040933D0450933E048091700082608093C9
:10088000700061CED0929900C092980020933704F6
:10089000309338044093390450933A0480917100A6
:1008A0008260809371004FCED092A900C092A800C0
:1008B000209333043093340440933504509336042A
:1008C000809172008260809372003DCEC43061F3EB
:1008D000CCF2C53009F037CED0922901C092280160
:1008E00020932F043093300440933104509332040A
:1008F0008091730082608093730025CE8091B10057
:10090000887F892B8093B1005ACF90917B00977F8D
:1009100090937B008653806480937C0080917A0062
:10092000806480937A0080917A0086FDFCCF80916C
:1009300078009091790008953FB7F894809123044E
:1009400090912404A0912504B091260426B5A89B7B
:1009500005C02F3F19F00196A11DB11D3FBFBA2F51
:10096000A92F982F8827BC01CD01620F711D811D11
:10097000911D42E0660F771F881F991F4A95D1F796
:1009800008958F929F92AF92BF92CF92DF92EF9293
:10099000FF924B015C010E949C046B017C010E9450
:1009A0009C046C197D098E099F09683E734081057E
:1009B0009105A8F321E0821A9108A108B10888EEF8
:1009C000C80E83E0D81EE11CF11C81149104A1041F
:1009D000B10429F7FF90EF90DF90CF90BF90AF90D8
:1009E0009F908F9008952FB7F89460911F04709195
:1009F000200480912104909122042FBF08959091AA
:100A00004B0289130DC0EDECF2E0E4919FEF90935F
:100A10004B02E230E1F038F4EE2381F0E13089F06E
:100A200060E00C942B02E43049F110F1E530C1F79D
:100A3000909173009D7F90937300F2CF10926E009F
:100A4000EFCF90916F009D7F90936F00E9CF9091D1
:100A500070009D7F9093700091E09093B000909112
:100A6000B100987F94609093B1001092B300D8CFFA
:100A7000909171009D7F90937100D2CF9091720000
:100A80009D7F90937200CCCFDC01ED91FC910190A1
:100A9000F081E02D1994AF92BF92CF92DF92EF9246
:100AA000FF920F931F93CF93DF936C017B018B0118
:100AB000040F151FEB015E01AE18BF08C017D10768
:100AC00059F06991D601ED91FC910190F081E02DF2
:100AD000C6011995892B79F7C501DF91CF911F9137
:100AE0000F91FF90EF90DF90CF90BF90AF9008955F
:100AF000FC01538D448D252F30E0842F90E0821B24
:100B0000930B541710F0CF96089501970895FC01A8
:100B1000918D828D981761F0A28DAE0FBF2FB11D00
:100B20005D968C91928D9F5F9F73928F90E0089558
:100B30008FEF9FEF0895FC01918D828D981731F012
:100B4000828DE80FF11D858D90E008958FEF9FEF66
:100B50000895FC01918D228D892F90E0805C9F4F3C
:100B6000821B91098F739927089587E494E00E946E
:100B7000A90521E0892B09F420E0822F0895FC01CA
:100B8000A48DA80FB92FB11DA35ABF4F2C91848DEE
:100B900090E001968F739927848FA689B7892C934B
:100BA000A089B1898C91837080648C93938D848D9E
:100BB000981306C00288F389E02D80818F7D8083A1
:100BC0000895EF92FF920F931F93CF93DF93EC0161
:100BD00081E0888F9B8D8C8D98131AC0E889F989E4
:100BE000808185FF15C09FB7F894EE89FF896083E7
:100BF000E889F98980818370806480839FBF81E068
:100C000090E0DF91CF911F910F91FF90EF900895A9
:100C1000F62E0B8D10E00F5F1F4F0F731127E02E84
:100C20008C8D8E110CC00FB607FCFACFE889F989BC
:100C3000808185FFF5CFCE010E94BF05F1CFEB8DFE
:100C4000EC0FFD2FF11DE35AFF4FF0829FB7F89490
:100C50000B8FEA89FB8980818062CFCF0F931F932E
:100C6000CF93DF938C01D0E0C0E0F801EC0FFD1FC3
:100C70006491662341F087E494E00E94E105892BAA
:100C800011F02196F2CFCE01DF91CF911F910F91FC
:100C90000895CF93DF93EC01888D8823B9F0AA895A
:100CA000BB89E889F9898C9185FD03C0808186FD27
:100CB0000DC00FB607FCF7CF8C9185FFF2CF808176
:100CC00085FFEDCFCE010E94BF05E9CFDF91CF9127
:100CD000089580E090E0892B29F00E94B5058111EC
:100CE0000E94000080E090E0892B49F080E090E0D5
:100CF000892B29F00E94000081110E94000080E0F1
:100D000090E0892B49F080E090E0892B29F00E9447
:100D1000000081110E94000080E090E0892B49F0E2
:100D200080E090E0892B29F00E94000081110C9452
:100D300000000895089590E080E008950F931F93B8
:100D4000CF93DF93EB010E940202892B31F080E008
:100D5000DF91CF911F910F9108950E94F304CC0F62
:100D6000DD1FCC0FDD1FC851DC4F088119812A819E
:100D70003B81601B710B820B930B653B71058105F9
:100D8000910528F30E94F304688379838A839B8307
:100D900081E0DECFCF93DF93EC0160E08E810E9493
:100DA0002B0261E08E810E942B0260E08E810E9406
:100DB0002B028BE891E00197F1F7DF91CF91089535
:100DC000CF92DF92EF92FF920F931F93CF93DF9317
:100DD0006C017C0187E0E80EF11CD0E0C0E0062F3A
:100DE00010E0B8010C2E02C0759567950A94E2F7E1
:100DF0006170F70181917F010E942B022196C4301E
:100E0000D10579F7C601DF91CF911F910F91FF9026
:100E1000EF90DF90CF900C94CA06CF92DF92EF92C2
:100E2000FF920F931F93CF93DF93EC01F62E642F65
:100E30008C810E942B028D818F3F19F060E00E940F
:100E40002B020F2D10E08F8584FF25C06E0187E0F7
:100E5000C80ED11CF12CE12CB8010E2C02C07595E6
:100E600067950A94E2F76170F60181916F010E9423
:100E70002B02FFEFEF1AFF0A88E0E816F10461F792
:100E8000CE01DF91CF911F910F91FF90EF90DF90F6
:100E9000CF900C94CA06B80184E0759567958A9541
:100EA000E1F7CE010E94E0066F2DCE01DF91CF91D8
:100EB0001F910F91FF90EF90DF90CF900C94E00680
:100EC00040E0682F84EE94E00C940D0781E00E94CE
:100ED00060078BE39FE10197F1F70895CF93DF93CC
:100EE000823029F49091F30498609093F3048093F6
:100EF000F7041092F80480E48093F90480E1809371
:100F0000FA0480E58093FB0461E08091E8040E948C
:100F100059028091E9048F3F19F061E00E94590263
:100F200061E08091EA040E945902C4EED4E09E017F
:100F3000245E34408091F30484FD0BC084E090E093
:100F400021962817390744F461E08E810E945902E6
:100F5000EECF88E090E0F4CF8BE39DE00197F1F7CE
:100F600060E08091E8040E942B0260E08091EA0436
:100F70000E942B028091E9048F3F19F060E00E94EB
:100F80002B028091F30484FD34C063E084EE94E08E
:100F90000E94E006CBE4D6E4CE010197F1F763E0CE
:100FA00084EE94E00E94E0062197F1F763E084EE7E
:100FB00094E00E94E00683E592E00197F1F762E099
:100FC00084EE94E00E94E0068091F30480620E9427
:100FD000600784E08093F4048CE00E9460070E9424
:100FE000660782E08093F50486E0DF91CF910C9450
:100FF000600780620E9460078BE496E40197F1F736
:101000008091F30480620E94600783E592E001977B
:10101000F1F78091F30480620E946007D5CF909130
:10102000F704891710F08FEF890FE82FF0E0EC51EB
:10103000FB4F848980680C9460070F931F93CF93B4
:10104000DF93D82FC92F80E00E940F080D2F1C2F8F
:10105000C0E0F80161918F01662341F0C03179F061
:10106000CF5F84EE94E00E944405F3CFCF5FC1319F
:1010700031F060E284EE94E00E944405F7CFDF9106
:10108000CF911F910F91089541E00E940D0781E0DB
:1010900090E008950F931F93CF93DF938B0128E087
:1010A000829FC001112480640E946007E801085FEC
:1010B0001F4F699184EE94E00E944408C017D10745
:1010C000C1F7DF91CF911F910F910895FB0101901E
:1010D0000020E9F73197AF01461B570BDC01ED917A
:1010E000FC910280F381E02D19948F929F92AF9230
:1010F000BF92EF92FF920F931F93CF93DF93CDB7E1
:10110000DEB7A1970FB6F894DEBF0FBECDBF7C014E
:10111000FA01CB0119A2223008F42AE08E010F5DFA
:101120001F4F822E912CB12CA12CBF01A50194013F
:101130000E94D115F901CA016A300CF5605DD80131
:101140006E938D01232B242B252B79F790E080E0E3
:10115000109721F0BD01C7010E946608A1960FB645
:10116000F894DEBF0FBECDBFDF91CF911F910F91DD
:10117000FF90EF90BF90AF909F908F900895695C23
:10118000DECFCF92DF92EF92FF920F931F93CF9318
:10119000DF936B01770FEE08FF08F7FE1BC0EC0131
:1011A0006DE20E9444058C0144275527BA014C1971
:1011B0005D096E097F092AE0CE010E947508800F43
:1011C000911FDF91CF911F910F91FF90EF90DF90D2
:1011D000CF9008952AE0B701A601DF91CF911F912A
:1011E0000F91FF90EF90DF90CF900C947508CF9304
:1011F000C82F8A3028F460E384EE94E00E9444050E
:101200004C2F50E070E060E02AE084EE94E0CF9153
:101210000C9475082F923F924F925F926F927F923B
:101220008F929F92AF92BF92CF92DF92EF92FF92F6
:101230001F93CF93DF93EC016A017B01722EAB0108
:101240009601CB01B6010E94A4156AE672E08111F5
:1012500026C046015701E894B7F82FEF3FEF4FE75C
:101260005FE7C501B4010E94A41581110CC02FEFE6
:101270003FEF4FE75FE7C501B4010E94D3136EE66D
:1012800072E0181664F02FEF3FEF4FE75FE4C701FD
:10129000B6010E9432151816B4F462E772E0CE016E
:1012A000DF91CF911F91FF90EF90DF90CF90BF9093
:1012B000AF909F908F907F906F905F904F903F90F6
:1012C0002F900C9466082FEF3FEF4FE75FECC701BC
:1012D000B6010E94D31387FDE0CF20E030E0A901E2
:1012E000C701B6010E94D313312C212C87FF09C0FE
:1012F0006DE2CE010E9444051C01F7FAF094F7F864
:10130000F09410E060E070E080E09FE3711641F03F
:1013100020E030E040E251E40E94D8131F5FF6CF96
:10132000A70196010E9467132B013C010E945114F2
:101330004B015C012AE0BC01A401CE010E947508AA
:101340007C01E20CF31C1123C1F1C501B4010E9420
:1013500080149B01AC01C301B2010E9466134B01D2
:101360005C016EE2CE010E944405E80EF91E1150A8
:1013700020F120E030E040E251E4C501B4010E94D8
:1013800037152B013C010E9451144B01B12CA12CAB
:101390002AE0B501A401CE010E947508E80EF91EED
:1013A000C501B4010E9480149B01AC01C301B201CC
:1013B0000E9466134B015C01DACFC701DF91CF9128
:1013C0001F91FF90EF90DF90CF90BF90AF909F90D4
:1013D0008F907F906F905F904F903F902F900895E7
:1013E0000C9466081F920F920FB60F9211242F9340
:1013F0003F938F939F93AF93BF9380911F049091DE
:101400002004A0912104B091220430911E0423E015
:10141000230F2D3758F50196A11DB11D20931E04F1
:1014200080931F0490932004A0932104B09322047E
:101430008091230490912404A0912504B091260466
:101440000196A11DB11D8093230490932404A093C1
:101450002504B0932604BF91AF919F918F913F9146
:101460002F910F900FBE0F901F90189526E8230F15
:101470000296A11DB11DD2CF1F920F920FB60F92EF
:1014800011240BB60F922F933F934F935F936F935B
:101490007F938F939F93AF93BF93EF93FF9380912D
:1014A0003B0490913C04A0913D04B0913E04892BF3
:1014B0008A2B8B2BE1F190912A04E0912B04F0917F
:1014C0002C0480818927808380913B0490913C0487
:1014D000A0913D04B0913E04181619061A061B0689
:1014E0009CF480913B0490913C04A0913D04B09108
:1014F0003E040197A109B10980933B0490933C04F9
:10150000A0933D04B0933E04FF91EF91BF91AF9142
:101510009F918F917F916F915F914F913F912F910B
:101520000F900BBE0F900FBE0F901F9018958091DB
:101530004B020E94FF04E8CF1F920F920FB60F924A
:1015400011240BB60F922F933F934F935F936F939A
:101550007F938F939F93AF93BF93EF93FF9387E412
:1015600094E00E94BF05FF91EF91BF91AF919F91D1
:101570008F917F916F915F914F913F912F910F903C
:101580000BBE0F900FBE0F901F9018951F920F92D9
:101590000FB60F9211240BB60F922F938F939F9338
:1015A000EF93FF93E0915704F09158048081E0910C
:1015B0005D04F0915E0482FD1DC090818091600405
:1015C0008F5F8F7320916104821741F0E091600476
:1015D000F0E0E95BFB4F958F80936004FF91EF9102
:1015E0009F918F912F910F900BBE0F900FBE0F9078
:1015F0001F9018958081F2CFE7E4F4E01382128205
:1016000088EE93E0A0E0B0E084839583A683B7835F
:1016100080E592E09183808385EC90E095878487D4
:1016200084EC90E09787868780EC90E0918B808BAC
:1016300081EC90E0938B828B82EC90E0958B848B95
:1016400086EC90E0978B868B118E128E138E148E03
:10165000E4EEF4E01382128282E692E091838083CA
:1016600086E184838FEF858387E1868388E18783A2
:1016700089E180878AE181878BE1828713861486DE
:1016800015861686178681E00C946E07CF93DF933C
:1016900000D01F92CDB7DEB7789484B5826084BD48
:1016A00084B5816084BD85B5826085BD85B5816066
:1016B00085BD80916E00816080936E0010928100E4
:1016C000809181008260809381008091810081609F
:1016D0008093810080918000816080938000809160
:1016E000B10084608093B1008091B00081608093EC
:1016F000B000809191008260809391008091910070
:10170000816080939100809190008160809390002F
:101710008091A10082608093A1008091A1008160EE
:101720008093A1008091A00081608093A0008091AF
:101730002101826080932101809121018160809349
:1017400021018091200181608093200180917A00A5
:10175000846080937A0080917A00826080937A001E
:1017600080917A00816080937A0080917A0080680D
:1017700080937A001092C100E0915704F0915804D0
:1017800082E08083E0915304F09154041082E09150
:101790005504F09156048FEC808310925F04E09121
:1017A0005B04F0915C0486E08083E0915904F09141
:1017B0005A04808180618083E0915904F0915A0439
:1017C000808188608083E0915904F0915A0480817F
:1017D00080688083E0915904F0915A0480818F7D64
:1017E000808384E591E00E942E0660EC72E087E43D
:1017F00094E00E94660882E00E946E0768E372E04F
:1018000080E00E944A0860E372E081E00E944A089A
:1018100068E272E082E00E944A0860E272E083E0DF
:101820000E944A0868E172E084E00E944A0860E190
:1018300072E085E00E944A0868E072E086E00E945B
:101840004A0860E072E087E00E944A0861E08EE1A9
:101850000E94590260E08EE10E942B0261E08FE15C
:101860000E94590260E08FE10E942B0261E080E259
:101870000E94590260E080E20E942B0261E081E256
:101880000E94590260E081E20E942B0261E082E244
:101890000E94590260E082E20E942B0262E087E32C
:1018A0000E94590262E088E20E94590262E089E2E5
:1018B0000E94590262E08AE20E94590262E08BE2D1
:1018C0000E9459020E94660780E00E940F0863ECA4
:1018D00072E084EE94E00E94F00981E00E940F081B
:1018E00064ED72E084EE94E00E94F00968E775E030
:1018F00080E090E00E94C1040E94660780E00E94A0
:101900000F0865EE72E084EE94E00E94F00981E039
:101910000E940F0866EF72E084EE94E00E94F009E6
:1019200060EB74E080E090E00E94C1040E946607D2
:101930000CE310E00E94F3046B017C0186E30E943B
:101940008504BC01990F880B990B0E94821420E03A
:1019500030EC4FE754E40E94D81320E030E048E434
:1019600052E40E94371520E030E040E251E40E944A
:1019700066134B015C0180921A0490921B04A092A2
:101980001C04B0921D0489E30E948504BC01990FD8
:10199000880B990B0E94821420E030EC4FE754E44E
:1019A0000E94D81320E030E048EC52E40E94371542
:1019B00060934702709348028093490290934A02D1
:1019C00087E30E9402029A83898333243394892B0C
:1019D00009F0312C309219042224239420E030E0C5
:1019E000A901609143027091440280914502909157
:1019F00046020E94D31318160CF4212C20921804CE
:101A0000209117042B83309116043C83222311F07C
:101A1000343019F188E30E948504BC01990F880BCA
:101A2000990B0E94821420E030EC4FE754E40E94AE
:101A3000D81320E030E048EC51E40E94371520E054
:101A400030E040E251E40E946613609343027093D9
:101A50004402809345029093460240904302509086
:101A60004402609045027090460220E030E040E081
:101A70005FE3C301B2010E9467139B01AC01C50182
:101A8000B4010E94321518160CF0A0C141E0409339
:101A9000150461E08EE10E942B0261E081E20E9468
:101AA0002B02622D82E20E942B02632D80E20E94B3
:101AB0002B0220911404322E222379F0C701B601A3
:101AC00028EB3BE040E050E00E94D11521E0603976
:101AD00071408105910508F020E0209313041092D5
:101AE000120489819A81892B09F08FC140910E04DB
:101AF00050910F046091100470911104452B462BF6
:101B0000472B41F4C0920E04D0920F04E0921004CF
:101B1000F092110440910E0450910F046091100452
:101B20007091110426013701441A550A660A770A92
:101B300091E1491697E259066104710408F45EC107
:101B4000E8E54E2EE2E05E2E612C712C80900A04B6
:101B500090900B04A0900C04B0900D04D701C60126
:101B600088199909AA09BB094C015D014814590457
:101B70006A047B0408F059C191E090931204C0926A
:101B80000A04D0920B04E0920C04F0920D0422237C
:101B900009F493C54CE251E060E070E080EE96E01D
:101BA0000E948A020E94F3048090F8039090F90347
:101BB000A090FA03B090FB03681979098A099B0980
:101BC000683E73408105910590F00E94F304609394
:101BD000F8037093F9038093FA039093FB038091C9
:101BE00000048F5F8C3308F03FC180930004809124
:101BF0000804882391F1A0900604B0900704A11472
:101C0000B10459F10E94F3044090FC035090FD038D
:101C10006090FE037090FF036419750986099709A7
:101C2000683E734081059105C0F00E94F304609303
:101C3000FC037093FD038093FE039093FF0351E038
:101C4000A51AB108B0920704A0920604AB2829F4A3
:101C50001092080481E0809314049B81992309F475
:101C600051C3AC81A53009F402C2A63009F4A9C25F
:101C7000A43009F044C387E093E00E941D0881E08E
:101C80000E940F0866E084EE94E00E94440862EA35
:101C900073E084EE94E00E94F00940914302509179
:101CA0004402609145027091460221E084EE94E086
:101CB0000E940A0960E084EE94E00E94440868E112
:101CC00073E084EE94E00E94F00961EA73E084EE30
:101CD00094E00E94F00965E084EE94E00E944408DC
:101CE0006AE173E084EE94E00E94F00970E060E045
:101CF00088E290E00E949E06882341F120E030E0D7
:101D000040E05FE36091430270914402809145029C
:101D1000909146020E9467134B015C0120E030E085
:101D200040E751E40E943215181634F4812C912CAE
:101D300090E7A92E91E4B92E80924302909244023A
:101D4000A0924502B09246020E94660761E070E0F0
:101D500089E290E00E949E06882341F120E030E075
:101D600040E05FE36091430270914402809145023C
:101D7000909146020E9466134B015C0120E030E026
:101D800040E251EC0E94D31387FF06C0812C912CB6
:101D900080E2A82E81ECB82E8092430290924402F9
:101DA000A0924502B09246020E94660762E070E08F
:101DB0008AE290E00E949E06882309F46CC010928B
:101DC0001704109216040E9466076DC020E030E0F0
:101DD00040E05FE3C301B2010E9466139B01AC01C6
:101DE000C501B4010E94D31387FF5BCE1092150486
:101DF00060E08EE10E942B0260E050CE34EC432E76
:101E000039E0532E612C712CA1CE10920E04109249
:101E10000F04109210041092110410920A041092F0
:101E20000B0410920C0410920D042111B3CE80917A
:101E300019048111B7CE3110B5CE8FE10E94FF0495
:101E4000B1CED701C601841B950BA60BB70B813110
:101E50009742A105B10508F436C488E795E044E649
:101E600050E060E070E09CCE10920004809101048C
:101E70008F5F8C3318F480930104B9CE1092010463
:101E8000809140028F5F883118F480934002AFCE7A
:101E900010924002ACCE63E070E08BE290E00E94D2
:101EA0009E0681118CCF8091020490910304A09131
:101EB0000404B0910504A7019601281B390B4A0BB5
:101EC0005B0BDA01C901893E9340A105B10508F415
:101ED000C5C0C0920204D0920304E0920404F092C0
:101EE00005048BEA91E00E942E06809140028A3020
:101EF00028F460E387E494E00E94440540914002A6
:101F000050E070E060E02AE087E494E00E94750809
:101F10006AE387E494E00E944405809101048A30DA
:101F200028F460E387E494E00E94440540910104B2
:101F300050E070E060E02AE087E494E00E947508D9
:101F40006AE387E494E00E944405809100048A30AB
:101F500028F460E387E494E00E9444054091000483
:101F600050E070E060E02AE087E494E00E947508A9
:101F700086EA91E00E942E0640911A0450911B04BB
:101F800060911C0470911D0421E087E494E00E949C
:101F90000A0981EA91E00E942E0640914302509185
:101FA0004402609145027091460221E087E494E08A
:101FB0000E940A098DE991E00E942E066091470275
:101FC000709148028091490290914A020E944A14FD
:101FD00087E494E00E94C10883E991E00E942E0604
:101FE0008091190461E4811101C063E487E494E005
:101FF0000E9444058CE891E00E942E068091150411
:1020000061E3811101C060E387E494E00E9444052C
:1020100084E891E00E942E06809108046DEB72E046
:10202000811102C064EA72E087E494E00E94F00942
:1020300060E287E494E00E944405409106045091D8
:10204000070470E060E02AE087E494E00E947508ED
:1020500060EC72E087E494E00E94660860E570E05E
:1020600080E090E00E94C1040E94690663CC80E099
:102070000E940F0880910904811184C085E293E0D9
:102080000E941D0881E00E940F0866E084EE94E043
:102090000E94440862EA73E084EE94E00E94F00932
:1020A000809140020E94F7086AE384EE94E00E9467
:1020B0004405809101040E94F70861EA73E084EE10
:1020C00094E00E94F00965E084EE94E00E944408E8
:1020D00067E473E084EE94E00E94F00970E060E051
:1020E00088E290E00E949E06882391F08091090486
:1020F00081114BC08091400290E0019668E170E050
:102100000E94BD1580934002109200040E94660751
:1021100061E070E089E290E00E949E06882381F0F1
:102120008091090481113BC08091400290E0479664
:1021300068E170E00E94BD15809340020E9466072E
:1021400062E070E08AE290E00E949E06882349F0F7
:102150008091090481112DC0B1E0B09309040E945F
:10216000660763E070E08BE290E00E949E068823A1
:1021700009F499CE109209041092170431E03093BB
:10218000160421CE86E393E07BCF8091010490E09A
:102190000196B8010E94BD1580930104B5CF8091CE
:1021A000010490E0CB96B8010E94BD158093010414
:1021B000C5CF109209041092170421E02093160451
:1021C000CECFA0904102B090420281E593E00E9400
:1021D0001D0881E00E940F0866E084EE94E00E94F2
:1021E000440862EA73E084EE94E00E94F009C501BD
:1021F000B8010E94A9158983862F0E94F7086AE317
:1022000084EE94E00E94440589810E94F70862EA06
:1022100073E084EE94E00E94F00965E084EE94E0BF
:102220000E94440862E673E084EE94E00E94F009A4
:1022300070E060E088E290E00E949E06882389F0CA
:102240008091410290914202CC96853347E19407F8
:1022500010F084E397E190934202809341020E9440
:10226000660761E070E089E290E00E949E068823A4
:1022700071F080914102909142028C33910528F0D7
:10228000CC9790934202809341020E94660762E0DD
:1022900070E08AE290E00E949E06882309F1209176
:1022A000410230914202309307042093060481E0FA
:1022B000232B09F480E080930804109214040E94F8
:1022C000F3046093FC037093FD038093FE039093EB
:1022D000FF031092170482E0809316040E946607A1
:1022E00063E070E08BE290E00E949E06882309F490
:1022F000DACD1092170482E08093160464CD109218
:102300001704D1CD70E060E088E290E00E949E0664
:10231000882351F05C81852F90E003968370992784
:10232000809316040E94660761E070E089E290E005
:102330000E949E06882351F08091160490E0019639
:1023400083709927809316040E94660762E070E00C
:102350008AE290E00E949E06882351F08091160444
:10236000813009F46AC008F461C0823009F46FC09A
:1023700080911604813009F417C108F482C08230BC
:1023800009F446C1833009F08ECD80E00E940F0829
:1023900062E084EE94E00E94440860EE73E084EE14
:1023A00094E00E94F0096091470270914802809188
:1023B000490290914A020E944A1484EE94E00E94DD
:1023C000C10865EE73E084EE94E00E94F00980910C
:1023D000180464E872E0811102C06DE872E084EED6
:1023E00094E00E94F00981E00E940F08809115049A
:1023F00066E972E0811102C06FE972E084EE94E058
:102400000E94F0098091190468EA72E0811102C00B
:1024100061EB72E084EE94E00E94F0098091080480
:102420006AEB72E0882309F48AC0EDC081E08093F2
:10243000170484E08093160407C08093170485E096
:1024400080931604109209040E94660791CF809130
:102450000804811109C080911404811105C091E024
:102460009093170486E0E6CF1092080410921404AB
:102470008091410290914202909307048093060458
:10248000E3CF80E00E940F0880911804882309F4AC
:1024900059C061E084EE94E00E9444086CE673E069
:1024A00084EE94E00E94F00940911A0450911B04BC
:1024B00060911C0470911D0421E084EE94E00E9460
:1024C0000A0960E084EE94E00E94440862EA73E046
:1024D00084EE94E00E94F00981E00E940F08809150
:1024E00019046EE773E081118EC06FE873E084EE2B
:1024F00094E00E94F009409143025091440260919F
:1025000045027091460221E084EE94E00E940A099F
:1025100060E084EE94E00E9444086BE773E084EE90
:1025200094E00E94F0098091150466E772E0811141
:1025300002C06DE772E084EE94E00E94F00961EA67
:1025400073E061C068E773E084EE94E00E94F009F4
:1025500040911A0450911B0460911C0470911D0459
:1025600021E084EE94E00E940A0960E084EE94E0A9
:102570000E9444086BE773E084EE94E00E94F00947
:1025800067E084EE94E00E944408809115046BE9B2
:1025900072E0811102C064EA72E084EE94E00E946D
:1025A000F0096EE973E094CF80E00E940F0864E0C8
:1025B00084EE94E00E94440863E973E084EE94E0C2
:1025C0000E94F00981E00E940F086FE973E084EE39
:1025D00094E00E94F009809140020E94F7086AE3AB
:1025E00084EE94E00E944405809101040E94F70863
:1025F0006AE384EE94E00E944405809100040E9406
:10260000F7086FE973E084EE94E00E94F0094BCC88
:1026100080E00E940F0863E084EE94E00E9444088A
:1026200064EA73E084EE94E00E94F00981E00E9485
:102630000F088091140465EB73E08111E4CF809161
:1026400008048823E9F0A0900604B090070461EA2A
:1026500073E084EE94E00E94F009C501B8010E9485
:10266000A9158983862F0E94F7086AE384EE94E017
:102670000E94440589810E94F70866EC73E0C3CF8D
:10268000A0904102B090420261EA73E084EE94E0CF
:102690000E94F009C501B8010E94A9158983862FFF
:1026A0000E94F7086AE384EE94E00E944405898161
:1026B0000E94F70863ED73E0A6CF4115510561054F
:1026C000710509F0BECB80E793E0C9CB5058BB271A
:1026D000AA270E947E130C94F8140E94EA1438F082
:1026E0000E94F11420F039F49F3F19F426F40C9461
:1026F000E7140EF4E095E7FB0C94E114E92F0E9437
:10270000091558F3BA17620773078407950720F075
:1027100079F4A6F50C942B150EF4E0950B2EBA2F38
:10272000A02D0B01B90190010C01CA01A0011124D7
:10273000FF27591B99F0593F50F4503E68F11A1683
:10274000F040A22F232F342F4427585FF3CF469514
:1027500037952795A795F0405395C9F77EF41F1636
:10276000BA0B620B730B840BBAF09150A1F0FF0F00
:10277000BB1F661F771F881FC2F70EC0BA0F621FEC
:10278000731F841F48F4879577956795B795F795DC
:102790009E3F08F0B0CF9395880F08F09927EE0F71
:1027A0009795879508950E94BD1408F481E00895D7
:1027B0000E94EC130C94F8140E94F11458F00E943B
:1027C000EA1440F029F45F3F29F00C94E114511110
:1027D0000C942C150C94E7140E94091568F39923A6
:1027E000B1F3552391F3951B550BBB27AA2762170D
:1027F0007307840738F09F5F5F4F220F331F441F1A
:10280000AA1FA9F335D00E2E3AF0E0E832D091504D
:102810005040E695001CCAF72BD0FE2F29D0660F3A
:10282000771F881FBB1F261737074807AB07B0E87D
:1028300009F0BB0B802DBF01FF2793585F4F3AF083
:102840009E3F510578F00C94E1140C942C155F3FD9
:10285000E4F3983ED4F3869577956795B795F79509
:102860009F5FC9F7880F911D9695879597F90895F1
:10287000E1E0660F771F881FBB1F6217730784078D
:10288000BA0720F0621B730B840BBA0BEE1F88F79C
:10289000E09508950E9451146894B1110C942C1580
:1028A00008950E94111588F09F5798F0B92F992725
:1028B000B751B0F0E1F0660F771F881F991F1AF02B
:1028C000BA95C9F714C0B13091F00E942B15B1E050
:1028D00008950C942B15672F782F8827B85F39F04F
:1028E000B93FCCF3869577956795B395D9F73EF4C4
:1028F00090958095709561957F4F8F4F9F4F08956C
:10290000E89409C097FB3EF4909580957095619589
:102910007F4F8F4F9F4F9923A9F0F92F96E9BB273F
:102920009395F695879577956795B795F111F8CFBB
:10293000FAF4BB0F11F460FF1BC06F5F7F4F8F4F26
:102940009F4F16C0882311F096E911C0772321F01C
:102950009EE8872F762F05C0662371F096E8862FB4
:1029600070E060E02AF09A95660F771F881FDAF70B
:10297000880F9695879597F90895990F0008550F38
:10298000AA0BE0E8FEEF16161706E807F907C0F0F5
:1029900012161306E407F50798F0621B730B840BFD
:1029A000950B39F40A2661F0232B242B252B21F4D7
:1029B00008950A2609F4A140A6958FEF811D811D77
:1029C000089597F99F6780E870E060E008959FEFB1
:1029D00080EC089500240A941616170618060906B6
:1029E000089500240A941216130614060506089585
:1029F000092E0394000C11F4882352F0BB0F40F40D
:102A0000BF2B11F460FF04C06F5F7F4F8F4F9F4F4C
:102A1000089557FD9058440F551F59F05F3F71F0CE
:102A20004795880F97FB991F61F09F3F79F0879535
:102A30000895121613061406551FF2CF4695F1DFBE
:102A400008C0161617061806991FF1CF869571054E
:102A5000610508940895E894BB2766277727CB0182
:102A600097F908950E94BD1408F48FEF08950E940D
:102A70004A150C94F8140E94EA1438F00E94F114DC
:102A800020F0952311F00C94E1140C94E714112418
:102A90000C942C150E94091570F3959FC1F3950FA6
:102AA00050E0551F629FF001729FBB27F00DB11DD2
:102AB000639FAA27F00DB11DAA1F649F6627B00D62
:102AC000A11D661F829F2227B00DA11D621F739F4B
:102AD000B00DA11D621F839FA00D611D221F749F59
:102AE0003327A00D611D231F849F600D211D822FA0
:102AF000762F6A2F11249F5750409AF0F1F08823C7
:102B00004AF0EE0FFF1FBB1F661F771F881F9150F3
:102B10005040A9F79E3F510580F00C94E1140C94AD
:102B20002C155F3FE4F3983ED4F38695779567952F
:102B3000B795F795E7959F5FC1F7FE2B880F911D1D
:102B40009695879597F908950E94BD14880B990B67
:102B50000895AA1BBB1B51E107C0AA1FBB1FA617E4
:102B6000B70710F0A61BB70B881F991F5A95A9F736
:102B700080959095BC01CD01089597FB072E16F422
:102B8000009407D077FD09D00E94A91507FC05D055
:102B90003EF4909581959F4F0895709561957F4F74
:102BA0000895A1E21A2EAA1BBB1BFD010DC0AA1F8E
:102BB000BB1FEE1FFF1FA217B307E407F50720F0A6
:102BC000A21BB30BE40BF50B661F771F881F991F21
:102BD0001A9469F760957095809590959B01AC016A
:102BE000BD01CF010895052E97FB1EF400940E94AD
:102BF0000A1657FD07D00E94D11507FC03D04EF4EA
:102C00000C940A1650954095309521953F4F4F4FA3
:102C10005F4F089590958095709561957F4F8F4F88
:102C20009F4F0895EE0FFF1F881F8BBF0790F691EF
:102C3000E02D19940E942516A59F900DB49F900D2C
:102C4000A49F800D911D11240895A29FB001B39FF0
:102C5000C001A39F700D811D1124911DB29F700DA5
:0C2C6000811D1124911D0895F894FFCFF0
:102C6C000E11110A040A1100040404041F0E0400BE
:102C7C00040E1F0404040400000E1517110E0000AE
:102C8C00040E0E0E1F00040004040A1111110E0094
:102C9C0004150E1F0E15040006090906000000009D
:102CAC000C2C010000A04000004842FF0000000076
:102CBC00E1054B0578054906A90587059B0500002C
:102CCC00000044084B059B069A066E616E00696E07
:102CDC0066006F7666005B454E46525D005B4F4B5F
:102CEC005D2020005B465245455A455D005B4652CF
:102CFC00494447455D00434F4D503A4F4E200043E9
:102D0C004F4D503A4F464600205054413A414254A0
:102D1C0000205054413A434552002054004F4E007D
:102D2C000D0A002020526566726967657261646FD6
:102D3C007261200020204D6F6465726E61207633C5
:102D4C002E312020002041726475696E6F204D6514
:102D5C00676120202000202032353630202052653B
:102D6C0061647921202000414A555354415220532B
:102D7C004554504F494E54004300204F4B3D4F4B50
:102D8C002020202000416A757374617220484F52D4
:102D9C00413A20202000416A7573746172204D49BC
:102DAC004E55544F3A2000204F4B3D53696720201D
:102DBC0000414A55535441522054494D455220200C
:102DCC002000204F4B3D496E69632000434F4E4716
:102DDC00454C41444F522000543A004320002150AE
:102DEC0055455254412041424945525441210053CA
:102DFC00503A002020202052454C4F4A20202020C1
:102E0C00202020002054454D504F52495A41444FE8
:102E1C00522020200020202A2A204C4953544F2194
:102E2C00202A2A20200020436F727269656E646F1D
:102E3C00202000205B50617261646F5D20202000B7
:082E4C0048756D3A00252000D5
:00000001FF
