:020000040000FA
:100000000C94C5040C94F6040C94F6040C94F604B9
:100010000C94F6040C94F6040C94F6040C94F60478
:100020000C94F6040C94F6040C94F6040C94F60468
:100030000C94F6040C94AB200C94F6040C94F60487
:100040000C94F6040C94F6040C94F6040C94F60448
:100050000C94F6040C94F6040C94F6040C946120B1
:100060000C94F6040C9435210C940B210C94F6049A
:100070000C94F6040C94F6040C94F6040C94F60418
:100080000C94F6040C94F6040C94F6040C94F60408
:100090000C94F6040C94F6040C94F6040C946B2166
:1000A0000C94F6040C94F6040C94F6040C94F604E8
:1000B0000C94F6040C94F6040C94F6040C94F604D8
:1000C0000C94F6040C94F6040C94F6040C94F604C8
:1000D0000C94F6040C94F6040C94F6040C94F604B8
:1000E0000C94F60405A84CCDB2D44EB93836A9020A
:1000F0000C50B9918688083CA6AAAA2ABE00000026
:10010000803F0C948B220C94AF090C94A2140C9495
:10011000471D0C9431050C94C9160C94AC080C9432
:10012000D9080C94FA0D0C945B050C9451050C94B1
:10013000E60A0C9443140C94FC080C94BF0F0C9426
:1001400028050C9420050C94CA160C941A150C94CE
:100150004D050C9424050C946C100C9462100C94B6
:100160001C050C9443050C9456050C94560F0C94E6
:10017000F5100C9416050C94E8080C94740B0C9470
:1001800071130C943B050C941D160C94890D0C9462
:1001900057050C942B050C94180D0C94F10F0C942E
:1001A0003F050C9442090C9449050C94160F0C94CD
:1001B00035050C94070D0C940A0900407A10F35A87
:1001C00000A0724E18090010A5D4E80000E8764897
:1001D000170000E40B54020000CA9A3B000000E143
:1001E000F505000080969800000040420F000000D6
:1001F000A08601000000102700000000E8030000B6
:1002000000006400000000000A000000000001007F
:10021000000000002C76D888DC674F0823DFC1DFA0
:10022000AE59E1B1B796E5E3E453C63AE6519976A3
:1002300096E8E6C28426EB898C9B62ED407C6FFCDD
:10024000EFBC9C9F40F2BAA56FA5F490055A2AF71F
:100250005C936B6CF9676DC11BFCE0E40D47FEF528
:1002600020E6B500D0ED902E030094357705008090
:10027000841E080000204E0A000000C80C333333EF
:10028000330F986E12831141EF8D2114893BE6558F
:1002900016CFFEE6DB18D1844B381BF77C1D901D72
:1002A000A4BBE424203284725E228100C9F124ECD4
:1002B000A1E53D2700000000003E5B4F5B3E3E6B2A
:1002C0004F6B3E1C3E7C3E1C183C7E3C181C577DF0
:1002D000571C1C5E7F5E1C00183C1800FFE7C3E73C
:1002E000FF0018241800FFE7DBE7FF30483A060E4E
:1002F0002629792926407F050507407F05253F5A95
:100300003CE73C5A7F3E1C1C08081C1C3E7F142204
:100310007F22145F5F005F5F06097F017F006689AF
:10032000956A606060606094A2FFA29408047E04F5
:100330000810207E201008082A1C08081C2A08081B
:100340001E101010100C1E0C1E0C30383E383006DB
:100350000E3E0E06000000000000005F00000007D7
:10036000000700147F147F14242A7F2A1223130805
:10037000646236495620500008070300001C2241E1
:10038000000041221C002A1C7F1C2A08083E080885
:100390000080703000080808080800006060002035
:1003A000100804023E5149453E00427F4000724918
:1003B0004949462141494D331814127F10274545BC
:1003C00045393C4A494931412111090736494949D2
:1003D00036464949291E0000140000004034000040
:1003E00000081422411414141414004122140802A9
:1003F000015909063E415D594E7C1211127C7F491C
:100400004949363E414141227F4141413E7F494970
:1004100049417F090909013E414151737F0808089C
:100420007F00417F41002040413F017F081422416D
:100430007F404040407F021C027F7F0408107F3EC7
:100440004141413E7F090909063E4151215E7F0934
:10045000192946264949493203017F01033F40409B
:10046000403F1F2040201F3F4038403F6314081486
:100470006303047804036159494D43007F414141BE
:100480000204081020004141417F0402010204409F
:1004900040404040000307080020545478407F2823
:1004A0004444383844444428384444287F38545419
:1004B000541800087E090218A4A49C787F0804043C
:1004C0007800447D40002040403D007F10284400DB
:1004D00000417F40007C047804787C08040478386C
:1004E00044444438FC1824241818242418FC7C089C
:1004F000040408485454542404043F44243C404019
:10050000207C1C2040201C3C4030403C44281028CB
:10051000444C9090907C4464544C44000836410014
:100520000000770000004136080002010204023C8E
:100530002623263C1EA1A161123A4040207A38545D
:1005400054555921555579412254547842215554D6
:10055000784020545579400C1E5272123955555529
:1005600059395454545939555454580000457C4114
:100570000002457D420001457C407D1211127DF054
:10058000282528F07C545545002054547C547C0A7E
:10059000097F4932494949323A4444443A324A4847
:1005A00048303A4141217A3A42402078009DA0A04B
:1005B0007D3D4242423D3D4040403D3C24FF24249D
:1005C000487E4943662B2FFC2F2BFF0929F620C0BC
:1005D000887E090320545479410000447D4130480D
:1005E000484A32384040227A007A0A0A727D0D1950
:1005F000317D2629292F28262929292630484D40B2
:1006000020380808080808080808382F10C8ACBAAD
:100610002F102834FA00007B000008142A1422222C
:10062000142A14085500550055AA55AA55AAFF5575
:10063000FF55FF000000FF00101010FF00141414FD
:10064000FF001010FF00FF1010F010F0141414FC45
:10065000001414F700FF0000FF00FF1414F404FC62
:10066000141417101F10101F101F1414141F001043
:100670001010F0000000001F101010101F101010BC
:1006800010F010000000FF101010101010101010CB
:10069000FF10000000FF140000FF00FF00001F100B
:1006A000170000FC04F414141710171414F404F4C5
:1006B0000000FF00F714141414141414F700F714B6
:1006C0001414171410101F101F141414F414101005
:1006D000F010F000001F101F0000001F14000000A9
:1006E000FC140000F010F01010FF10FF141414FFA1
:1006F000141010101F00000000F010FFFFFFFFFF9C
:10070000F0F0F0F0F0FFFFFF0000000000FFFF0F2F
:100710000F0F0F0F3844443844FC4A4A4A347E02D3
:10072000020606027E027E02635549416338444454
:100730003C04407E201E2006027E020299A5E7A509
:10074000991C2A492A1C4C7201724C304A4D4D307A
:100750003048784830BC625A463D3E494949007E9F
:100760000101017E2A2A2A2A2A44445F4444405136
:100770004A444040444A51400000FF0103E080FFEA
:10078000000008086B6B083612362436060F090F76
:1007900006000018180000001010003040FF010192
:1007A000001F01011E00191D1712003C3C3C3C00BB
:1007B00000000000EF03038002CF0300C130ED040E
:1007C00064031281E803850078CB05392C003402DC
:1007D000F70120EA020000C00123C10110C5023E5A
:1007E00028C701863601483701003A0155B1020099
:1007F00018B603088227F20100260101E00F0F312D
:100800002B0C0E084EF1370710030E0900E10F0004
:100810000E1403110731C148080F0C31360F118037
:100820002980003D3D3D20526566726967657261B1
:10083000646F72614D6F6465726E6120544654201E
:1008400076352E30203D3D3D0020546D3D00204347
:100850003D002520503D0020483D002053503D00E4
:100860005D20543D005B0000002100240027002A89
:10087000002D003000330001010000040107010ACF
:1008800001000020002300260029002C002F003248
:10089000000001000003010601090100000A0B022B
:1008A000090C0D0E08070304010000000000000001
:1008B0000000000000000000000000000000000038
:1008C00000000000000000121110000000000000F5
:1008D0000000000000000000000000000000000018
:1008E0000002010210202008081020401020408043
:1008F00002010201080402010102040810204080E4
:100900008040201008040201800402018040201071
:1009100008040201080402010102040810204080BA
:100920000102040810204080000022002500280059
:100930002B002E00310034000201000005010801E7
:100940000B01050505050705080808080202020253
:100950000A0A08080404040401010101010101015B
:100960000303030303030303040707070C0C0C0C26
:100970000C0C0C0C0202020206060606060606060F
:100980000B0B0B0B0B0B0B0B8B2211241FBECFEF92
:10099000D1E2DEBFCDBF00E00CBF14E0A0E0B2E0CA
:1009A000EAE0FBE700E00BBF02C007900D92A23C1B
:1009B000B107D9F726E0A2ECB4E001C01D92AE3732
:1009C000B207E1F714E0C5ECD4E000E006C02197DF
:1009D0000109802FFE010E94913AC43CD10780E0BA
:1009E0000807A9F70E9458230C94833D0C9400003B
:1009F0008150823108F05AC0E82FF0E08827EC5F80
:100A0000FA4F8F4F0C94913A2405280516051C05C2
:100A1000200556052B05310535053B053F054305EA
:100A200049054D055605510557055B058091800028
:100A30008F77809380000895809180008F7DF9CF1B
:100A400080918000877FF5CF84B58F7784BD08952E
:100A500084B58F7DFBCF8091B0008F778093B000FD
:100A600008958091B0008F7DF9CF809190008F77AD
:100A7000809390000895809190008F7DF9CF8091B0
:100A80009000877FF5CF8091A0008F778093A000A2
:100A900008958091A0008F7DF9CF8091A000877F7D
:100AA000F5CF809120018F77809320010895809168
:100AB00020018F7DF9CF80912001877FF5CFCF93E3
:100AC000DF93282F30E0F901E556F74F8491F901C3
:100AD000EE51F74FD491F901EE5BF64FC491CC2360
:100AE000A1F081110E94F804EC2FF0E0EE0FFF1F3F
:100AF000EF57F74FA591B491EC91ED2381E090E091
:100B000009F480E0DF91CF91089580E090E0FACF82
:100B10001F93CF93DF93282F30E0F901E556F74F6D
:100B20008491F901EE51F74FD491F901EE5BF64F44
:100B3000C491CC23A9F0162F81110E94F804EC2F48
:100B4000F0E0EE0FFF1FE85DF64FA591B4918FB76F
:100B5000F894EC91111108C0D095DE23DC938FBF7F
:100B6000DF91CF911F910895DE2BF8CFCF93DF93C4
:100B700090E0FC01EE51F74F24918E5B964FFC0103
:100B800084918823C9F090E0880F991FFC01E959EE
:100B9000F74FA591B491FC01E85DF64FC591D49152
:100BA00061110DC09FB7F8948C91209582238C938E
:100BB0008881282328839FBFDF91CF9108956230D9
:100BC00051F49FB7F8943C91822F809583238C93A6
:100BD000E8812E2BEFCF8FB7F894EC912E2B2C932E
:100BE0008FBFEACF4F925F926F927F928F929F92C8
:100BF000AF92BF92CF92DF92EF92FF920F931F932B
:100C0000CF938C014A015B01809129028F3199F0C9
:100C10008F3F09F453C0CF911F910F91FF90EF9038
:100C2000DF90CF90BF90AF909F908F907F906F900C
:100C30005F904F900895E1EEF8E0C491C7FDEBCFCF
:100C400061E08FE10E94B6052801712C612CCC2354
:100C5000F1F0980150E040E0C23009F003C12801F2
:100C60003A0160E970ED83E090E00E943B37690152
:100C70007A0181E0C81AD108E108F10893E08FEF0A
:100C8000C816D104E104F10409F00CF49FC168E432
:100C900078EE81E090E0A30192010E943B37690168
:100CA0007A0181E0C81AD108E108F10894E0C11185
:100CB0008DC185B5887F836085BDE9C08FE1809354
:100CC0002902E1EEF8E0C4918C2FCF3F09F4A3CFC5
:100CD000C23009F468C060F4CC2379F1C13009F462
:100CE00044C087FD98CF61E08FE10E94B605B1CF87
:100CF000C43009F499C008F478C0C53091F7109257
:100D000020011092210180912101886080932101AE
:100D100080912101816080932101E1E6F9E0E49175
:100D2000F0E0EE0FFF1FE85DF64F85919491E1E052
:100D3000F9E0E491E0937D0583CF14BC15BC84B544
:100D4000826084BD85B5816085BDE1E6F9E0E4910E
:100D5000F0E0EE0FFF1FE85DF64F85919491E1E022
:100D6000F9E0E491E09384056BCF1092800010923B
:100D70008100809181008860809381008091810052
:100D8000816080938100E1E6F9E0E491F0E0EE0F0C
:100D9000FF1FE85DF64F85919491E1E0F9E0E49161
:100DA000E09383054DCF1092B0001092B100809176
:100DB000B00082608093B0008091B1008160809328
:100DC000B100E1E6F9E0E491F0E0EE0FFF1FE85D2D
:100DD000F64F859194919093820580938105E1E08F
:100DE000F9E0E491E09380052BCF109290001092EF
:100DF0009100809191008860809391008091910092
:100E0000816080939100E1E6F9E0E491F0E0EE0F7B
:100E1000FF1FE85DF64F85919491E1E0F9E0E491E0
:100E2000E0937F05C3E00CCF1092A0001092A100C8
:100E30008091A10088608093A1008091A1008160D1
:100E40008093A100E1E6F9E0E491F0E0EE0FFF1FEE
:100E5000E85DF64F85919491E1E0F9E0E491E0934B
:100E60007E05EECE60E072E18AE790E00E943B37BB
:100E700069017A0181E0C81AD108E108F108C1309E
:100E800079F580918100887F816080938100D8010D
:100E9000AA0FBB1FA50194010E945A3728EE33E028
:100EA00040E050E00E946537C23009F443C00CF0C6
:100EB00075C0CC2381F1C13009F0ADCED09289004C
:100EC000C09288002093950530939605409397052E
:100ED0005093980580916F00826080936F009BCE45
:100EE000C33039F480919100887F816080939100B4
:100EF000CECFC43039F48091A100887F8160809387
:100F0000A100C5CFC53019F680912101887F81608D
:100F100080932101BCCFC7BC2093990530939A05DB
:100F200040939B0550939C0580916E008260809356
:100F30006E0071CEC092B30020939105309392055C
:100F40004093930550939405809170008260809344
:100F5000700061CED0929900C092980020938D05C8
:100F600030938E0540938F055093900580917100CA
:100F70008260809371004FCED092A900C092A800E9
:100F80002093890530938A0540938B0550938C05F7
:100F9000809172008260809372003DCEC43061F314
:100FA000CCF2C53009F037CED0922901C092280189
:100FB00020938505309386054093870550938805D7
:100FC0008091730082608093730025CE8091B10080
:100FD000887F892B8093B1005ACF90917B00977FB7
:100FE00090937B008653806480937C0080917A008C
:100FF000806480937A0080917A0086FDFCCF809196
:1010000078009091790008953FB7F8948091790520
:1010100090917A05A0917B05B0917C0526B5A89B9F
:1010200005C02F3F19F00196A11DB11D3FBFBA2F7A
:10103000A92F982F8827BC01CD01620F711D811D3A
:10104000911D42E0660F771F881F991F4A95D1F7BF
:1010500008958F929F92AF92BF92CF92DF92EF92BC
:10106000FF924B015C010E9404086B017C010E940D
:1010700004086C197D098E099F09683E734081053B
:101080009105A8F321E0821A9108A108B10888EE21
:10109000C80E83E0D81EE11CF11C81149104A10448
:1010A000B10429F7FF90EF90DF90CF90BF90AF9001
:1010B0009F908F9008952FB7F89460917505709167
:1010C000760580917705909178052FBF08959091CE
:1010D000290289130DC0E1EEF8E0E4919FEF9093AF
:1010E0002902E230E1F038F4EE2381F0E13089F0BA
:1010F00060E00C948805E43049F110F1E530C1F767
:10110000909173009D7F90937300F2CF10926E00C8
:10111000EFCF90916F009D7F90936F00E9CF9091FA
:1011200070009D7F9093700091E09093B00090913B
:10113000B100987F94609093B1001092B300D8CF23
:10114000909171009D7F90937100D2CF9091720029
:101150009D7F90937200CCCFAF92BF92CF92DF92DF
:10116000EF92FF920F931F93CF93DF936C017B015C
:101170008B01040F151FEB015E01AE18BF08C017ED
:10118000D10759F06991D601ED91FC910190F08160
:10119000E02DC6011995892B79F7C501DF91CF9113
:1011A0001F910F91FF90EF90DF90CF90BF90AF9085
:1011B0000895FC01538D448D252F30E0842F90E05D
:1011C000821B930B541710F0CF9608950197089542
:1011D000FC01918D828D981761F0A28DAE0FBF2F0B
:1011E000B11D5D968C91928D9F5F9F73928F90E061
:1011F00008958FEF9FEF0895FC01918D828D9817D0
:1012000031F0828DE80FF11D858D90E008958FEF0C
:101210009FEF0895FC01918D228D892F90E0805CD5
:101220009F4F821B91098F73992708958DE995E04F
:101230000E940A0921E0892B09F420E0822F0895F9
:10124000FC01A48DA80FB92FB11DA35ABF4F2C913B
:10125000848D90E001968F739927848FA689B78932
:101260002C93A089B1898C91837080648C93938D29
:10127000848D981306C00288F389E02D80818F7DCC
:1012800080830895EF92FF920F931F93CF93DF9384
:10129000EC0181E0888F9B8D8C8D98131AC0E889B2
:1012A000F989808185FF15C09FB7F894EE89FF8981
:1012B0006083E889F98980818370806480839FBF1F
:1012C00081E090E0DF91CF911F910F91FF90EF901F
:1012D0000895F62E0B8D10E00F5F1F4F0F7311272F
:1012E000E02E8C8D8E110CC00FB607FCFACFE8896A
:1012F000F989808185FFF5CFCE010E942009F1CFC9
:10130000EB8DEC0FFD2FF11DE35AFF4FF0829FB7DD
:10131000F8940B8FEA89FB8980818062CFCF0F938D
:101320001F93CF93DF938C01D0E0C0E0F801EC0F66
:10133000FD1F6491662341F08DE995E00E9442090A
:10134000892B11F02196F2CFCE01DF91CF911F9121
:101350000F910895682F8DE995E00C944209CF9381
:10136000DF93EC01888D8823B9F0AA89BB89E889CD
:10137000F9898C9185FD03C0808186FD0DC00FB673
:1013800007FCF7CF8C9185FFF2CF808185FFEDCFF1
:10139000CE010E942009E9CFDF91CF91089580E02E
:1013A00090E0892B29F00E94160981110E9400000B
:1013B00080E090E0892B49F080E090E0892B29F0D3
:1013C0000E94000081110E94000080E090E0892BC3
:1013D00049F080E090E0892B29F00E940000811103
:1013E0000E94000080E090E0892B49F080E090E0CE
:1013F000892B29F00E94000081110C9400000895AF
:101400002091F904260F3327331F21323105ECF4E4
:1014100020911D05FC0190E080E0243069F082E01D
:101420000895A091F9042191AC0147525B4FA40F9C
:10143000B52FB11D2C930196861798F38091F9046E
:10144000680F6093F90480E0089581E0089508959D
:101450008FEF9FEF08958FEF9FEF08958091D20453
:1014600090E09195819591090895CF93DF93CB01F9
:10147000EA01642F0E94000ACE01DF91CF91089506
:10148000CF93DF931F92CDB7DEB7698361E0CE01C2
:1014900001960E94000A81E090E00F90DF91CF91C9
:1014A0000895FC01A5A1B6A18C9192A589238C93E6
:1014B000A5A1B6A18C9191A5892B8C9308950F932A
:1014C0001F93CF93DF93EC018B018DA981110DC088
:1014D0001EBD0DB407FEFDCF0EBD0DB407FEFDCF42
:1014E000DF91CF911F910F9108958130E9F480E150
:1014F000E9A1FAA1908117FF14C02DA1922B90832E
:10150000EBA1FCA190812FA1922B9083EBA1FCA1D8
:10151000908128A592239083000F111F815041F7DD
:10152000DFCF2EA19223EBCFEF8DF8A11083CE0158
:101530000E94510AEF8DF8A10083CE01DF91CF9177
:101540001F910F910C94510AFC0185A9811105C0CE
:101550006EBD0DB407FEFDCF08958130E1F488E043
:10156000A1A1B2A19C9167FF13C025A1922B9C93CE
:10157000A3A1B4A19C9127A1922B9C93660FA3A138
:10158000B4A19C9120A592239C93815049F7089582
:1015900026A19223ECCFA78DB0A16C93CF010C9420
:1015A000510ACF93DF93EC01ED8DFE8D80819CA9D4
:1015B00089238083CE010E94A40AED8DFE8D808157
:1015C0009BA9892B8083DF91CF910895AF92BF9221
:1015D000CF92DF92EF92FF920F931F93CF93DF93FF
:1015E000EC015B016A01215031097901E60EF71E19
:1015F00001501109040F151F8091060290910702F6
:101600008617970739F480910402909105028E1590
:101610009F05A1F06AE2CE010E94D10AB501CE0178
:101620000E945F0AB701CE010E945F0AB0920702D2
:10163000A0920602F0920502E0920402809102025A
:10164000909103028C159D0539F4809100029091D0
:10165000010280179107A1F06BE2CE010E94D10A2E
:10166000B601CE010E945F0AB801CE010E945F0A56
:10167000D0920302C0920202109301020093000272
:101680006CE2CE01DF91CF911F910F91FF90EF900F
:10169000DF90CF90BF90AF900C94D10AFC0185A948
:1016A000811104C091A182A19CBD8DBD08951F939D
:1016B000CF93DF93EC01162FE881F9810284F38543
:1016C000E02D1995112371F06DADCE010E94D10A64
:1016D000E881F9810688F789E02DCE01DF91CF916D
:1016E0001F9119946EADF1CFAF92BF92CF92DF925E
:1016F000EF92FF920F931F93CF93DF93EC0177FD4F
:1017000038C088859985681779079CF557FD31C0E1
:101710008A859B854817590764F569017A015B0141
:10172000E881F9810284F385E02DCE011995E881E5
:10173000F98102A4F3A5E02D01E010E021E030E002
:10174000A701B501CE011995B601CE010E945F0A2D
:10175000E881F9810688F789E02DCE01DF91CF91EC
:101760001F910F91FF90EF90DF90CF90BF90AF90BF
:101770001994DF91CF911F910F91FF90EF90DF901F
:10178000CF90BF90AF9008958F929F92AF92BF92EB
:10179000CF92DF92EF92FF920F931F93CF93DF933D
:1017A000EC0149015701E881F98102A4F3A5E02D7C
:1017B00019959401D8010E94993A6B017C01C114DA
:1017C000D104E104F10409F490C08DA9811115C080
:1017D00081E0C81AD108E108F1088FEFC816D806D1
:1017E000E806F80609F481C0BEBC0DB407FEFDCFC3
:1017F000AEBC0DB407FEFDCFEBCF813009F045C084
:1018000081E0C81AD108E108F1088FEFC816D806A0
:10181000E806F80609F469C09B2D88E0E9A1FAA161
:10182000208197FF2CC03DA1232B2083EBA1FCA19D
:1018300020813FA1232B2083EBA1FCA1208138A58F
:1018400023232083990F815049F79A2D88E0E9A13D
:10185000FAA1208197FF16C03DA1232B2083EBA185
:10186000FCA120813FA1232B2083EBA1FCA120819F
:1018700038A523232083990F815049F7C1CF3EA17A
:101880002323D3CF3EA12323E9CFBA1016C0CC0C1B
:10189000DD1CEE1CFF1CEF8DF8A1B08281E0C81AA0
:1018A000D108E108F1088FEFC816D806E806F80657
:1018B000E1F0CE010E94510AF1CF81E0C81AD108AF
:1018C000E108F1088FEFC816D806E806F80669F0B7
:1018D000EF8DF8A1B082CE010E94510AEF8DF8A1E0
:1018E000A082CE010E94510AE8CFDF91CF911F91D3
:1018F0000F91FF90EF90DF90CF90BF90AF909F90AF
:101900008F9008958F929F92AF92BF92CF92DF9265
:10191000EF92FF920F931F93CF93DF934C01EB0154
:101920006A01590137FF07C0C9010196C80FD91FC5
:10193000B194A194B108F401A085B185CA17DB0761
:101940000CF058C017FF07C0C8010196C80ED91E79
:10195000119501951109F40182859385C816D90660
:101960000CF048C0FE01EA0DFB1DAF0141505109CA
:1019700057FD40C0B601600F711F9B012150310916
:1019800037FD38C0D7FF03C05F01D0E0C0E0D7FE0D
:1019900003C08B01D12CC12C4A175B071CF05D01E1
:1019A000AC1ABD0A281739071CF08C010C191D0947
:1019B000D401ED91FC910284F385E02DC4011995C9
:1019C0009501A601BE01C4010E94C40BD401ED9192
:1019D000FC910688F789E02DC401DF91CF911F911A
:1019E0000F91FF90EF90DF90CF90BF90AF909F90BE
:1019F0008F901994DF91CF911F910F91FF90EF90ED
:101A0000DF90CF90BF90AF909F908F900895EF920E
:101A1000FF920F931F932115310529F00115110530
:101A200011F00E94820C1F910F91FF90EF9008958A
:101A30008F929F92AF92BF92CF92DF92EF92FF92DE
:101A40000F931F93CF93DF935C014B016A01E90170
:101A500077FD52C0DC0118968D919C91681779072B
:101A60000CF04AC0209709F447C037FF07C0C901EE
:101A70000196C80ED91ED195C195D109F50182856F
:101A80009385C816D906C4F5A6014C0F5D1F9A01AF
:101A90002150310937FD30C0D7FE03C0EA01D12CF7
:101AA000C12C281739071CF0EC01CC19DD09D50130
:101AB000ED91FC910284F385E02DC5011995780123
:101AC0008E0121E030E0A601B401C5010E94C40BE3
:101AD000D501ED91FC910688F789E02DC501DF91D4
:101AE000CF911F910F91FF90EF90DF90CF90BF901B
:101AF000AF909F908F901994DF91CF911F910F918C
:101B0000FF90EF90DF90CF90BF90AF909F908F901D
:101B100008958F929F92AF92BF92CF92DF92EF92F1
:101B2000FF920F931F93CF93DF935C016B014A01E8
:101B3000E90157FD52C0DC011A968D919C9148171E
:101B400059070CF04AC0209709F447C037FF07C077
:101B5000C9010196C80ED91ED195C195D109F501CB
:101B600080859185C816D906C4F5A6014C0F5D1F66
:101B70009A012150310937FD30C0D7FE03C0EA0178
:101B8000D12CC12C281739071CF0EC01CC19DD0928
:101B9000D501ED91FC910284F385E02DC5011995E5
:101BA000780101E010E09E01A401B601C5010E9488
:101BB000C40BD501ED91FC910688F789E02DC50194
:101BC000DF91CF911F910F91FF90EF90DF90CF9019
:101BD000BF90AF909F908F901994DF91CF911F91FC
:101BE0000F91FF90EF90DF90CF90BF90AF909F90BC
:101BF0008F900895EF92FF920F931F93CF93DF93EF
:101C000077FD32C0DC011896ED91FC916E177F07CD
:101C10005CF52115310541F137FF07C0F901319617
:101C20004E0F5F1F319521953109DC011A96ED9118
:101C3000FC914E175F07C4F4EA01C20FD31FDE0107
:101C40001197B7FD11C057FF03C09E0150E040E05F
:101C5000AE17BF071CF09F01241B350B78018901CB
:101C600021E030E00E94C40BDF91CF911F910F91D2
:101C7000FF90EF9008952F923F924F925F926F9254
:101C80007F928F929F92AF92BF92CF92DF92EF920C
:101C9000FF920F931F93CF93DF93CDB7DEB72C97AF
:101CA0000FB6F894DEBF0FBECDBF3C017C836B83C3
:101CB0005C874B871801270181E090E05C01A41A42
:101CC000B50ACA01919581959109AC01440F551F40
:101CD0005A834983C80101969E838D83F12CE12CA0
:101CE00088248394912C922F91709F83227028874F
:101CF000AB014F5F5F4F5A8749878B859C85E816FC
:101D0000F9060CF07AC0CB84DC84B7FC0CC06C0103
:101D100091E0C91AD10849815A814E5F5F4F5A83B9
:101D20004983A40EB51E5FEFE51AF50A82E0880E1E
:101D3000911CA80CB91CCE14DF0464F19F81992377
:101D400099F09601220F331F4D815E81240F351FBC
:101D500082014B815C814C195D09B701660D771DCD
:101D60008BE396E00E94FA0D5885552399F0960171
:101D7000220F331F8D819E81280F391F82014B81D5
:101D80005C814C195D09B3016E197F098BE396E004
:101D90000E94FA0D4B855C854C155D0559F15F81FC
:101DA000552391F0940122503109220D331D8201F7
:101DB00049855A854E195F096B857C85660D771DAF
:101DC0008BE396E00E94FA0D8885882399F09401B0
:101DD00022503109220D331DB3014B855C85641BF4
:101DE000750B820149855A854E195F098BE396E090
:101DF0000E94FA0DDC86CB8680CF2C960FB6F89425
:101E0000DEBF0FBECDBFDF91CF911F910F91FF902D
:101E1000EF90DF90CF90BF90AF909F908F907F908A
:101E20006F905F904F903F902F900895EF92FF92A8
:101E30000F931F93CF93DF9357FD31C0DC011A96A8
:101E4000ED91FC914E175F0754F52115310539F1DD
:101E500037FF07C0F90131966E0F7F1F319521952D
:101E60003109DC011896ED91FC916E177F07BCF4E7
:101E7000EB01C20FD31FDE011197B7FD10C077FF32
:101E800003C09E0170E060E0AE17BF071CF09F0129
:101E9000261B370B780101E010E00E94C40BDF9194
:101EA000CF911F910F91FF90EF9008958F929F9285
:101EB000AF92BF92CF92DF92EF92FF920F931F9358
:101EC000CF93DF9347012115310509F44BC001156C
:101ED000110509F447C037FF07C0F90131966E0FAD
:101EE0007F1F319521953109DC011896AD90BC908A
:101EF0006A157B05BCF517FF07C0F80131964E0F38
:101F00005F1F119501951109DC011A96ED91FC9165
:101F10004E175F073CF56B01C20ED31EE6012197F9
:101F2000D7FD20C07A01E00EF11ED7011197B7FD51
:101F300019C077FF03C0960170E060E057FF03C04F
:101F4000870150E040E0CA15DB051CF09501261B17
:101F5000370BAE17BF071CF08F01041B150B740164
:101F60000E94C40BDF91CF911F910F91FF90EF90D2
:101F7000DF90CF90BF90AF909F908F900895EF9299
:101F8000FF920F931F93CF93DF93EC0177FD22C055
:101F90008885998568177907ECF457FD1BC08A85F9
:101FA0009B8548175907B4F47901E881F98102A4A7
:101FB000F3A5E02D01E010E021E030E0CE0119951D
:101FC000B701CE01DF91CF911F910F91FF90EF905C
:101FD0000C945F0ADF91CF911F910F91FF90EF90CA
:101FE0000895CF93DF93EC010E944E0B8FA987FDDC
:101FF00006C0EB8DFC8D80819AA989238083DF91B7
:10200000CF9108950895AF92BF92CF92DF92EF9251
:10201000FF920F931F93CF93DF93EC01E62E8A017B
:10202000A22E0E944E0B8FA987FD06C0EB8DFC8D62
:1020300080819AA989238083ED8DFE8D80819CA962
:10204000892380836E2DCE010E94A40AED8DFE8D22
:1020500080819BA9892B8083D12CC12CB12CCA14DF
:10206000DB04E4F48DA97801823079F488A988230F
:1020700061F0F801619171917F01CE010E945F0AC8
:10208000FFEFCF1ADF0A8701EACFFFEFEF1AFF0A4F
:10209000F8016491CE010E94A40AF2CF8FA987FDB6
:1020A00006C0EB8DFC8D808199A9892B8083DF91FF
:1020B000CF911F910F91FF90EF90DF90CF90BF9045
:1020C000AF900895611106C060E220E050E040E06A
:1020D0000C94031061E2F9CF0F931F93CF93DF931A
:1020E0001F92CDB7DEB78C016370DC0156966C93FE
:1020F0005697623009F468C0633009F46AC06130F1
:1021000009F456C088E4898380EF90E019969C9387
:102110008E93189780E491E01B969C938E931A9768
:10212000C8010E944E0BD801D7968C91D79787FD96
:1021300009C05B96ED91FC915C978081D2969C9151
:1021400089238083D8015D96ED91FC915E97808113
:10215000D4969C918923808366E3C8010E94A40AD7
:10216000D8015D96ED91FC915E978081D3969C910C
:10217000D397892B8083D5968C91823061F16981C8
:10218000C8010E94A40AD801D7968C91D79787FDE1
:1021900009C05B96ED91FC915C978081D1969C91F2
:1021A000892B80830F90DF91CF911F910F9108951C
:1021B00088E2898380E491E0F8019187808780EF4D
:1021C00090E093878287ACCF88E8898380EF90E0A6
:1021D0009DCF88EEEECFF80180A9882381F2698136
:1021E0007A81C8010E945F0ACECFFC0187A987FDD2
:1021F00006C0A38DB48D9C9181A9892B8C930895E1
:10220000AF92BF92CF92DF92EF92FF920F931F9304
:10221000CF93DF936C015B01EA0179018BE396E0D8
:102220000E94F10F9E01220F331F2F5F3F4FA50128
:102230004C1B5D0B8701B6018BE396E00E94FA0D03
:1022400010E000E023E0AE01B501C6010E943B0EA4
:102250008BE396E0DF91CF911F910F91FF90EF906C
:10226000DF90CF90BF90AF900C94F5100895FC01D3
:102270006370668B8481958126813781613039F066
:10228000633029F0918780873387228708953187CB
:1022900020879387828708952F923F924F925F9273
:1022A0006F927F928F929F92AF92BF92CF92DF9266
:1022B000EF92FF920F931F93CF93DF93CDB7DEB7CB
:1022C0006A970FB6F894DEBF0FBECDBF9A8F898F85
:1022D0007A8369834A01D22E18870F833701BC2C79
:1022E000DC0159962D913C915A972115310509F041
:1022F00015C118968D919C911997681779070CF064
:10230000D7C11A968D919C91481759070CF0D0C1EE
:102310004C2C512CB6E0CB9E600D711D11247C8796
:102320006B87161617060CF0C3C1EA2DF0E0FA878A
:10233000E98793E0EE0FFF1F9A95E1F7F88BEF879F
:10234000CF01840F951F181619060CF0B1C1A98D85
:10235000BA8D58968C91811104C0BFEABD1508F45E
:10236000D394A98DBA8DED91FC9111970284F385D8
:10237000E02DCD011995B5E0DB9EC0011124E98166
:10238000FA81FC83EB83312C212C9C012C543D4F92
:10239000388F2F8B4A2D50E05E8B4D8BEF89F88D57
:1023A000E20DF31D44919E828D82D12CC12C698156
:1023B0007A81620D731D7A8B698B842F90E09C8BE0
:1023C0008B8BE98DFA8DA081B18140FF82C0F1E055
:1023D000BF126FC0AF126DC01C96ED91FC912F81A2
:1023E0003885A4014C0D5D1D69897A89898D9A8D86
:1023F0001995EB89FC89F595E7954E2F5FEFC51A86
:10240000D50A6D817E818D899E89680F791F7E83B3
:102410006D8398E0C916D10481F6AFEF2A1A3A0A03
:10242000EB81FC81E40DF51DFC83EB83F5E02F16B9
:10243000310409F0B3CF2F81388526153705B9F05F
:10244000A98DBA8DED91FC91B1E0BB1257C0AB12D2
:1024500055C069817A816B5F7F4F0088F189E02DDB
:10246000830128E030E0A401898D9A8D1995A98D0A
:10247000BA8DED91FC9111970688F789E02DCD0179
:102480006A960FB6F894DEBF0FBECDBFDF91CF9135
:102490001F910F91FF90EF90DF90CF90BF90AF9082
:1024A0009F908F907F906F905F904F903F902F9074
:1024B00019941E96ED91FC91EF80F88409851A8598
:1024C00092014D815E816B817C81898D9A8D1995F8
:1024D00090CF2F8138852615370509F48ACF31E052
:1024E000B31207C0A31205C01C96ED91FC91930195
:1024F00078CF1E96ED91FC917301E0CF6B857C85C2
:10250000641975090684F785E02D73010F85188914
:102510009201A401898D9A8D1995A9CFF90134965C
:102520009491329745915491D91AB7E0DB9E400DB2
:10253000511D1124F901259134913C8B2B8BFA010B
:1025400025903490FA013296749031963491398BFB
:10255000329664903196449041E04C1518F04A153B
:1025600008F07FC0662D062C000C770B7C836B83F4
:10257000842D042C000C990B9E838D83A98DBA8D1C
:10258000ED91FC9111970284F385E02DCD01199511
:10259000512CD12CC12CEA2DF0E0FA87E9872B2DA4
:1025A00030E03C872B87A401440D511D47FC5A9510
:1025B000588F4F8B69817A81660D711D67FC7A9502
:1025C0007E876D877989C71608F051CF2C2D30E0B2
:1025D0004D815E81420F531FA985BA854A9FC00174
:1025E0004B9F900D5A9F900D1124FC01E80DF91D91
:1025F000F88BEF87852D612C4F89588D420F531F23
:102600005E8B4D8B671408F050C044244394480EF1
:10261000877041F4C1010196EB89FC89E20DF31D3D
:10262000D4901C01D7FE19C0A98DBA8DED91FC91F3
:10263000662D70E0B1E0BB1219C0AB1217C02D853A
:102640003E85620F731F0484F585E02D2F81388548
:102650004D895E89898D9A8D1995DD0C6394842D41
:10266000D1CF1E821D821C821B8288CF4B815C8150
:10267000640F751FAB85BC856A9FC0016B9F900D71
:102680007A9F900D112469817A81680F791F0684E1
:10269000F785E02DEF80F88409851A859D014F8527
:1026A0005889898D9A8D1995D8CF570CC3948ACFA4
:1026B0006A960FB6F894DEBF0FBECDBFDF91CF9103
:1026C0001F910F91FF90EF90DF90CF90BF90AF9050
:1026D0009F908F907F906F905F904F903F902F9042
:1026E00008958F929F92AF92CF92EF92FF920F93A5
:1026F0001F93CF93DF93EC01262F898D9A8D00973E
:1027000009F051C06A30D1F41D861C868D8948E0DD
:10271000849F900111248E859F85820F931F9F8730
:102720008E8781E090E0DF91CF911F910F91FF9014
:10273000EF90CF90AF909F908F9008956D3089F378
:10274000CC88AD888F898823C1F08C859D8536E043
:10275000C39E800D911D112448855985481759073E
:1027600064F44E855F851D861C8638E0A39EC001FB
:102770001124840F951F9F878E87EA88FB8808891C
:1027800019894E855F856C857D85CE010E944C112F
:102790002C898C859D8546E0249F800D911D1124F8
:1027A0009D878C87BECF6A3069F41D861C86FC012C
:1027B0003896E4912D898E859F85E29F800D911D2D
:1027C0001124ADCF6D3009F4ACCFFC0134963491B7
:1027D000631708F4A6CF3296E491E61708F4A1CF68
:1027E000FC01329685909490462F431B342F47E08E
:1027F000349F800C911C1124F4013296349131964F
:10280000E4913323A9F1EE2399F1CC88F4013596B4
:10281000E491AD884F89442301F10E2E000CFF0B8B
:10282000E30FF11DCE9EA001CF9E500D11246C85AB
:102830007D85460F571F68857985641775076CF489
:102840004E855F851D861C86FC013896E491AE9E00
:10285000400D511D11245F874E87EA88FB88088947
:1028600019894E855F856C857D85CE010E944C114E
:10287000F4013496E4912C898C859D85E29F800D2E
:10288000911D11248DCF6F927F928F929F92AF9264
:10289000BF92CF92DF92EF92FF920F931F93CF934D
:1028A000DF93EC016B015A0139014801E881F9819C
:1028B0000284F385E02D1995E881F9810288F38976
:1028C000E02D87019301A501B601CE011995A5015F
:1028D000480D591D41505109E881F9810288F38959
:1028E000E02D9301B601CE011995E881F9810088A8
:1028F000F189E02D9401A501B601CE011995C60C10
:10290000D71CB60161507109E881F9810088F1890D
:10291000E02D9401A501CE011995E881F981068881
:10292000F789E02DCE01DF91CF911F910F91FF909C
:10293000EF90DF90CF90BF90AF909F908F907F905F
:102940006F9019946F927F928F929F92AF92BF92E5
:10295000CF92DF92EF92FF920F931F93CF93DF936B
:102960005C01EB016A01490138018701DC01ED914D
:10297000FC916217730719F5641675062CF0962DF5
:10298000872D3A01C92ED82E9601261937092F5FB7
:102990003F4F048CF58DE02DA301BE01C5011995B3
:1029A000DF91CF911F910F91FF90EF90DF90CF902B
:1029B000BF90AF909F908F907F906F900895461535
:1029C000570591F42617370724F0892D4B01C22FA4
:1029D000D82F9E01281939092F5F3F4F068CF78D9C
:1029E000E02DA601B401DACF0284F385E02D19951C
:1029F000D501ED91FC910488F589E02D83019401C6
:102A0000A601BE01C5011995D501ED91FC9106887D
:102A1000F789E02DC501DF91CF911F910F91FF90B4
:102A2000EF90DF90CF90BF90AF909F908F907F906E
:102A30006F901994EF92FF920F931F93DC011A96F7
:102A40000D911C911B9718962D913C911997ED9122
:102A5000FC9100A0F1A1E02D7B0150E040E070E08E
:102A600060E019951F910F91FF90EF9008954F929C
:102A70005F926F927F928F929F92AF92BF92CF920E
:102A8000DF92EF92FF920F931F93CF93DF936C012E
:102A90002B015A0139014801DC01ED91FC910284BE
:102AA000F385E02D1995E201640C751CD601ED91BA
:102AB000FC91C615D7055CF40088F189E02D8701EB
:102AC0009401A501BE01C60119952196EFCF068894
:102AD000F789E02DC601DF91CF911F910F91FF90F3
:102AE000EF90DF90CF90BF90AF909F908F907F90AE
:102AF0006F905F904F9019948F929F92AF92BF9278
:102B0000CF92DF92EF92FF920F931F93CF93DF93B9
:102B1000EC015B014A016901E881F9810284F385D6
:102B2000E02D199595012C0D3D1D21503109E881AD
:102B3000F9810488F589E02D78018401A401B501AB
:102B4000CE011995E881F9810688F789E02DCE013B
:102B5000DF91CF911F910F91FF90EF90DF90CF9079
:102B6000BF90AF909F908F9019948F929F92AF9249
:102B7000BF92CF92DF92EF92FF920F931F93CF936A
:102B8000DF93EC015B014A0169017801E881F98179
:102B90000284F385E02D1995C80CD91C86010150DB
:102BA0001109E881F9810488F589E02D9501A401D6
:102BB000B501CE011995E881F9810688F789E02DE4
:102BC000CE01DF91CF911F910F91FF90EF90DF9099
:102BD000CF90BF90AF909F908F901994EF92FF92FB
:102BE0000F931F93DC01ED91FC9100A0F1A1E02D6A
:102BF00019951F910F91FF90EF9008950F931F93D8
:102C0000DC01ED91FC91068CF78DE02D19951F915B
:102C10000F9108950F931F93DC01ED91FC91048CAB
:102C2000F58DE02D19951F910F910895DC01ED911F
:102C3000FC910084F185E02D19942F923F924F92E0
:102C40005F926F927F928F929F92AF92BF92CF923C
:102C5000DF92EF92FF920F931F93CF93DF9300D0F9
:102C600000D0CDB7DEB73C016A013E832D83FC82E4
:102C7000EB825801A41AB50AB7FE03C0B194A1941F
:102C8000B1088D809E80861A970A97FE03C09194A2
:102C9000819491088A149B045CF0902F812F0D8100
:102CA0001E819D838E839C2D8D2D6B01692F782F26
:102CB0000C151D055CF09D818E817E836D83692FCF
:102CC000782F902F812F8601C92ED82E1601201A19
:102CD000310A2B012D813E81421A530A57FE03C04F
:102CE000519441945108710137FE03C03FEFE31A3C
:102CF000F30AF594E7948D819E81861797075CF51A
:102D0000A1E0B0E0BA83A983C016D1064CF1D3018B
:102D1000ED91FC910484F585E02D2B813C81A80187
:102D20006D817E818A149B041CF04D815E81B80107
:102D3000C3011995E418F508F7FE0AC02D813E81FC
:102D400089819A81280F391F3E832D83E20CF31C61
:102D50000F5F1F4FD9CF2FEF3FEF3A832983D4CF97
:102D600026960FB6F894DEBF0FBECDBFDF91CF9190
:102D70001F910F91FF90EF90DF90CF90BF90AF9099
:102D80009F908F907F906F905F904F903F902F908B
:102D90000895089590E080E008952F923F924F9219
:102DA0005F926F927F928F929F92AF92BF92CF92DB
:102DB000DF92EF92FF920F931F93CF93DF9300D098
:102DC0001F92CDB7DEB71C012B015A0169014801E2
:102DD000421753070CF069C05A83498357FF05C057
:102DE0009A012F5F3F4F3A83298389819A81959574
:102DF00087959C838B83049724F024E030E03C8308
:102E00002B838BE396E00E94F10F6B807C80660C35
:102E1000771C2B813C81220D331D3A832983950138
:102E20002619370974018601A20169817A818BE331
:102E300096E00E94560FC618D70831E0C31AD10891
:102E40008B819C81480E591EA20CB31CC5012B819D
:102E50003C81821B930B860121E04B815C81B20196
:102E600001970E943B0E22E04B815C81B201898177
:102E70009A810E943B0E8BE396E00F900F900F908B
:102E80000F90DF91CF911F910F91FF90EF90DF9006
:102E9000CF90BF90AF909F908F907F906F905F90FA
:102EA0004F903F902F900C94F51084E090E09C831D
:102EB0008B83A7CF0F931F93CF93DF93EB010E94D8
:102EC0005F05892B31F080E0DF91CF911F910F9149
:102ED00008950E945B08CC0FDD1FCC0FDD1FCE5381
:102EE000DB4F088119812A813B81601B710B820BAA
:102EF000930B653B71058105910528F30E945B08E2
:102F0000688379838A839B8381E0DECFFB01019014
:102F10000020E9F73197AF01461B570BDC01ED911B
:102F2000FC910280F381E02D19948F929F92AF92D1
:102F3000BF920F931F93CF93DF93CDB7DEB7A197C7
:102F40000FB6F894DEBF0FBECDBF19A2423008F411
:102F50004AE08E010F5D1F4F842E912CB12CA12CC5
:102F6000A50194010E946537E62FB901CA01EA3034
:102F700004F5E05DD801EE938D01232B242B252B46
:102F800079F790E080E0109729F0BD018DE995E098
:102F90000E948617A1960FB6F894DEBF0FBECDBF74
:102FA000DF91CF911F910F91BF90AF909F908F9025
:102FB0000895E95CDFCF0C94861720934F06209389
:102FC000500650934C0640934B0610924E061092BA
:102FD0004D06FC0101900020E9F73197E81BF90B41
:102FE00046E0429FD001439FB00D1124AE9FA00147
:102FF000AF9F500DBE9F500D112420EF30E0241BD9
:10300000350B37FF02C02F5F3F4F35952795309323
:1030100048062093470670934A0660934906BC0110
:103020008BE396E00C94DB1720934F062093500619
:1030300050934E0640934D0650934C0640934B06DA
:10304000FC0101900020E9F73197E81BF90B46E0FD
:10305000429FD001439FB00D1124AE9FA001AF9FAE
:10306000500DBE9F500D112420EF30E0241B350B76
:1030700037FF02C02F5F3F4F3595279530934806A5
:103080002093470670934A0660934906BC018BE380
:1030900096E00C94DB178F929F92AF92BF92CF92E3
:1030A000DF92EF92FF92CF93DF936B017C01AC0133
:1030B0009B010E94DC396CE672E0811126C046015A
:1030C0005701E894B7F82FEF3FEF4FE75FE7C501EF
:1030D000B4010E94DC3981110CC02FEF3FEF4FE7A4
:1030E0005FE7C501B4010E94033860E772E018167B
:1030F00064F02FEF3FEF4FE75FE4C701B6010E9496
:103100006239181684F464E772E08DE995E0DF9186
:10311000CF91FF90EF90DF90CF90BF90AF909F90B6
:103120008F900C9486172FEF3FEF4FE75FECC701AE
:10313000B6010E94033887FDE6CF20E030E0A90108
:10314000C701B6010E940338D0E0C0E087FF08C085
:103150008DE20E94AA09EC01F7FAF094F7F8F094D6
:103160002DEC3CEC4CE45DE3C701B6010E949737BF
:103170004B015C010E9481386B017C010E94B038D8
:103180009B01AC01C501B4010E9496374B015C0163
:103190004AE0C701B6010E949517C80FD91F8EE2F9
:1031A0000E94AA09C80FD91F20E030E040E251E494
:1031B000C501B4010E9467390E94813890E080E027
:1031C0004AE00E9495178C0F9D1FDF91CF91FF90D1
:1031D000EF90DF90CF90BF90AF909F908F90089529
:1031E000EF92FF920F931F93CF93DF9300D000D005
:1031F00000D01F92CDB7DEB788E0E82E82E4F82E2B
:103200000CE110E020EF30E050E040E070E060E0E2
:103210008BE396E00E94820C21E030E04FEF5FEFFD
:103220006AE070E088E792E00E941418F12CE12C2B
:1032300002E810E028EC30E048E250E064E170E0A1
:103240008BE396E00E94820C80916A05882309F442
:1032500053C023E030E040EE5FEF62E370E085E8CA
:1032600092E00E94DD1721E030E04FEF5FEF64E66F
:1032700070E082E992E00E94DD1700EE17E02CE199
:1032800030E040EA50E062E870E088E290E00E94BE
:10329000CD1621E030E04FEF5FEF6AE870E084EA9E
:1032A00092E00E94141880915A052091580530919F
:1032B0005905811104C020911F02309120023093E2
:1032C00016022093150280934E0580916A05809323
:1032D0004D058FEF9FEF90931402809313022A966F
:1032E0000FB6F894DEBF0FBECDBFDF91CF911F9117
:1032F0000F91FF90EF90089580915A058E010F5F16
:103300001F4F882309F47AC0809158059091590580
:103310006CE370E00E94693A9F938F937F936F9361
:103320008CEE92E09F938F931F930F930E94AD3A80
:1033300084E080934F068093500680EE97E0909350
:103340004C0680934B0610924E0610924D068DE16E
:1033500090E0909348068093470682E390E0909334
:103360004A0680934906B8018BE396E00E94DB177A
:1033700022E030E040EE57E064E670E08BEB92E054
:103380000E94DD1740911F02509120028091580544
:10339000909159050FB6F894DEBF0FBECDBFF12C4A
:1033A000E12C1416150674F4DA01A81BB90B28ECED
:1033B00030E00E94A13A9A01550F440B550B0E9430
:1033C0003B37790108E012E42EE030E048EC50E0B1
:1033D00061E970E084E190E00E94CD161E141F04A4
:1033E0000CF061CF00EE17E02EE030E0A70161E9BC
:1033F00070E084E190E00E94CD1655CF80911F02CD
:10340000909120026CE370E00E94693A9F938F9341
:103410007F936F938CEE92E09F938F931F930F9304
:103420000E94AD3A84E080934F06809350068FEF60
:1034300097E090934C0680934B0610924E061092A4
:103440004D068DE190E0909348068093470682E315
:1034500090E090934A0680934906B8018BE396E08A
:103460000E94DB1721E030E048E156EC6EE670E0A8
:1034700088EC92E00E94DD170FB6F894DEBF0FBE15
:10348000CDBF11CFAF92BF92CF92DF92EF92FF925A
:103490000F931F93CF93DF9300D000D000D0CDB710
:1034A000DEB788E0E82E82E4F82E0CE110E020EF91
:1034B00030E050E040E070E060E08BE396E00E9496
:1034C000820C21E030E04FEF5FEF6AE070E081EEC8
:1034D00092E00E941418809152051F928F93809160
:1034E00053051F928F9380911D021F928F9387EE39
:1034F00092E09F938F93CE0101965C019F938F93EF
:103500000E94AD3A9BE3C92E96E0D92E84E0F601E5
:10351000848B858B8FEF9FEF938B828B918B808B2E
:10352000F12CE12C00E210E020EC30E04DE250E024
:1035300068E170E0C6010E94820C88E190E0F6012B
:10354000958784878DE290E097878687B501C601CD
:103550000E94DB17EE24EA9427E0F22E02E010E04E
:1035600024EB30E049E650E06EE170E0C6010E94D5
:10357000820C24EB30E04BE950E06EE170E0C601D4
:103580000E94820C80911D0280931202809153054B
:103590008093110280915205809310028095817072
:1035A00080934C050FB6F894DEBF0FBECDBF2996B1
:1035B0000FB6F894DEBF0FBECDBFDF91CF911F9144
:1035C0000F91FF90EF90DF90CF90BF90AF90089554
:1035D000AF92BF92CF92DF92EF92FF920F931F9321
:1035E000CF93DF93CDB7DEB760970FB6F894DEBF09
:1035F0000FBECDBF80916E0581113EC281E198E082
:103600007C010CE110E020EF30E050E040E070E0A1
:1036100060E08BE396E00E94820C80916E05811140
:103620002EC280E893E021E030E04FEF5FEF6AE0E8
:1036300070E00E941418609170057091710580917E
:103640007205909173059E012F5F3F4F69018901BB
:1036500021E044E00E94CC34F60101900020E9F71B
:103660003197EC19FD098EE18E9F90018F9F300DEF
:103670001124245C3F4F60EF70E0621B730B77FFF7
:1036800002C06F5F7F4F5B01B594A794265F3F4FE9
:10369000F12CE12C08E210E04DE250E0B5018BE3A3
:1036A00096E00E94070D85E080934F0680935006B8
:1036B00080916B058111E6C180EE97E090934E06F4
:1036C00080934D0690934C0680934B0635E0A30EF5
:1036D000B11CB0924806A092470682E390E0909316
:1036E0004A06809349066AE273E08BE396E00E9403
:1036F000DB17B6018BE396E00E94DB176DE273E007
:103700008BE396E00E94DB1780916B0508E012E4E2
:10371000882311F000E018EF28E130E040E550E0A8
:1037200064E670E08EE190E00E94CD1681E0809327
:103730004F06809350068FEF9FEF90934E06809335
:103740004D0690934C0680934B0688E290E0909350
:103750004806809347068CE690E090934A06809353
:1037600049066FE273E08BE396E00E94DB178091DD
:103770006B056CE973E0882311F063E973E08BE378
:1037800096E00E94DB1780916E0500EE17E088231B
:1037900011F00FE110E028E130E040E550E064E690
:1037A00070E082E890E00E94CD1681E080934F06A1
:1037B000809350068FEF9FEF90934E0680934D06B7
:1037C00090934C0680934B068CE890E090934806CB
:1037D000809347068CE690E090934A0680934906D2
:1037E00080916E056DE073E0882311F066E073E070
:1037F0008BE396E00E94DB17609121027091220218
:1038000080912302909124028E01075F1F4F21E0D7
:1038100044E00E94CC34F12CE12C04E110E028E7D4
:1038200030E047E850E064E170E08BE396E00E940E
:10383000820C82E080934F06809350068FEF97E0D2
:1038400090934E0680934D0690934C0680934B06C2
:1038500084E190E0909348068093470689E890E0E1
:1038600090934A068093490666E373E08BE396E003
:103870000E94DB17BE01675F7F4F8BE396E00E94DB
:10388000DB176DE273E08BE396E00E94DB170EE03E
:1038900010E024E630E045EA50E064E170E08BE3BC
:1038A00096E00E94820C81E080934F068093500640
:1038B00020916B0580EE97E0222311F080E098EFD5
:1038C00090934E0680934D0690934C0680934B0642
:1038D00084E190E0909348068093470687EA90E061
:1038E00090934A068093490660E273E0222311F028
:1038F00064E173E08BE396E00E94DB1780916E0534
:1039000008E012E4882311F00FE110E022E130E03A
:1039100040E550E06AED70E090E080E00E94CD1656
:1039200081E080934F06809350068FEF9FEF909336
:103930004E0680934D0690934C0680934B068AE08A
:1039400090E0909348068093470680EE90E0909335
:103950004A06809349066AE373E08BE396E00E948F
:10396000DB1780916B0508E012E4882311F000E07A
:1039700018EF22E130E040E550E06AED70E080E5CC
:1039800090E00E94CD168AE590E0909348068093DF
:10399000470680EE90E090934A068093490661E4E2
:1039A00073E08BE396E00E94DB1780916F0508E0DF
:1039B00012E4882311F000E21DEF22E130E040E53F
:1039C00050E06AED70E080EA90E00E94CD168AEA4D
:1039D00090E0909348068093470680EE90E09093A5
:1039E0004A068093490666E473E08BE396E00E9402
:1039F000DB178091700590917105A0917205B091CF
:103A0000730580930C0290930D02A0930E02B09365
:103A10000F028091210290912202A0912302B09185
:103A200024028093080290930902A0930A02B093A3
:103A30000B0280916B058093500580916E058093F9
:103A4000510580916F0580934F058FEF9FEF909305
:103A500014028093130260960FB6F894DEBF0FBE77
:103A6000CDBFDF91CF911F910F91FF90EF90DF902D
:103A7000CF90BF90AF9008958FE190E0C1CD86EFD9
:103A800092E0D1CD80E098EF19CE0E94A83ACF9273
:103A9000DF92EF92FF920F931F93CF93DF93EC018E
:103AA0006A017B01C114D104E104F10431F4C12C99
:103AB00042E1D42E4AE7E42EF12C8FA987FD07C0FE
:103AC00061E00E94B60561E08FA90E94880561E06F
:103AD00088AD0E94B60561E088AD0E9488058DA979
:103AE0008111A3C040E052E16AE770E0C416D50638
:103AF000E606F70640F476956795579547958F5FEC
:103B00008630A1F787E0982F906A969599A38095C3
:103B100081708AA31BA21CA21DA21EA21FB7F8942B
:103B200080914305811127C0E7E7F9E08491E7E13F
:103B3000F9E09491E82FF0E0EE0FFF1FE959F74FFD
:103B4000A591B491EC91E92321F461E085E30E9411
:103B5000880561E085E30E94B6058CB580618CBD67
:103B60008CB580648CBD61E084E30E94B60561E0A1
:103B700083E30E94B605809143058F5F80934305E0
:103B80001FBF8EA987FD21C061E00E94B60561E0DC
:103B90008EA90E94880564E670E080E090E00E94B3
:103BA000290860E08EA90E94880564E670E080E044
:103BB00090E00E94290861E08EA90E94880568ECC7
:103BC00070E080E090E00E9429088EA987FF0DC078
:103BD00020E050E040E061E0CE010E94031066E981
:103BE00070E080E090E00E94290804EB17E0C80133
:103BF0000196F8016491662309F463C00E5F1F4FBC
:103C0000FC01F490EF2CE894E7F82E2DA801CE01EA
:103C10000E9403100E0D111DF7FEE9CF66E970E05A
:103C200080E090E00E942908E2CF02E419E0F12C44
:103C30008130B9F461E08AA50E94B60560E08AA5EA
:103C40000E94880561E08CA50E94B60560E08CA505
:103C50000E9488058BA587FD94CF60E00E94B60581
:103C600090CFF8018491E82FF0E0EE0FFF1FE85DA0
:103C7000F64F859194912F8D38A12817390741F47B
:103C800061E08F2D0E94B60560E08F2D0E948805AF
:103C9000F3940F5F1F4FF6E4FF12E3CF61E08EA5B0
:103CA0000E94B60561E08EA50E9488058FA587FD5C
:103CB00068CF61E00E94B60561E08FA50E9488058B
:103CC00060CF80EF90E09987888780E491E09B87C0
:103CD0008A87DF91CF911F910F91FF90EF90DF9036
:103CE000CF9008951F93CF93DF9385ED8093BC0011
:103CF0008091D5049091D604A091D704B091D804B6
:103D00000796A11DB11D23E0B695A79597958795B8
:103D10002A95D1F72091BC0024FD03C010921D0507
:103D200052C04091D5045091D6046091D70470914F
:103D3000D804452B462B472B69F30097A105B10505
:103D400041F02AE22A95F1F700C00197A109B109D3
:103D5000E1CF8091D404C1E0C093D304882399F1CA
:103D6000D091B8001091BA008091BC008A7B8093FA
:103D7000BC0060E084E10E94880560E085E10E946B
:103D8000880510921D05C0931F0510921E0561E065
:103D900084E10E94880561E085E10E9488058091A8
:103DA000B9008E7F8093B9008091B9008D7F809398
:103DB000B90088E48093B80085E48093BC00109338
:103DC000BA00D093B800DF91CF911F9108952F9240
:103DD0003F924F925F926F927F928F929F92AF929B
:103DE000BF92CF92DF92EF92FF920F931F93CF93E8
:103DF000DF9300D01F92CDB7DEB75CE9E52E5DE51D
:103E0000F52E04EB10E020EF30E050E040E070E0F1
:103E100060E08BE396E00E94820C20EE3FEF4CE1E5
:103E200050E068E270E082ED90E00E94001120E630
:103E30003EEF44E150E068E270E082ED90E00E94E5
:103E400000112FEF3FEF4EE050E063E270E082E3BD
:103E500090E00E9400112FEF3FEF42E150E06EE151
:103E600070E086E490E00E9400112FEF3FEF4EE0FB
:103E700050E063E270E08AE590E00E9400112FEFCD
:103E80003FEF4AE050E067E370E080EA90E00E9494
:103E900000112FEF3FEF4EE050E062E370E08FEA59
:103EA00090E00E9400112FEF3FEF4AE050E067E3FF
:103EB00070E08EEB90E00E9400111A821982298135
:103EC0003A81B901330F880B990B0E94B2386B010C
:103ED0007C012DEC3CEC4CEC5CE30E9467390E94C9
:103EE000D4392B013C012FE832EC45E75DE3C701F3
:103EF000B6010E9467390E94D4394B015C0120E071
:103F000030E040E751E4C301B2010E9467390E94EA
:103F10007A387B013BE9E30EF11C20E030E040E021
:103F200051E4C501B4010E9467390E947A38A701A3
:103F3000460F571F00EE19E329E130E069817A81CD
:103F40008BE396E00E94180D89819A8101969A83ED
:103F50008983803F910509F0B2CF80E6E82E84E5A1
:103F6000F82E05E010E020EF30E04FEA50E070E07E
:103F700060E08BE396E00E94820C9DE8E92E9BE6D0
:103F8000F92E0CE810E020EF30E044EB50E070E058
:103F900060E08BE396E00E94820C20EBE22E26ED9F
:103FA000F22E03E010E020EF30E046EE50E070E04B
:103FB00060E08BE396E00E94820C20EF30E04EE060
:103FC00051E070E060E08BE396E00E94820C34E008
:103FD000232E312C4DE0442E512C612C712C8BE37F
:103FE00096E00E94F10FC12CD12C7601812C912CEE
:103FF000540122EA30E03A832983C501B401A301C8
:1040000092010E943B37C101820F931F9C838B83D7
:10401000C701B601A30192010E943B37220D331D57
:1040200094E0891A9108A108B10884E0C80ED11C57
:10403000E11CF11C8B819C812817390734F49B818A
:104040008C813C832B83292F382F8B819C81281BCB
:10405000390B2F5F3F4F00EE17E049815A81BC01B9
:104060008BE396E00E94160F29813A812F5F3F4F24
:104070003A832983203B310509F0BFCF8BE396E0DB
:104080000E94F5103CE0230E311C84EF2816310409
:1040900009F0A5CF0F900F900F900F90DF91CF9167
:1040A0001F910F91FF90EF90DF90CF90BF90AF9056
:1040B0009F908F907F906F905F904F903F902F9048
:1040C00008951F920F920FB60F9211242F933F93D2
:1040D0008F939F93AF93BF938091750590917605D1
:1040E000A0917705B09178053091740523E0230FF6
:1040F0002D3758F50196A11DB11D209374058093AD
:10410000750590937605A0937705B0937805809117
:10411000790590917A05A0917B05B0917C05019677
:10412000A11DB11D8093790590937A05A0937B051D
:10413000B0937C05BF91AF919F918F913F912F914B
:104140000F900FBE0F901F90189526E8230F029630
:10415000A11DB11DD2CF1F920F920FB60F92112445
:104160000BB60F922F933F934F935F936F937F9371
:104170008F939F93AF93BF93EF93FF93809191059C
:1041800090919205A0919305B0919405892B8A2B6B
:104190008B2BE1F190918005E0918105F0918205F2
:1041A0008081892780838091910590919205A091CB
:1041B0009305B0919405181619061A061B069CF46F
:1041C0008091910590919205A0919305B0919405ED
:1041D0000197A109B1098093910590939205A0934D
:1041E0009305B0939405FF91EF91BF91AF919F918B
:1041F0008F917F916F915F914F913F912F910F9090
:104200000BBE0F900FBE0F901F9018958091290242
:104210000E946708E8CF1F920F920FB60F921124E9
:104220000BB60F922F933F934F935F936F937F93B0
:104230008F939F93AF93BF93EF93FF938DE995E097
:104240000E942009FF91EF91BF91AF919F918F91B3
:104250007F916F915F914F913F912F910F900BBE86
:104260000F900FBE0F901F9018951F920F920FB6D0
:104270000F9211240BB60F922F938F939F93EF936E
:10428000FF93E091AD05F091AE058081E091B3051B
:10429000F091B40582FD1DC090818091B6058F5FBD
:1042A0008F732091B705821741F0E091B605F0E0D9
:1042B000E356FA4F958F8093B605FF91EF919F914A
:1042C0008F912F910F900BBE0F900FBE0F901F90EC
:1042D00018958081F2CF1F920F920FB60F92112482
:1042E0000BB60F922F933F934F935F936F937F93F0
:1042F0008F939F93AF93BF93EF93FF938091B900F8
:10430000887F803609F44DC008F040C0883209F437
:10431000A7C028F5803109F49BC0C8F4882309F4AC
:10432000F7C0883009F494C0FF91EF91BF91AF912D
:104330009F918F917F916F915F914F913F912F91BD
:104340000F900BBE0F900FBE0F901F9018958831E5
:1043500009F486C0803241F780931C0514C0803474
:1043600009F49BC040F48033B9F38833E9F68093B5
:104370001C0585ECAEC0803509F483C0883509F48E
:1043800094C0883489F60E94721ECECF883909F411
:104390008AC038F5883729F050F4883611F0803714
:1043A00019F683E080931D0510921B0555C08838CF
:1043B00009F479C0803919F0803809F0B5CF8091BF
:1043C0001B05803208F06FC0E0911B0581E08E0F65
:1043D00080931B058091BB00F0E0E550FB4F80838C
:1043E0003BC0803B39F0D0F4803A09F477C0883A7A
:1043F00009F09ACF84E080931D051092FA04109280
:10440000F904F0E0E0E019958091F90481110FC002
:1044100081E08093F9041092D90409C0803C09F42A
:10442000A8CF883C09F4A5CF883B09F07DCFE09167
:10443000FA0481E08E0F8093FA04F0E0E752FB4F1C
:1044400080818093BB009091FA048091F90429C087
:10445000809142058093BB0085EC8093BC0064CFC3
:104460009091410580914005981758F5E0914105DC
:1044700081E08E0F80934105F0E0E05EFA4F80818D
:10448000E9CFE091410581E08E0F80934105809155
:10449000BB00F0E0E05EFA4F80839091410580918F
:1044A00040059817C8F285E8D8CFE091410581E032
:1044B0008E0F809341058091BB00F0E0E05EFA4FE3
:1044C000808380911F0581115ECF81E080931E055E
:1044D00084EA8093BC0010921D0526CF85EC809362
:1044E000BC0010921D0580911B05803230F4E091D4
:1044F0001B05F0E0E550FB4F108260911B0570E05A
:104500008BEF94E0F0E0E0E0199510921B050CCFE2
:1045100010921C0538CFEDE9F5E01382128288EE87
:1045200093E0A0E0B0E084839583A683B7838EE216
:1045300092E09183808385EC90E09587848784EC7A
:1045400090E09787868780EC90E0918B808B81EC60
:1045500090E0938B828B82EC90E0958B848B86EC41
:1045600090E0978B868B118E128E138E148EABE398
:10457000B6E013961C921E92129720EF30E015962B
:104580003C932E93149780E491E017969C938E931E
:10459000169719963C932E9318971B969C938E937F
:1045A0001A9756961C9256971D961C921E921C970F
:1045B0001F961C921E921E9781E055968C935597DC
:1045C00054968C9354972FEF3FEF53963C932E9332
:1045D000529751963C932E93509757968C9357979A
:1045E00058961C9258975A961C921E925997D59697
:1045F0001C92D59788E0D6968C93D6978AE0D7966A
:104600008C93D79789E0D8968C93D897DA961C929A
:104610001E92D997DC961C921E92DB97DD961C9217
:10462000DD97DE961C92DE9710927A0610927B063A
:1046300010927C0610927D068AE396E090969C93F9
:104640008E935F97EBE4F9E0E491F0E0EE0FFF1F4B
:10465000E85DF64F859194915E969C938E935D975D
:10466000EBEEF8E08491D3968C93D397ECE4F9E0E9
:10467000E491F0E0EE0FFF1FE85DF64F25913491D5
:104680005C963C932E935B97ECEEF8E0E491D19628
:10469000EC93D197E095D296EC93D297E82FE095E2
:1046A000D496EC93D49780E492E08D939C930895F4
:1046B000CF93DF93CDB7DEB763970FB6F894DEBF25
:1046C0000FBECDBF789484B5826084BD84B581600F
:1046D00084BD85B5826085BD85B5816085BD8091CD
:1046E0006E00816080936E00109281008091810045
:1046F000826080938100809181008160809381003D
:10470000809180008160809380008091B1008460FE
:104710008093B1008091B00081608093B00080915F
:1047200091008260809391008091910081608093DC
:104730009100809190008160809390008091A10011
:1047400082608093A1008091A10081608093A1008C
:104750008091A00081608093A000809121018260FF
:1047600080932101809121018160809321018091BA
:10477000200181608093200180917A008460809381
:104780007A0080917A00826080937A0080917A002A
:10479000816080937A0080917A00806880937A00AB
:1047A0001092C100E091AD05F091AE0582E08083EA
:1047B000E091A905F091AA051082E091AB05F09176
:1047C000AC058FEC80831092B505E091B105F091B6
:1047D000B20586E08083E091AF05F091B00580815D
:1047E00080618083E091AF05F091B00580818860A1
:1047F0008083E091AF05F091B0058081806880836F
:10480000E091AF05F091B00580818F7D808383E2D8
:1048100098E00E948F0965EC73E08DE995E00E94B5
:10482000861740E050E0BA018BE396E00E94471DF6
:1048300060E08BE396E00E946C1070E060E08BE338
:1048400096E00E941A150FE110E022E330E048ECF8
:1048500050E06EE170E084E190E00E94CD1622E02D
:1048600030E04FEF5FEF6AE270E088EC93E00E9487
:10487000141808E012E42EE130E048E750E06FE55C
:1048800070E08CE390E00E94CD1621E030E04FEF25
:1048900057E066E670E086ED93E00E94141822E08F
:1048A00030E040EE5FEF6CE870E082EE93E00E9453
:1048B000141868E775E080E090E00E94290870E035
:1048C00060E08BE396E00E941A1522E030E040EEB3
:1048D00057E062E370E087EE93E00E94141823E053
:1048E00030E04FEF5FEF60E570E084EF93E00E940F
:1048F000141822E030E04FEF57E068E770E089EFEE
:1049000093E00E94141822E030E040EE5FEF60EA8E
:1049100070E085E094E00E94141860EB74E080E0A1
:1049200090E00E94290861E08EE10E94B60560E0F7
:104930008EE10E94880561E08FE10E94B60560E08B
:104940008FE10E94880561E080E20E94B60560E088
:1049500080E20E94880561E081E20E94B60560E085
:1049600081E20E94880561E082E20E94B60560E073
:1049700082E20E94880562E087E30E94B60562E059
:1049800088E20E94B60562E089E20E94B60562E014
:104990008AE20E94B60562E08BE20E94B6050E94A0
:1049A000E71E8FEF80931E028E010F5F1F4F1801CD
:1049B000CC24CA94DC2C0E945B082B013C0186E3CA
:1049C0000E94ED07BC01990F880B990B0E94B23829
:1049D00020E030EC4FE754E40E94083820E030E05B
:1049E00048E452E40E94673920E030E040E251E4BC
:1049F0000E9496374B015C01809270059092710580
:104A0000A0927205B092730589E30E94ED07BC0184
:104A1000990F880B990B0E94B23820E030EC4FE7D9
:104A200054E40E94083820E030E048EC52E40E9450
:104A30006739609325027093260280932702909332
:104A4000280287E30E945F059C878B8701E0892B02
:104A500009F000E000936F05FF24F39420E030E0BC
:104A6000A90160912102709122028091230290910C
:104A700024020E94033818160CF4F12CF0926E05F3
:104A800010916D051A8BE0906C05E98A112319F0DD
:104A90001E2D153019F188E30E94ED07BC01990F16
:104AA000880B990B0E94B23820E030EC4FE754E4B9
:104AB0000E94083820E030E048EC51E40E94673959
:104AC00020E030E040E251E40E94963760932102FA
:104AD000709322028093230290932402209121025A
:104AE0003091220240912302509124022D873E876B
:104AF0004F87588B20E030E040E05FE36D857E8596
:104B00008F8598890E9497379B01AC01C501B4013C
:104B10000E94623918160CF006C331E030936B0521
:104B200061E08EE10E94880561E081E20E948805D3
:104B30006F2D82E20E948805602F80E20E94880526
:104B400020916A052B8B222379F0C301B20128EB57
:104B50003BE040E050E00E94653721E06039714061
:104B60008105910508F020E0209369051092680501
:104B70008B849C84892809F0F5C28091640590910A
:104B80006505A0916605B0916705892B8A2B8B2B53
:104B900041F44092640550926505609266057092FA
:104BA00067058091640590916505A0916605B091B7
:104BB0006705B301A201481B590B6A0B7B0B4131FE
:104BC00057426105710508F4C8C248E552E060E04B
:104BD00070E08090600590906105A0906205B090B3
:104BE000630583017201E818F9080A091B094E15CB
:104BF0005F056007710708F0C5C2FF24F394F092C7
:104C0000680540926005509261056092620570925D
:104C10006305222311F40C94C2344CE251E060E0AD
:104C200070E080EE96E00E94F2050E945B088090A2
:104C3000440590904505A0904605B0904705681939
:104C400079098A099B09683E73408105910590F0B6
:104C50000E945B0860934405709345058093460568
:104C600090934705809152058F5F8C3308F0ADC259
:104C70008093520580915A05882391F1A0905805A0
:104C8000B0905905A114B10459F10E945B0820911C
:104C900048053091490540914A0550914B05621BEA
:104CA000730B840B950B683E734081059105C0F032
:104CB0000E945B08609348057093490580934A05FC
:104CC00090934B0521E0A21AB108B0925905A09229
:104CD0005805AB2829F410925A0531E030936A0543
:104CE0008A88882009F41FC50989063009F48DC215
:104CF000073009F40CC4053009F012C580911E027A
:104D0000863009F447C0F12CE12C00E411E020EFDB
:104D100030E050E040E070E060E08BE396E00E941D
:104D2000820C00EE1FEF2CE130E040EF50E070E02D
:104D300060E090E080E00E94CD1621E030E050E09D
:104D400040E06AE070E08CE094E00E94141821E0FA
:104D500030E048E156EC62E870E08DE194E00E94BA
:104D6000141821E030E048E156EC66E970E08EE28C
:104D700094E00E94141820E030EC49E754EC2093B2
:104D800008023093090240930A0250930B0286E016
:104D900080931E028090210290902202A090230214
:104DA000B0902402209108023091090240910A0239
:104DB00050910B02C501B4010E940338882309F405
:104DC0006CC0810121E044E0C501B4010E94CC34F3
:104DD000F10101900020E9F73197E219F30988E128
:104DE0008E9F90018F9F300D1124205D3F4F80EFEB
:104DF000A82EB12CA21AB30AB7FE03C04FEFA41A13
:104E0000B40AB594A794265F3F4FF12CE12C03E23E
:104E100010E04CE350E0B5018BE396E00E94070DF3
:104E200084E080934F06809350068FEF97E0909335
:104E30004E0680934D0690934C0680934B0655E0AA
:104E4000A50EB11CB0924806A092470681E490E0FE
:104E500090934A06809349066AE273E08BE396E0FA
:104E60000E94DB17B1018BE396E00E94DB176DE235
:104E700073E08BE396E00E94DB1780912102909112
:104E80002202A0912302B091240280930802909301
:104E90000902A0930A02B0930B0270E060E088E27E
:104EA00090E00E945A17882331F120E030E040E082
:104EB0005FE3609121027091220280912302909120
:104EC00024020E9497374B015C0120E030E040E76C
:104ED00051E40E946239181634F4812C912C10E7A9
:104EE000A12E11E4B12E8092210290922202A09272
:104EF0002302B092240261E070E089E290E00E9417
:104F00005A17882331F120E030E040E05FE3609100
:104F100021027091220280912302909124020E942A
:104F200096374B015C0120E030E040E251EC0E94FA
:104F3000033887FF06C0812C912CB0E2AB2EB1EC78
:104F4000BB2E8092210290922202A0922302B09264
:104F5000240262E070E08AE290E00E945A178823FF
:104F600009F44AC110926D0581E080936C058FEFC2
:104F700080931E020E94E81A809154059091550575
:104F8000A0915605B091570583017201E81AF90AFC
:104F90000A0B1B0BD801C701893E9340A105B1053F
:104FA00008F4B8C0409254055092550560925605D9
:104FB0007092570585E698E00E948F0910911D02B6
:104FC0001A3018F480E30E94AA09612F70E090E083
:104FD00080E04AE00E9495178AE30E94AA09109196
:104FE00053051A3018F480E30E94AA09612F70E07B
:104FF00090E080E04AE00E9495178AE30E94AA09A7
:10500000109152051A3018F480E30E94AA09612F0A
:1050100070E090E080E04AE00E94951780E698E01A
:105020000E948F09609170057091710580917205E1
:10503000909173050E944B188BE598E00E948F09B0
:1050400060912102709122028091230290912402AA
:105050000E944B1887E598E00E948F096091250215
:105060007091260280912702909128020E947A383E
:105070004B01770FAA08BB084AE0C501B401B7FE8F
:105080000BC08DE20E94AA0966277727CB01681919
:1050900079098A099B094AE00E94951782E598E000
:1050A0000E948F0980916F05882311F40C94BC3401
:1050B00081E40E94AA098EE498E00E948F09809101
:1050C0006B05882311F40C94BF3481E30E94AA0974
:1050D00089E498E00E948F0980915A0563E973E0A2
:1050E000811102C06CE973E08DE995E00E94DB1745
:1050F00080E20E94AA09609158057091590590E0DC
:1051000080E04AE00E94951765EC73E08DE995E038
:105110000E94861764E170E080E090E00E94290818
:105120000E94CF0948CC20E030E040E05FE36D858D
:105130007E858F8598890E9496379B01AC01C501B9
:10514000B4010E94033887FFF3CC10926B0560E036
:105150008EE10E94880560E0E8CC44EC59E060E014
:1051600070E037CD109264051092650510926605C7
:105170001092670510926005109261051092620509
:1051800010926305211149CD80916F0581114DCD9C
:105190008B8881104ACD8FE10E94670846CD93012C
:1051A0008201081B190B2A0B3B0BD901C801813165
:1051B0009742A105B10510F40C94C83488E795E036
:1051C00044E650E060E070E02ECD109252058091F0
:1051D00053058F5F8C3318F4809353054BCD109299
:1051E000530580911D028F5F883118F480931D0252
:1051F00041CD10921D023ECD63E070E08BE290E065
:105200000E945A178111AECEB7CE80911E02873010
:1052100009F444C0F12CE12C00E411E020EF30E06F
:1052200050E040E070E060E08BE396E00E94820C8A
:1052300000EE1FEF2CE130E040EF50E070E060E066
:1052400090E080E00E94CD1680915B05811139C10C
:105250008DE493E021E030E050E040E06AE070E06F
:105260000E94141821E030E048E156EC62E870E05A
:105270008DE194E00E94141821E030E048E156EC02
:1052800066E970E08DE394E00E9414188FEF80933C
:1052900012028093110287E080931E0280911D020A
:1052A00090911202891709F440C01F928F93A1EFC9
:1052B000B2E0BF93AF933F922F920E94AD3A84E049
:1052C00080934F0680935006D0924E06C0924D06B2
:1052D000D0924C06C0924B06F12CE12C00E210E07B
:1052E00020E330E04CE350E068E170E08BE396E0CF
:1052F0000E94820C88E190E09093480680934706D4
:105300008CE390E090934A0680934906B1018BE3C9
:1053100096E00E94DB1780911D02809312020F908D
:105320000F900F900F900F900F90809112028F3F6F
:10533000F9F484E080934F0680935006D0924E0695
:10534000C0924D06D0924C06C0924B0688E490E085
:1053500090934806809347068CE390E090934A062A
:105360008093490668E373E08BE396E00E94DB17C5
:1053700080915305909111028917A9F11F928F9383
:10538000A1EFAA2EA2E0BA2EBF92AF923F922F9227
:105390000E94AD3AF12CE12C00E210E020E330E075
:1053A0004CE350E060E670E08BE396E00E94820CF4
:1053B00080E690E090934806809347068CE390E067
:1053C00090934A0680934906B1018BE396E00E94D0
:1053D000DB1780915305809311020F900F900F906F
:1053E0000F900F900F9070E060E088E290E00E94D4
:1053F0005A17882381F080915B05811165C08091E7
:105400001D0290E0019668E170E00E947D3A809371
:105410001D021092520561E070E089E290E00E9466
:105420005A17882371F080915B05811158C08091D3
:105430001D0290E0479668E170E00E947D3A8093FB
:105440001D0262E070E08AE290E00E945A17882311
:1054500011F180915B0581114DC0FF24F394F0920E
:105460005B05F0EEEF2EFF24FA940CE110E020EF44
:1054700030E050E040E070E060E08BE396E00E94B6
:10548000820C21E030E050E040E06AE070E08AE524
:1054900093E00E94141863E070E08BE290E00E94B9
:1054A0005A17882309F468CD10925B0510926D0598
:1054B00001E000936C058FEF80931E020E94421A58
:1054C0005BCD8AE593E0C6CE8091530590E00196CE
:1054D0006CE370E00E947D3A809353059ACF8091EF
:1054E000530590E0CB966CE370E00E947D3A809388
:1054F0005305A7CF10925B0510926D0582E0809353
:105500006C058FEF80931E020E94421AC4CF8091D7
:105510001E02883009F43FC0F12CE12C00E411E0B8
:1055200020EF30E050E040E070E060E08BE396E098
:105530000E94820C00EE1FEF2CE130E040EF50E0C3
:1055400070E060E090E080E00E94CD1621E030E065
:1055500050E040E06AE070E088E594E00E941418B2
:1055600021E030E048E156EC62E870E086E694E045
:105570000E94141821E030E048E156EC66E970E042
:105580008FE794E00E941418D0921602C092150280
:1055900088E080931E0280911F02909120026CE3AC
:1055A00070E00E94693A9F938F937F936F938CEE84
:1055B00092E09F938F933F922F920E94AD3A0FB645
:1055C000F894DEBF0FBECDBF20911F0230912002A4
:1055D000809115029091160228173907B1F184E0E5
:1055E00080934F06809350068FEF97E090934E067E
:1055F00080934D0690934C0680934B06F12CE12C42
:1056000003E210E02AEC30E04CE350E068E170E0A7
:105610008BE396E00E94820C8DE190E09093480627
:105620008093470681E490E090934A068093490670
:10563000B1018BE396E00E94DB1780911F029091ED
:105640002002909316028093150270E060E088E2D9
:1056500090E00E945A17882379F080911F02909160
:105660002002CC96853337E1930710F084E397E16D
:105670009093200280931F0261E070E089E290E045
:105680000E945A17882361F080911F029091200296
:105690008C33910528F0CC979093200280931F02C1
:1056A00062E070E08AE290E00E945A17882321F1BC
:1056B00020911F0230912002309359052093580504
:1056C00081E0232B09F480E080935A0510926A054B
:1056D0000E945B08609348057093490580934A05D2
:1056E00090934B0510926D0583E080936C058FEFCE
:1056F00080931E020E94F01863E070E08BE290E05D
:105700000E945A17882309F437CC10926D0583E064
:1057100080936C058FEF80931E020E94F0182CCCB2
:1057200010926D0529CC70E060E088E290E00E9464
:105730005A17882391F08988882D90E0049665E0B7
:1057400070E00E947D3A80936C0510925C05109287
:105750005D0510925E0510925F0561E070E089E2E0
:1057600090E00E945A17882391F080916C0590E098
:10577000019665E070E00E947D3A80936C0510927E
:105780005C0510925D0510925E0510925F0562E067
:1057900070E08AE290E00E945A17882301F180911C
:1057A0006C0510925C0510925D0510925E051092DA
:1057B0005F05823059F0833009F4DFC2813079F41B
:1057C00080936D0585E080936C0509C099249394BE
:1057D00090926D0586E080936C0510925B05909128
:1057E0006C0580911E029817C1F00E94E71E8091FF
:1057F0006C05823009F496C408F0DAC2813009F4ED
:105800008EC480916C0580931E0210925C051092EC
:105810005D0510925E0510925F0580915C05909188
:105820005D05A0915E05B0915F0553014201881AA4
:10583000990AAA0ABB0AD501C4018C329140A1057C
:10584000B10508F499CB40925C0550925D056092D9
:105850005E0570925F0580916C05823009F440C648
:1058600008F066C4813009F087CB80916E05909175
:105870005105891709F1882309F418C68FE190E0D2
:105880007C010CE110E020EF30E050E040E070E0FF
:1058900060E08BE396E00E94820C80916E05882385
:1058A00009F407C686EF92E021E030E04FEF5FEFAA
:1058B0006AE070E00E941418809070059090710565
:1058C000A0907205B090730520910C0230910D02EA
:1058D00040910E0250910F02C501B4010E9403389D
:1058E000882309F471C0810121E044E0C501B401BD
:1058F0000E94CC34F10101900020E9F73197E219C0
:10590000F3098EE18E9F90018F9F300D1124245C4E
:105910003F4F50EFA52EB12CA21AB30AB7FE03C019
:105920001FEFA11AB10AB594A794265F3F4FF12C3F
:10593000E12C08E210E04DE250E0B5018BE396E087
:105940000E94070D85E080934F068093500680915A
:105950006B05882309F4B0C580E098EF90934E065C
:1059600080934D0690934C0680934B0625E0A20E43
:10597000B11CB0924806A092470682E390E0909353
:105980004A06809349066AE273E08BE396E00E9440
:10599000DB17B1018BE396E00E94DB176DE273E049
:1059A0008BE396E00E94DB17809170059091710562
:1059B000A0917205B091730580930C0290930D0233
:1059C000A0930E02B0930F0280916B059091500549
:1059D0008917D9F100E018EF811102C008E012E444
:1059E00028E130E040E550E064E670E08EE190E0D0
:1059F0000E94CD1631E030934F0630935006D0927E
:105A00004E06C0924D06D0924C06C0924B0688E2DC
:105A100090E090934806809347068CE690E0909340
:105A20004A06809349066FE273E08BE396E00E949A
:105A3000DB1780916B0563E973E0811102C06CE9AB
:105A400073E08BE396E00E94DB1780916E059091E6
:105A500051058917A9F10FE110E0811102C000EE94
:105A600017E028E130E040E550E064E670E082E8CD
:105A700090E00E94CD1641E040934F0640935006BF
:105A8000D0924E06C0924D06D0924C06C0924B0664
:105A90008CE890E090934806809347068CE690E06F
:105AA00090934A068093490680916E0566E073E004
:105AB000811102C06DE073E08BE396E00E94DB177A
:105AC0008090210290902202A0902302B0902402A4
:105AD000209108023091090240910A0250910B0274
